{
	"data": {
		"bytecode": {
			"linkReferences": {},
			"object": "60806040524260015560006002556040518060200160405280600081525060039080519060200190620000349291906200010b565b5060405180602001604052806000815250600490805190602001906200005c9291906200010b565b506000600a60006101000a8154816fffffffffffffffffffffffffffffffff02191690836fffffffffffffffffffffffffffffffff1602179055506000600b556001600c60006101000a81548160ff021916908315150217905550348015620000c457600080fd5b50336000806101000a81548173ffffffffffffffffffffffffffffffffffffffff021916908373ffffffffffffffffffffffffffffffffffffffff16021790555062000220565b8280546200011990620001bb565b90600052602060002090601f0160209004810192826200013d576000855562000189565b82601f106200015857805160ff191683800117855562000189565b8280016001018555821562000189579182015b82811115620001885782518255916020019190600101906200016b565b5b5090506200019891906200019c565b5090565b5b80821115620001b75760008160009055506001016200019d565b5090565b60006002820490506001821680620001d457607f821691505b60208210811415620001eb57620001ea620001f1565b5b50919050565b7f4e487b7100000000000000000000000000000000000000000000000000000000600052602260045260246000fd5b6127ff80620002306000396000f3fe608060405234801561001057600080fd5b50600436106101375760003560e01c80638c64c366116100b8578063c00701621161007c578063c0070162146102e6578063c031751e14610302578063c7a7ed681461031e578063ce1b1d4314610328578063e5d48f2914610346578063f8a8fd6d1461037857610137565b80638c64c3661461024e578063921dfded1461026a578063a467b71a14610288578063b2bdfa7b146102be578063b98fe1bc146102dc57610137565b80632f197a71116100ff5780632f197a71146101bc5780633bfaad8b146101da5780634e2ce75c146101f657806378ba8e2314610214578063799712661461023057610137565b806313f1effe1461013c578063170194db1461015a5780631ca60445146101645780632464d946146101805780632eef6fe51461019e575b600080fd5b610144610396565b6040516101519190611ed9565b60405180910390f35b6101626103bc565b005b61017e60048036038101906101799190611937565b6107d4565b005b610188610b36565b6040516101959190611f2a565b60405180910390f35b6101a6610bc4565b6040516101b39190611f2a565b60405180910390f35b6101c4610c52565b6040516101d19190611fec565b60405180910390f35b6101f460048036038101906101ef91906119ba565b610c74565b005b6101fe610d34565b60405161020b9190612007565b60405180910390f35b61022e6004803603810190610229919061190a565b610d3a565b005b610238610e0c565b6040516102459190611ef4565b60405180910390f35b6102686004803603810190610263919061190a565b610e32565b005b610272610f04565b60405161027f9190612007565b60405180910390f35b6102a2600480360381019061029d9190611a8e565b610f0a565b6040516102b59796959493929190612060565b60405180910390f35b6102c661102a565b6040516102d39190611e73565b60405180910390f35b6102e461104e565b005b61030060048036038101906102fb919061190a565b6112bc565b005b61031c60048036038101906103179190611a32565b61138e565b005b610326611566565b005b610330611665565b60405161033d9190611f0f565b60405180910390f35b610360600480360381019061035b9190611a8e565b61168b565b60405161036f93929190611f4c565b60405180910390f35b610380611768565b60405161038d9190611ebe565b60405180910390f35b600560009054906101000a900473ffffffffffffffffffffffffffffffffffffffff1681565b60008054906101000a900473ffffffffffffffffffffffffffffffffffffffff1673ffffffffffffffffffffffffffffffffffffffff163373ffffffffffffffffffffffffffffffffffffffff161461044a576040517f08c379a000000000000000000000000000000000000000000000000000000000815260040161044190611faa565b60405180910390fd5b5b600a60009054906101000a90046fffffffffffffffffffffffffffffffff166fffffffffffffffffffffffffffffffff1660025410156107d257600660009054906101000a900473ffffffffffffffffffffffffffffffffffffffff1673ffffffffffffffffffffffffffffffffffffffff16638e4ef7e660008054906101000a900473ffffffffffffffffffffffffffffffffffffffff1660096000600a60009054906101000a90046fffffffffffffffffffffffffffffffff166fffffffffffffffffffffffffffffffff1681526020019081526020016000206003016040518363ffffffff1660e01b8152600401610547929190611e8e565b600060405180830381600087803b15801561056157600080fd5b505af1158015610575573d6000803e3d6000fd5b50505050600160096000600a60009054906101000a90046fffffffffffffffffffffffffffffffff166fffffffffffffffffffffffffffffffff16815260200190815260200160002060040160106101000a81548160ff0219169083151502179055506000151560096000600a60009054906101000a90046fffffffffffffffffffffffffffffffff166fffffffffffffffffffffffffffffffff16815260200190815260200160002060040160109054906101000a900460ff16151514156107b757600560009054906101000a900473ffffffffffffffffffffffffffffffffffffffff1673ffffffffffffffffffffffffffffffffffffffff16630e35fab760096000600a60009054906101000a90046fffffffffffffffffffffffffffffffff166fffffffffffffffffffffffffffffffff1681526020019081526020016000206001015460096000600a60009054906101000a90046fffffffffffffffffffffffffffffffff166fffffffffffffffffffffffffffffffff16815260200190815260200160002060030160096000600a60009054906101000a90046fffffffffffffffffffffffffffffffff166fffffffffffffffffffffffffffffffff16815260200190815260200160002060040160009054906101000a90046fffffffffffffffffffffffffffffffff166040518463ffffffff1660e01b815260040161078493929190612022565b600060405180830381600087803b15801561079e57600080fd5b505af11580156107b2573d6000803e3d6000fd5b505050505b6002600081546107c69061257a565b9190508190555061044b565b565b6000805b6008805490508160ff1610156108495760088160ff16815481106107ff576107fe61264b565b5b906000526020600020906002020160000160405161081d9190611e5c565b60405180910390208480519060200120141561083857600191505b80610842906125c3565b90506107d8565b50600115158115151461085b57600080fd5b60006040518060e00160405280600b5481526020018681526020018773ffffffffffffffffffffffffffffffffffffffff168152602001858152602001846fffffffffffffffffffffffffffffffff1681526020016000151581526020016001151581525090506000151560096000600a60009054906101000a90046fffffffffffffffffffffffffffffffff166fffffffffffffffffffffffffffffffff16815260200190815260200160002060040160119054906101000a900460ff1615151415610ac5578060096000600a60009054906101000a90046fffffffffffffffffffffffffffffffff166fffffffffffffffffffffffffffffffff168152602001908152602001600020600082015181600001556020820151816001015560408201518160020160006101000a81548173ffffffffffffffffffffffffffffffffffffffff021916908373ffffffffffffffffffffffffffffffffffffffff16021790555060608201518160030190805190602001906109dd92919061177b565b5060808201518160040160006101000a8154816fffffffffffffffffffffffffffffffff02191690836fffffffffffffffffffffffffffffffff16021790555060a08201518160040160106101000a81548160ff02191690831515021790555060c08201518160040160116101000a81548160ff0219169083151502179055509050506001600a60008282829054906101000a90046fffffffffffffffffffffffffffffffff16610a8e91906121f6565b92506101000a8154816fffffffffffffffffffffffffffffffff02191690836fffffffffffffffffffffffffffffffff1602179055505b6001600b6000828254610ad8919061223c565b925050819055507f9dec36afb84850552e7f660fb12ec179ba60d844b56e6bb36a97aa6c71111441600b5486888787886019610b149190612292565b604051610b26969594939291906120d6565b60405180910390a1505050505050565b60048054610b439061245c565b80601f0160208091040260200160405190810160405280929190818152602001828054610b6f9061245c565b8015610bbc5780601f10610b9157610100808354040283529160200191610bbc565b820191906000526020600020905b815481529060010190602001808311610b9f57829003601f168201915b505050505081565b60038054610bd19061245c565b80601f0160208091040260200160405190810160405280929190818152602001828054610bfd9061245c565b8015610c4a5780601f10610c1f57610100808354040283529160200191610c4a565b820191906000526020600020905b815481529060010190602001808311610c2d57829003601f168201915b505050505081565b600a60009054906101000a90046fffffffffffffffffffffffffffffffff1681565b60008054906101000a900473ffffffffffffffffffffffffffffffffffffffff1673ffffffffffffffffffffffffffffffffffffffff163373ffffffffffffffffffffffffffffffffffffffff1614610d02576040517f08c379a0000000000000000000000000000000000000000000000000000000008152600401610cf990611faa565b60405180910390fd5b8160039080519060200190610d1892919061177b565b508060049080519060200190610d2f92919061177b565b505050565b600b5481565b60008054906101000a900473ffffffffffffffffffffffffffffffffffffffff1673ffffffffffffffffffffffffffffffffffffffff163373ffffffffffffffffffffffffffffffffffffffff1614610dc8576040517f08c379a0000000000000000000000000000000000000000000000000000000008152600401610dbf90611faa565b60405180910390fd5b80600760006101000a81548173ffffffffffffffffffffffffffffffffffffffff021916908373ffffffffffffffffffffffffffffffffffffffff16021790555050565b600660009054906101000a900473ffffffffffffffffffffffffffffffffffffffff1681565b60008054906101000a900473ffffffffffffffffffffffffffffffffffffffff1673ffffffffffffffffffffffffffffffffffffffff163373ffffffffffffffffffffffffffffffffffffffff1614610ec0576040517f08c379a0000000000000000000000000000000000000000000000000000000008152600401610eb790611faa565b60405180910390fd5b80600660006101000a81548173ffffffffffffffffffffffffffffffffffffffff021916908373ffffffffffffffffffffffffffffffffffffffff16021790555050565b60015481565b60096020528060005260406000206000915090508060000154908060010154908060020160009054906101000a900473ffffffffffffffffffffffffffffffffffffffff1690806003018054610f5f9061245c565b80601f0160208091040260200160405190810160405280929190818152602001828054610f8b9061245c565b8015610fd85780601f10610fad57610100808354040283529160200191610fd8565b820191906000526020600020905b815481529060010190602001808311610fbb57829003601f168201915b5050505050908060040160009054906101000a90046fffffffffffffffffffffffffffffffff16908060040160109054906101000a900460ff16908060040160119054906101000a900460ff16905087565b60008054906101000a900473ffffffffffffffffffffffffffffffffffffffff1681565b60008054906101000a900473ffffffffffffffffffffffffffffffffffffffff1673ffffffffffffffffffffffffffffffffffffffff163373ffffffffffffffffffffffffffffffffffffffff16146110dc576040517f08c379a00000000000000000000000000000000000000000000000000000000081526004016110d390611faa565b60405180910390fd5b60005b600a60009054906101000a90046fffffffffffffffffffffffffffffffff166fffffffffffffffffffffffffffffffff16816fffffffffffffffffffffffffffffffff1610156112b957600760009054906101000a900473ffffffffffffffffffffffffffffffffffffffff1673ffffffffffffffffffffffffffffffffffffffff1663b73a3a7f60096000846fffffffffffffffffffffffffffffffff1681526020019081526020016000206000015460096000856fffffffffffffffffffffffffffffffff16815260200190815260200160002060030160096000866fffffffffffffffffffffffffffffffff16815260200190815260200160002060040160009054906101000a90046fffffffffffffffffffffffffffffffff166040518463ffffffff1660e01b815260040161121b93929190612022565b600060405180830381600087803b15801561123557600080fd5b505af1158015611249573d6000803e3d6000fd5b505050507ffd1bcd59b0263ac9966833c5210e1cf2992499bc85d4783e8c4aa79169c1489560096000836fffffffffffffffffffffffffffffffff1681526020019081526020016000206040516112a09190611fca565b60405180910390a1806112b290612541565b90506110df565b50565b60008054906101000a900473ffffffffffffffffffffffffffffffffffffffff1673ffffffffffffffffffffffffffffffffffffffff163373ffffffffffffffffffffffffffffffffffffffff161461134a576040517f08c379a000000000000000000000000000000000000000000000000000000000815260040161134190611faa565b60405180910390fd5b80600560006101000a81548173ffffffffffffffffffffffffffffffffffffffff021916908373ffffffffffffffffffffffffffffffffffffffff16021790555050565b60008054906101000a900473ffffffffffffffffffffffffffffffffffffffff1673ffffffffffffffffffffffffffffffffffffffff163373ffffffffffffffffffffffffffffffffffffffff161461141c576040517f08c379a000000000000000000000000000000000000000000000000000000000815260040161141390611faa565b60405180910390fd5b6000611426611801565b60005b6008805490508160ff16101561149a5760088160ff16815481106114505761144f61264b565b5b906000526020600020906002020160000160405161146e9190611e5c565b60405180910390208580519060200120141561148957600192505b80611493906125c3565b9050611429565b50816115605783816000018190525082816020019060ff16908160ff16815250506000816040019061ffff16908161ffff16815250506008819080600181540180825580915050600190039060005260206000209060020201600090919091909150600082015181600001908051906020019061151892919061177b565b5060208201518160010160006101000a81548160ff021916908360ff16021790555060408201518160010160016101000a81548161ffff021916908361ffff16021790555050505b50505050565b600154804210156115ac576040517f08c379a00000000000000000000000000000000000000000000000000000000081526004016115a390611f8a565b60405180910390fd5b60005b600a60009054906101000a90046fffffffffffffffffffffffffffffffff166fffffffffffffffffffffffffffffffff168110156116275760016009600083815260200190815260200160002060040160116101000a81548160ff021916908315150217905550806116209061257a565b90506115af565b506000600a60006101000a8154816fffffffffffffffffffffffffffffffff02191690836fffffffffffffffffffffffffffffffff16021790555050565b600760009054906101000a900473ffffffffffffffffffffffffffffffffffffffff1681565b6008818154811061169b57600080fd5b90600052602060002090600202016000915090508060000180546116be9061245c565b80601f01602080910402602001604051908101604052809291908181526020018280546116ea9061245c565b80156117375780601f1061170c57610100808354040283529160200191611737565b820191906000526020600020905b81548152906001019060200180831161171a57829003601f168201915b5050505050908060010160009054906101000a900460ff16908060010160019054906101000a900461ffff16905083565b600c60009054906101000a900460ff1681565b8280546117879061245c565b90600052602060002090601f0160209004810192826117a957600085556117f0565b82601f106117c257805160ff19168380011785556117f0565b828001600101855582156117f0579182015b828111156117ef5782518255916020019190600101906117d4565b5b5090506117fd9190611829565b5090565b604051806060016040528060608152602001600060ff168152602001600061ffff1681525090565b5b8082111561184257600081600090555060010161182a565b5090565b600061185961185484612163565b61213e565b905082815260208101848484011115611875576118746126ae565b5b61188084828561241a565b509392505050565b6000813590506118978161276d565b92915050565b600082601f8301126118b2576118b16126a9565b5b81356118c2848260208601611846565b91505092915050565b6000813590506118da81612784565b92915050565b6000813590506118ef8161279b565b92915050565b600081359050611904816127b2565b92915050565b6000602082840312156119205761191f6126b8565b5b600061192e84828501611888565b91505092915050565b60008060008060808587031215611951576119506126b8565b5b600061195f87828801611888565b9450506020611970878288016118e0565b935050604085013567ffffffffffffffff811115611991576119906126b3565b5b61199d8782880161189d565b92505060606119ae878288016118cb565b91505092959194509250565b600080604083850312156119d1576119d06126b8565b5b600083013567ffffffffffffffff8111156119ef576119ee6126b3565b5b6119fb8582860161189d565b925050602083013567ffffffffffffffff811115611a1c57611a1b6126b3565b5b611a288582860161189d565b9150509250929050565b60008060408385031215611a4957611a486126b8565b5b600083013567ffffffffffffffff811115611a6757611a666126b3565b5b611a738582860161189d565b9250506020611a84858286016118f5565b9150509250929050565b600060208284031215611aa457611aa36126b8565b5b6000611ab2848285016118e0565b91505092915050565b611ac48161232f565b82525050565b611ad38161232f565b82525050565b611ae281612341565b82525050565b611af181612341565b82525050565b60008154611b048161245c565b611b0e81866121c9565b94506001821660008114611b295760018114611b3a57611b6d565b60ff19831686528186019350611b6d565b611b4385612194565b60005b83811015611b6557815481890152600182019150602081019050611b46565b838801955050505b50505092915050565b611b7f816123ae565b82525050565b611b8e816123c0565b82525050565b611b9d816123d2565b82525050565b6000611bae826121be565b611bb881856121e5565b9350611bc8818560208601612429565b611bd1816126bd565b840191505092915050565b60008154611be98161245c565b611bf381866121d4565b94506001821660008114611c0e5760018114611c2057611c53565b60ff1983168652602086019350611c53565b611c29856121a9565b60005b83811015611c4b57815481890152600182019150602081019050611c2c565b808801955050505b50505092915050565b60008154611c698161245c565b611c7381866121e5565b94506001821660008114611c8e5760018114611ca057611cd3565b60ff1983168652602086019350611cd3565b611ca9856121a9565b60005b83811015611ccb57815481890152600182019150602081019050611cac565b808801955050505b50505092915050565b6000611ce9601a836121e5565b9150611cf4826126f5565b602082019050919050565b6000611d0c6033836121e5565b9150611d178261271e565b604082019050919050565b600060e083016000808401549050611d39816124c2565b611d466000870182611e2f565b5060018401549050611d57816124c2565b611d646020870182611e2f565b5060028401549050611d758161248e565b611d826040870182611abb565b50600384018583036060870152611d998382611bdc565b92505060048401549050611dac816124a8565b611db96080870182611df3565b50611dc3816124dc565b611dd060a0870182611ad9565b50611dda816124f6565b611de760c0870182611ad9565b50819250505092915050565b611dfc8161234d565b82525050565b611e0b8161234d565b82525050565b611e1a816123e4565b82525050565b611e2981612369565b82525050565b611e3881612397565b82525050565b611e4781612397565b82525050565b611e56816123a1565b82525050565b6000611e688284611af7565b915081905092915050565b6000602082019050611e886000830184611aca565b92915050565b6000604082019050611ea36000830185611aca565b8181036020830152611eb58184611c5c565b90509392505050565b6000602082019050611ed36000830184611ae8565b92915050565b6000602082019050611eee6000830184611b76565b92915050565b6000602082019050611f096000830184611b85565b92915050565b6000602082019050611f246000830184611b94565b92915050565b60006020820190508181036000830152611f448184611ba3565b905092915050565b60006060820190508181036000830152611f668186611ba3565b9050611f756020830185611e4d565b611f826040830184611e20565b949350505050565b60006020820190508181036000830152611fa381611cdc565b9050919050565b60006020820190508181036000830152611fc381611cff565b9050919050565b60006020820190508181036000830152611fe48184611d22565b905092915050565b60006020820190506120016000830184611e02565b92915050565b600060208201905061201c6000830184611e3e565b92915050565b60006060820190506120376000830186611e3e565b81810360208301526120498185611c5c565b90506120586040830184611e02565b949350505050565b600060e082019050612075600083018a611e3e565b6120826020830189611e3e565b61208f6040830188611aca565b81810360608301526120a18187611ba3565b90506120b06080830186611e02565b6120bd60a0830185611ae8565b6120ca60c0830184611ae8565b98975050505050505050565b600060c0820190506120eb6000830189611e3e565b6120f86020830188611e3e565b6121056040830187611aca565b81810360608301526121178186611ba3565b90506121266080830185611e02565b61213360a0830184611e11565b979650505050505050565b6000612148612159565b90506121548282612510565b919050565b6000604051905090565b600067ffffffffffffffff82111561217e5761217d61267a565b5b612187826126bd565b9050602081019050919050565b60008190508160005260206000209050919050565b60008190508160005260206000209050919050565b600081519050919050565b600081905092915050565b600082825260208201905092915050565b600082825260208201905092915050565b60006122018261234d565b915061220c8361234d565b9250826fffffffffffffffffffffffffffffffff03821115612231576122306125ed565b5b828201905092915050565b600061224782612397565b915061225283612397565b9250827fffffffffffffffffffffffffffffffffffffffffffffffffffffffffffffffff03821115612287576122866125ed565b5b828201905092915050565b600061229d8261234d565b91506122a88361234d565b9250816fffffffffffffffffffffffffffffffff04831182151516156122d1576122d06125ed565b5b828202905092915050565b600073ffffffffffffffffffffffffffffffffffffffff82169050919050565b600060ff82169050919050565b60006fffffffffffffffffffffffffffffffff82169050919050565b6000819050919050565b600061233a82612377565b9050919050565b60008115159050919050565b60006fffffffffffffffffffffffffffffffff82169050919050565b600061ffff82169050919050565b600073ffffffffffffffffffffffffffffffffffffffff82169050919050565b6000819050919050565b600060ff82169050919050565b60006123b9826123f6565b9050919050565b60006123cb826123f6565b9050919050565b60006123dd826123f6565b9050919050565b60006123ef8261234d565b9050919050565b600061240182612408565b9050919050565b600061241382612377565b9050919050565b82818337600083830152505050565b60005b8381101561244757808201518184015260208101905061242c565b83811115612456576000848401525b50505050565b6000600282049050600182168061247457607f821691505b602082108114156124885761248761261c565b5b50919050565b60006124a161249c836126ce565b6122dc565b9050919050565b60006124bb6124b6836126ce565b612309565b9050919050565b60006124d56124d0836126ce565b612325565b9050919050565b60006124ef6124ea836126db565b6122fc565b9050919050565b6000612509612504836126e8565b6122fc565b9050919050565b612519826126bd565b810181811067ffffffffffffffff821117156125385761253761267a565b5b80604052505050565b600061254c8261234d565b91506fffffffffffffffffffffffffffffffff82141561256f5761256e6125ed565b5b600182019050919050565b600061258582612397565b91507fffffffffffffffffffffffffffffffffffffffffffffffffffffffffffffffff8214156125b8576125b76125ed565b5b600182019050919050565b60006125ce826123a1565b915060ff8214156125e2576125e16125ed565b5b600182019050919050565b7f4e487b7100000000000000000000000000000000000000000000000000000000600052601160045260246000fd5b7f4e487b7100000000000000000000000000000000000000000000000000000000600052602260045260246000fd5b7f4e487b7100000000000000000000000000000000000000000000000000000000600052603260045260246000fd5b7f4e487b7100000000000000000000000000000000000000000000000000000000600052604160045260246000fd5b600080fd5b600080fd5b600080fd5b600080fd5b6000601f19601f8301169050919050565b60008160001c9050919050565b60008160801c9050919050565b60008160881c9050919050565b7f46756e6374696f6e2063616c6c656420746f6f206561726c792e000000000000600082015250565b7f546869732066756e6374696f6e206973207265737472696374656420746f207460008201527f686520636f6e74726163742773206f776e657200000000000000000000000000602082015250565b6127768161232f565b811461278157600080fd5b50565b61278d8161234d565b811461279857600080fd5b50565b6127a481612397565b81146127af57600080fd5b50565b6127bb816123a1565b81146127c657600080fd5b5056fea26469706673582212201362626309c53fb9a170d7e661ea55c537ce14263d9e76b532d9e11831887fe364736f6c63430008070033",
			"opcodes": "PUSH1 0x80 PUSH1 0x40 MSTORE TIMESTAMP PUSH1 0x1 SSTORE PUSH1 0x0 PUSH1 0x2 SSTORE PUSH1 0x40 MLOAD DUP1 PUSH1 0x20 ADD PUSH1 0x40 MSTORE DUP1 PUSH1 0x0 DUP2 MSTORE POP PUSH1 0x3 SWAP1 DUP1 MLOAD SWAP1 PUSH1 0x20 ADD SWAP1 PUSH3 0x34 SWAP3 SWAP2 SWAP1 PUSH3 0x10B JUMP JUMPDEST POP PUSH1 0x40 MLOAD DUP1 PUSH1 0x20 ADD PUSH1 0x40 MSTORE DUP1 PUSH1 0x0 DUP2 MSTORE POP PUSH1 0x4 SWAP1 DUP1 MLOAD SWAP1 PUSH1 0x20 ADD SWAP1 PUSH3 0x5C SWAP3 SWAP2 SWAP1 PUSH3 0x10B JUMP JUMPDEST POP PUSH1 0x0 PUSH1 0xA PUSH1 0x0 PUSH2 0x100 EXP DUP2 SLOAD DUP2 PUSH16 0xFFFFFFFFFFFFFFFFFFFFFFFFFFFFFFFF MUL NOT AND SWAP1 DUP4 PUSH16 0xFFFFFFFFFFFFFFFFFFFFFFFFFFFFFFFF AND MUL OR SWAP1 SSTORE POP PUSH1 0x0 PUSH1 0xB SSTORE PUSH1 0x1 PUSH1 0xC PUSH1 0x0 PUSH2 0x100 EXP DUP2 SLOAD DUP2 PUSH1 0xFF MUL NOT AND SWAP1 DUP4 ISZERO ISZERO MUL OR SWAP1 SSTORE POP CALLVALUE DUP1 ISZERO PUSH3 0xC4 JUMPI PUSH1 0x0 DUP1 REVERT JUMPDEST POP CALLER PUSH1 0x0 DUP1 PUSH2 0x100 EXP DUP2 SLOAD DUP2 PUSH20 0xFFFFFFFFFFFFFFFFFFFFFFFFFFFFFFFFFFFFFFFF MUL NOT AND SWAP1 DUP4 PUSH20 0xFFFFFFFFFFFFFFFFFFFFFFFFFFFFFFFFFFFFFFFF AND MUL OR SWAP1 SSTORE POP PUSH3 0x220 JUMP JUMPDEST DUP3 DUP1 SLOAD PUSH3 0x119 SWAP1 PUSH3 0x1BB JUMP JUMPDEST SWAP1 PUSH1 0x0 MSTORE PUSH1 0x20 PUSH1 0x0 KECCAK256 SWAP1 PUSH1 0x1F ADD PUSH1 0x20 SWAP1 DIV DUP2 ADD SWAP3 DUP3 PUSH3 0x13D JUMPI PUSH1 0x0 DUP6 SSTORE PUSH3 0x189 JUMP JUMPDEST DUP3 PUSH1 0x1F LT PUSH3 0x158 JUMPI DUP1 MLOAD PUSH1 0xFF NOT AND DUP4 DUP1 ADD OR DUP6 SSTORE PUSH3 0x189 JUMP JUMPDEST DUP3 DUP1 ADD PUSH1 0x1 ADD DUP6 SSTORE DUP3 ISZERO PUSH3 0x189 JUMPI SWAP2 DUP3 ADD JUMPDEST DUP3 DUP2 GT ISZERO PUSH3 0x188 JUMPI DUP3 MLOAD DUP3 SSTORE SWAP2 PUSH1 0x20 ADD SWAP2 SWAP1 PUSH1 0x1 ADD SWAP1 PUSH3 0x16B JUMP JUMPDEST JUMPDEST POP SWAP1 POP PUSH3 0x198 SWAP2 SWAP1 PUSH3 0x19C JUMP JUMPDEST POP SWAP1 JUMP JUMPDEST JUMPDEST DUP1 DUP3 GT ISZERO PUSH3 0x1B7 JUMPI PUSH1 0x0 DUP2 PUSH1 0x0 SWAP1 SSTORE POP PUSH1 0x1 ADD PUSH3 0x19D JUMP JUMPDEST POP SWAP1 JUMP JUMPDEST PUSH1 0x0 PUSH1 0x2 DUP3 DIV SWAP1 POP PUSH1 0x1 DUP3 AND DUP1 PUSH3 0x1D4 JUMPI PUSH1 0x7F DUP3 AND SWAP2 POP JUMPDEST PUSH1 0x20 DUP3 LT DUP2 EQ ISZERO PUSH3 0x1EB JUMPI PUSH3 0x1EA PUSH3 0x1F1 JUMP JUMPDEST JUMPDEST POP SWAP2 SWAP1 POP JUMP JUMPDEST PUSH32 0x4E487B7100000000000000000000000000000000000000000000000000000000 PUSH1 0x0 MSTORE PUSH1 0x22 PUSH1 0x4 MSTORE PUSH1 0x24 PUSH1 0x0 REVERT JUMPDEST PUSH2 0x27FF DUP1 PUSH3 0x230 PUSH1 0x0 CODECOPY PUSH1 0x0 RETURN INVALID PUSH1 0x80 PUSH1 0x40 MSTORE CALLVALUE DUP1 ISZERO PUSH2 0x10 JUMPI PUSH1 0x0 DUP1 REVERT JUMPDEST POP PUSH1 0x4 CALLDATASIZE LT PUSH2 0x137 JUMPI PUSH1 0x0 CALLDATALOAD PUSH1 0xE0 SHR DUP1 PUSH4 0x8C64C366 GT PUSH2 0xB8 JUMPI DUP1 PUSH4 0xC0070162 GT PUSH2 0x7C JUMPI DUP1 PUSH4 0xC0070162 EQ PUSH2 0x2E6 JUMPI DUP1 PUSH4 0xC031751E EQ PUSH2 0x302 JUMPI DUP1 PUSH4 0xC7A7ED68 EQ PUSH2 0x31E JUMPI DUP1 PUSH4 0xCE1B1D43 EQ PUSH2 0x328 JUMPI DUP1 PUSH4 0xE5D48F29 EQ PUSH2 0x346 JUMPI DUP1 PUSH4 0xF8A8FD6D EQ PUSH2 0x378 JUMPI PUSH2 0x137 JUMP JUMPDEST DUP1 PUSH4 0x8C64C366 EQ PUSH2 0x24E JUMPI DUP1 PUSH4 0x921DFDED EQ PUSH2 0x26A JUMPI DUP1 PUSH4 0xA467B71A EQ PUSH2 0x288 JUMPI DUP1 PUSH4 0xB2BDFA7B EQ PUSH2 0x2BE JUMPI DUP1 PUSH4 0xB98FE1BC EQ PUSH2 0x2DC JUMPI PUSH2 0x137 JUMP JUMPDEST DUP1 PUSH4 0x2F197A71 GT PUSH2 0xFF JUMPI DUP1 PUSH4 0x2F197A71 EQ PUSH2 0x1BC JUMPI DUP1 PUSH4 0x3BFAAD8B EQ PUSH2 0x1DA JUMPI DUP1 PUSH4 0x4E2CE75C EQ PUSH2 0x1F6 JUMPI DUP1 PUSH4 0x78BA8E23 EQ PUSH2 0x214 JUMPI DUP1 PUSH4 0x79971266 EQ PUSH2 0x230 JUMPI PUSH2 0x137 JUMP JUMPDEST DUP1 PUSH4 0x13F1EFFE EQ PUSH2 0x13C JUMPI DUP1 PUSH4 0x170194DB EQ PUSH2 0x15A JUMPI DUP1 PUSH4 0x1CA60445 EQ PUSH2 0x164 JUMPI DUP1 PUSH4 0x2464D946 EQ PUSH2 0x180 JUMPI DUP1 PUSH4 0x2EEF6FE5 EQ PUSH2 0x19E JUMPI JUMPDEST PUSH1 0x0 DUP1 REVERT JUMPDEST PUSH2 0x144 PUSH2 0x396 JUMP JUMPDEST PUSH1 0x40 MLOAD PUSH2 0x151 SWAP2 SWAP1 PUSH2 0x1ED9 JUMP JUMPDEST PUSH1 0x40 MLOAD DUP1 SWAP2 SUB SWAP1 RETURN JUMPDEST PUSH2 0x162 PUSH2 0x3BC JUMP JUMPDEST STOP JUMPDEST PUSH2 0x17E PUSH1 0x4 DUP1 CALLDATASIZE SUB DUP2 ADD SWAP1 PUSH2 0x179 SWAP2 SWAP1 PUSH2 0x1937 JUMP JUMPDEST PUSH2 0x7D4 JUMP JUMPDEST STOP JUMPDEST PUSH2 0x188 PUSH2 0xB36 JUMP JUMPDEST PUSH1 0x40 MLOAD PUSH2 0x195 SWAP2 SWAP1 PUSH2 0x1F2A JUMP JUMPDEST PUSH1 0x40 MLOAD DUP1 SWAP2 SUB SWAP1 RETURN JUMPDEST PUSH2 0x1A6 PUSH2 0xBC4 JUMP JUMPDEST PUSH1 0x40 MLOAD PUSH2 0x1B3 SWAP2 SWAP1 PUSH2 0x1F2A JUMP JUMPDEST PUSH1 0x40 MLOAD DUP1 SWAP2 SUB SWAP1 RETURN JUMPDEST PUSH2 0x1C4 PUSH2 0xC52 JUMP JUMPDEST PUSH1 0x40 MLOAD PUSH2 0x1D1 SWAP2 SWAP1 PUSH2 0x1FEC JUMP JUMPDEST PUSH1 0x40 MLOAD DUP1 SWAP2 SUB SWAP1 RETURN JUMPDEST PUSH2 0x1F4 PUSH1 0x4 DUP1 CALLDATASIZE SUB DUP2 ADD SWAP1 PUSH2 0x1EF SWAP2 SWAP1 PUSH2 0x19BA JUMP JUMPDEST PUSH2 0xC74 JUMP JUMPDEST STOP JUMPDEST PUSH2 0x1FE PUSH2 0xD34 JUMP JUMPDEST PUSH1 0x40 MLOAD PUSH2 0x20B SWAP2 SWAP1 PUSH2 0x2007 JUMP JUMPDEST PUSH1 0x40 MLOAD DUP1 SWAP2 SUB SWAP1 RETURN JUMPDEST PUSH2 0x22E PUSH1 0x4 DUP1 CALLDATASIZE SUB DUP2 ADD SWAP1 PUSH2 0x229 SWAP2 SWAP1 PUSH2 0x190A JUMP JUMPDEST PUSH2 0xD3A JUMP JUMPDEST STOP JUMPDEST PUSH2 0x238 PUSH2 0xE0C JUMP JUMPDEST PUSH1 0x40 MLOAD PUSH2 0x245 SWAP2 SWAP1 PUSH2 0x1EF4 JUMP JUMPDEST PUSH1 0x40 MLOAD DUP1 SWAP2 SUB SWAP1 RETURN JUMPDEST PUSH2 0x268 PUSH1 0x4 DUP1 CALLDATASIZE SUB DUP2 ADD SWAP1 PUSH2 0x263 SWAP2 SWAP1 PUSH2 0x190A JUMP JUMPDEST PUSH2 0xE32 JUMP JUMPDEST STOP JUMPDEST PUSH2 0x272 PUSH2 0xF04 JUMP JUMPDEST PUSH1 0x40 MLOAD PUSH2 0x27F SWAP2 SWAP1 PUSH2 0x2007 JUMP JUMPDEST PUSH1 0x40 MLOAD DUP1 SWAP2 SUB SWAP1 RETURN JUMPDEST PUSH2 0x2A2 PUSH1 0x4 DUP1 CALLDATASIZE SUB DUP2 ADD SWAP1 PUSH2 0x29D SWAP2 SWAP1 PUSH2 0x1A8E JUMP JUMPDEST PUSH2 0xF0A JUMP JUMPDEST PUSH1 0x40 MLOAD PUSH2 0x2B5 SWAP8 SWAP7 SWAP6 SWAP5 SWAP4 SWAP3 SWAP2 SWAP1 PUSH2 0x2060 JUMP JUMPDEST PUSH1 0x40 MLOAD DUP1 SWAP2 SUB SWAP1 RETURN JUMPDEST PUSH2 0x2C6 PUSH2 0x102A JUMP JUMPDEST PUSH1 0x40 MLOAD PUSH2 0x2D3 SWAP2 SWAP1 PUSH2 0x1E73 JUMP JUMPDEST PUSH1 0x40 MLOAD DUP1 SWAP2 SUB SWAP1 RETURN JUMPDEST PUSH2 0x2E4 PUSH2 0x104E JUMP JUMPDEST STOP JUMPDEST PUSH2 0x300 PUSH1 0x4 DUP1 CALLDATASIZE SUB DUP2 ADD SWAP1 PUSH2 0x2FB SWAP2 SWAP1 PUSH2 0x190A JUMP JUMPDEST PUSH2 0x12BC JUMP JUMPDEST STOP JUMPDEST PUSH2 0x31C PUSH1 0x4 DUP1 CALLDATASIZE SUB DUP2 ADD SWAP1 PUSH2 0x317 SWAP2 SWAP1 PUSH2 0x1A32 JUMP JUMPDEST PUSH2 0x138E JUMP JUMPDEST STOP JUMPDEST PUSH2 0x326 PUSH2 0x1566 JUMP JUMPDEST STOP JUMPDEST PUSH2 0x330 PUSH2 0x1665 JUMP JUMPDEST PUSH1 0x40 MLOAD PUSH2 0x33D SWAP2 SWAP1 PUSH2 0x1F0F JUMP JUMPDEST PUSH1 0x40 MLOAD DUP1 SWAP2 SUB SWAP1 RETURN JUMPDEST PUSH2 0x360 PUSH1 0x4 DUP1 CALLDATASIZE SUB DUP2 ADD SWAP1 PUSH2 0x35B SWAP2 SWAP1 PUSH2 0x1A8E JUMP JUMPDEST PUSH2 0x168B JUMP JUMPDEST PUSH1 0x40 MLOAD PUSH2 0x36F SWAP4 SWAP3 SWAP2 SWAP1 PUSH2 0x1F4C JUMP JUMPDEST PUSH1 0x40 MLOAD DUP1 SWAP2 SUB SWAP1 RETURN JUMPDEST PUSH2 0x380 PUSH2 0x1768 JUMP JUMPDEST PUSH1 0x40 MLOAD PUSH2 0x38D SWAP2 SWAP1 PUSH2 0x1EBE JUMP JUMPDEST PUSH1 0x40 MLOAD DUP1 SWAP2 SUB SWAP1 RETURN JUMPDEST PUSH1 0x5 PUSH1 0x0 SWAP1 SLOAD SWAP1 PUSH2 0x100 EXP SWAP1 DIV PUSH20 0xFFFFFFFFFFFFFFFFFFFFFFFFFFFFFFFFFFFFFFFF AND DUP2 JUMP JUMPDEST PUSH1 0x0 DUP1 SLOAD SWAP1 PUSH2 0x100 EXP SWAP1 DIV PUSH20 0xFFFFFFFFFFFFFFFFFFFFFFFFFFFFFFFFFFFFFFFF AND PUSH20 0xFFFFFFFFFFFFFFFFFFFFFFFFFFFFFFFFFFFFFFFF AND CALLER PUSH20 0xFFFFFFFFFFFFFFFFFFFFFFFFFFFFFFFFFFFFFFFF AND EQ PUSH2 0x44A JUMPI PUSH1 0x40 MLOAD PUSH32 0x8C379A000000000000000000000000000000000000000000000000000000000 DUP2 MSTORE PUSH1 0x4 ADD PUSH2 0x441 SWAP1 PUSH2 0x1FAA JUMP JUMPDEST PUSH1 0x40 MLOAD DUP1 SWAP2 SUB SWAP1 REVERT JUMPDEST JUMPDEST PUSH1 0xA PUSH1 0x0 SWAP1 SLOAD SWAP1 PUSH2 0x100 EXP SWAP1 DIV PUSH16 0xFFFFFFFFFFFFFFFFFFFFFFFFFFFFFFFF AND PUSH16 0xFFFFFFFFFFFFFFFFFFFFFFFFFFFFFFFF AND PUSH1 0x2 SLOAD LT ISZERO PUSH2 0x7D2 JUMPI PUSH1 0x6 PUSH1 0x0 SWAP1 SLOAD SWAP1 PUSH2 0x100 EXP SWAP1 DIV PUSH20 0xFFFFFFFFFFFFFFFFFFFFFFFFFFFFFFFFFFFFFFFF AND PUSH20 0xFFFFFFFFFFFFFFFFFFFFFFFFFFFFFFFFFFFFFFFF AND PUSH4 0x8E4EF7E6 PUSH1 0x0 DUP1 SLOAD SWAP1 PUSH2 0x100 EXP SWAP1 DIV PUSH20 0xFFFFFFFFFFFFFFFFFFFFFFFFFFFFFFFFFFFFFFFF AND PUSH1 0x9 PUSH1 0x0 PUSH1 0xA PUSH1 0x0 SWAP1 SLOAD SWAP1 PUSH2 0x100 EXP SWAP1 DIV PUSH16 0xFFFFFFFFFFFFFFFFFFFFFFFFFFFFFFFF AND PUSH16 0xFFFFFFFFFFFFFFFFFFFFFFFFFFFFFFFF AND DUP2 MSTORE PUSH1 0x20 ADD SWAP1 DUP2 MSTORE PUSH1 0x20 ADD PUSH1 0x0 KECCAK256 PUSH1 0x3 ADD PUSH1 0x40 MLOAD DUP4 PUSH4 0xFFFFFFFF AND PUSH1 0xE0 SHL DUP2 MSTORE PUSH1 0x4 ADD PUSH2 0x547 SWAP3 SWAP2 SWAP1 PUSH2 0x1E8E JUMP JUMPDEST PUSH1 0x0 PUSH1 0x40 MLOAD DUP1 DUP4 SUB DUP2 PUSH1 0x0 DUP8 DUP1 EXTCODESIZE ISZERO DUP1 ISZERO PUSH2 0x561 JUMPI PUSH1 0x0 DUP1 REVERT JUMPDEST POP GAS CALL ISZERO DUP1 ISZERO PUSH2 0x575 JUMPI RETURNDATASIZE PUSH1 0x0 DUP1 RETURNDATACOPY RETURNDATASIZE PUSH1 0x0 REVERT JUMPDEST POP POP POP POP PUSH1 0x1 PUSH1 0x9 PUSH1 0x0 PUSH1 0xA PUSH1 0x0 SWAP1 SLOAD SWAP1 PUSH2 0x100 EXP SWAP1 DIV PUSH16 0xFFFFFFFFFFFFFFFFFFFFFFFFFFFFFFFF AND PUSH16 0xFFFFFFFFFFFFFFFFFFFFFFFFFFFFFFFF AND DUP2 MSTORE PUSH1 0x20 ADD SWAP1 DUP2 MSTORE PUSH1 0x20 ADD PUSH1 0x0 KECCAK256 PUSH1 0x4 ADD PUSH1 0x10 PUSH2 0x100 EXP DUP2 SLOAD DUP2 PUSH1 0xFF MUL NOT AND SWAP1 DUP4 ISZERO ISZERO MUL OR SWAP1 SSTORE POP PUSH1 0x0 ISZERO ISZERO PUSH1 0x9 PUSH1 0x0 PUSH1 0xA PUSH1 0x0 SWAP1 SLOAD SWAP1 PUSH2 0x100 EXP SWAP1 DIV PUSH16 0xFFFFFFFFFFFFFFFFFFFFFFFFFFFFFFFF AND PUSH16 0xFFFFFFFFFFFFFFFFFFFFFFFFFFFFFFFF AND DUP2 MSTORE PUSH1 0x20 ADD SWAP1 DUP2 MSTORE PUSH1 0x20 ADD PUSH1 0x0 KECCAK256 PUSH1 0x4 ADD PUSH1 0x10 SWAP1 SLOAD SWAP1 PUSH2 0x100 EXP SWAP1 DIV PUSH1 0xFF AND ISZERO ISZERO EQ ISZERO PUSH2 0x7B7 JUMPI PUSH1 0x5 PUSH1 0x0 SWAP1 SLOAD SWAP1 PUSH2 0x100 EXP SWAP1 DIV PUSH20 0xFFFFFFFFFFFFFFFFFFFFFFFFFFFFFFFFFFFFFFFF AND PUSH20 0xFFFFFFFFFFFFFFFFFFFFFFFFFFFFFFFFFFFFFFFF AND PUSH4 0xE35FAB7 PUSH1 0x9 PUSH1 0x0 PUSH1 0xA PUSH1 0x0 SWAP1 SLOAD SWAP1 PUSH2 0x100 EXP SWAP1 DIV PUSH16 0xFFFFFFFFFFFFFFFFFFFFFFFFFFFFFFFF AND PUSH16 0xFFFFFFFFFFFFFFFFFFFFFFFFFFFFFFFF AND DUP2 MSTORE PUSH1 0x20 ADD SWAP1 DUP2 MSTORE PUSH1 0x20 ADD PUSH1 0x0 KECCAK256 PUSH1 0x1 ADD SLOAD PUSH1 0x9 PUSH1 0x0 PUSH1 0xA PUSH1 0x0 SWAP1 SLOAD SWAP1 PUSH2 0x100 EXP SWAP1 DIV PUSH16 0xFFFFFFFFFFFFFFFFFFFFFFFFFFFFFFFF AND PUSH16 0xFFFFFFFFFFFFFFFFFFFFFFFFFFFFFFFF AND DUP2 MSTORE PUSH1 0x20 ADD SWAP1 DUP2 MSTORE PUSH1 0x20 ADD PUSH1 0x0 KECCAK256 PUSH1 0x3 ADD PUSH1 0x9 PUSH1 0x0 PUSH1 0xA PUSH1 0x0 SWAP1 SLOAD SWAP1 PUSH2 0x100 EXP SWAP1 DIV PUSH16 0xFFFFFFFFFFFFFFFFFFFFFFFFFFFFFFFF AND PUSH16 0xFFFFFFFFFFFFFFFFFFFFFFFFFFFFFFFF AND DUP2 MSTORE PUSH1 0x20 ADD SWAP1 DUP2 MSTORE PUSH1 0x20 ADD PUSH1 0x0 KECCAK256 PUSH1 0x4 ADD PUSH1 0x0 SWAP1 SLOAD SWAP1 PUSH2 0x100 EXP SWAP1 DIV PUSH16 0xFFFFFFFFFFFFFFFFFFFFFFFFFFFFFFFF AND PUSH1 0x40 MLOAD DUP5 PUSH4 0xFFFFFFFF AND PUSH1 0xE0 SHL DUP2 MSTORE PUSH1 0x4 ADD PUSH2 0x784 SWAP4 SWAP3 SWAP2 SWAP1 PUSH2 0x2022 JUMP JUMPDEST PUSH1 0x0 PUSH1 0x40 MLOAD DUP1 DUP4 SUB DUP2 PUSH1 0x0 DUP8 DUP1 EXTCODESIZE ISZERO DUP1 ISZERO PUSH2 0x79E JUMPI PUSH1 0x0 DUP1 REVERT JUMPDEST POP GAS CALL ISZERO DUP1 ISZERO PUSH2 0x7B2 JUMPI RETURNDATASIZE PUSH1 0x0 DUP1 RETURNDATACOPY RETURNDATASIZE PUSH1 0x0 REVERT JUMPDEST POP POP POP POP JUMPDEST PUSH1 0x2 PUSH1 0x0 DUP2 SLOAD PUSH2 0x7C6 SWAP1 PUSH2 0x257A JUMP JUMPDEST SWAP2 SWAP1 POP DUP2 SWAP1 SSTORE POP PUSH2 0x44B JUMP JUMPDEST JUMP JUMPDEST PUSH1 0x0 DUP1 JUMPDEST PUSH1 0x8 DUP1 SLOAD SWAP1 POP DUP2 PUSH1 0xFF AND LT ISZERO PUSH2 0x849 JUMPI PUSH1 0x8 DUP2 PUSH1 0xFF AND DUP2 SLOAD DUP2 LT PUSH2 0x7FF JUMPI PUSH2 0x7FE PUSH2 0x264B JUMP JUMPDEST JUMPDEST SWAP1 PUSH1 0x0 MSTORE PUSH1 0x20 PUSH1 0x0 KECCAK256 SWAP1 PUSH1 0x2 MUL ADD PUSH1 0x0 ADD PUSH1 0x40 MLOAD PUSH2 0x81D SWAP2 SWAP1 PUSH2 0x1E5C JUMP JUMPDEST PUSH1 0x40 MLOAD DUP1 SWAP2 SUB SWAP1 KECCAK256 DUP5 DUP1 MLOAD SWAP1 PUSH1 0x20 ADD KECCAK256 EQ ISZERO PUSH2 0x838 JUMPI PUSH1 0x1 SWAP2 POP JUMPDEST DUP1 PUSH2 0x842 SWAP1 PUSH2 0x25C3 JUMP JUMPDEST SWAP1 POP PUSH2 0x7D8 JUMP JUMPDEST POP PUSH1 0x1 ISZERO ISZERO DUP2 ISZERO ISZERO EQ PUSH2 0x85B JUMPI PUSH1 0x0 DUP1 REVERT JUMPDEST PUSH1 0x0 PUSH1 0x40 MLOAD DUP1 PUSH1 0xE0 ADD PUSH1 0x40 MSTORE DUP1 PUSH1 0xB SLOAD DUP2 MSTORE PUSH1 0x20 ADD DUP7 DUP2 MSTORE PUSH1 0x20 ADD DUP8 PUSH20 0xFFFFFFFFFFFFFFFFFFFFFFFFFFFFFFFFFFFFFFFF AND DUP2 MSTORE PUSH1 0x20 ADD DUP6 DUP2 MSTORE PUSH1 0x20 ADD DUP5 PUSH16 0xFFFFFFFFFFFFFFFFFFFFFFFFFFFFFFFF AND DUP2 MSTORE PUSH1 0x20 ADD PUSH1 0x0 ISZERO ISZERO DUP2 MSTORE PUSH1 0x20 ADD PUSH1 0x1 ISZERO ISZERO DUP2 MSTORE POP SWAP1 POP PUSH1 0x0 ISZERO ISZERO PUSH1 0x9 PUSH1 0x0 PUSH1 0xA PUSH1 0x0 SWAP1 SLOAD SWAP1 PUSH2 0x100 EXP SWAP1 DIV PUSH16 0xFFFFFFFFFFFFFFFFFFFFFFFFFFFFFFFF AND PUSH16 0xFFFFFFFFFFFFFFFFFFFFFFFFFFFFFFFF AND DUP2 MSTORE PUSH1 0x20 ADD SWAP1 DUP2 MSTORE PUSH1 0x20 ADD PUSH1 0x0 KECCAK256 PUSH1 0x4 ADD PUSH1 0x11 SWAP1 SLOAD SWAP1 PUSH2 0x100 EXP SWAP1 DIV PUSH1 0xFF AND ISZERO ISZERO EQ ISZERO PUSH2 0xAC5 JUMPI DUP1 PUSH1 0x9 PUSH1 0x0 PUSH1 0xA PUSH1 0x0 SWAP1 SLOAD SWAP1 PUSH2 0x100 EXP SWAP1 DIV PUSH16 0xFFFFFFFFFFFFFFFFFFFFFFFFFFFFFFFF AND PUSH16 0xFFFFFFFFFFFFFFFFFFFFFFFFFFFFFFFF AND DUP2 MSTORE PUSH1 0x20 ADD SWAP1 DUP2 MSTORE PUSH1 0x20 ADD PUSH1 0x0 KECCAK256 PUSH1 0x0 DUP3 ADD MLOAD DUP2 PUSH1 0x0 ADD SSTORE PUSH1 0x20 DUP3 ADD MLOAD DUP2 PUSH1 0x1 ADD SSTORE PUSH1 0x40 DUP3 ADD MLOAD DUP2 PUSH1 0x2 ADD PUSH1 0x0 PUSH2 0x100 EXP DUP2 SLOAD DUP2 PUSH20 0xFFFFFFFFFFFFFFFFFFFFFFFFFFFFFFFFFFFFFFFF MUL NOT AND SWAP1 DUP4 PUSH20 0xFFFFFFFFFFFFFFFFFFFFFFFFFFFFFFFFFFFFFFFF AND MUL OR SWAP1 SSTORE POP PUSH1 0x60 DUP3 ADD MLOAD DUP2 PUSH1 0x3 ADD SWAP1 DUP1 MLOAD SWAP1 PUSH1 0x20 ADD SWAP1 PUSH2 0x9DD SWAP3 SWAP2 SWAP1 PUSH2 0x177B JUMP JUMPDEST POP PUSH1 0x80 DUP3 ADD MLOAD DUP2 PUSH1 0x4 ADD PUSH1 0x0 PUSH2 0x100 EXP DUP2 SLOAD DUP2 PUSH16 0xFFFFFFFFFFFFFFFFFFFFFFFFFFFFFFFF MUL NOT AND SWAP1 DUP4 PUSH16 0xFFFFFFFFFFFFFFFFFFFFFFFFFFFFFFFF AND MUL OR SWAP1 SSTORE POP PUSH1 0xA0 DUP3 ADD MLOAD DUP2 PUSH1 0x4 ADD PUSH1 0x10 PUSH2 0x100 EXP DUP2 SLOAD DUP2 PUSH1 0xFF MUL NOT AND SWAP1 DUP4 ISZERO ISZERO MUL OR SWAP1 SSTORE POP PUSH1 0xC0 DUP3 ADD MLOAD DUP2 PUSH1 0x4 ADD PUSH1 0x11 PUSH2 0x100 EXP DUP2 SLOAD DUP2 PUSH1 0xFF MUL NOT AND SWAP1 DUP4 ISZERO ISZERO MUL OR SWAP1 SSTORE POP SWAP1 POP POP PUSH1 0x1 PUSH1 0xA PUSH1 0x0 DUP3 DUP3 DUP3 SWAP1 SLOAD SWAP1 PUSH2 0x100 EXP SWAP1 DIV PUSH16 0xFFFFFFFFFFFFFFFFFFFFFFFFFFFFFFFF AND PUSH2 0xA8E SWAP2 SWAP1 PUSH2 0x21F6 JUMP JUMPDEST SWAP3 POP PUSH2 0x100 EXP DUP2 SLOAD DUP2 PUSH16 0xFFFFFFFFFFFFFFFFFFFFFFFFFFFFFFFF MUL NOT AND SWAP1 DUP4 PUSH16 0xFFFFFFFFFFFFFFFFFFFFFFFFFFFFFFFF AND MUL OR SWAP1 SSTORE POP JUMPDEST PUSH1 0x1 PUSH1 0xB PUSH1 0x0 DUP3 DUP3 SLOAD PUSH2 0xAD8 SWAP2 SWAP1 PUSH2 0x223C JUMP JUMPDEST SWAP3 POP POP DUP2 SWAP1 SSTORE POP PUSH32 0x9DEC36AFB84850552E7F660FB12EC179BA60D844B56E6BB36A97AA6C71111441 PUSH1 0xB SLOAD DUP7 DUP9 DUP8 DUP8 DUP9 PUSH1 0x19 PUSH2 0xB14 SWAP2 SWAP1 PUSH2 0x2292 JUMP JUMPDEST PUSH1 0x40 MLOAD PUSH2 0xB26 SWAP7 SWAP6 SWAP5 SWAP4 SWAP3 SWAP2 SWAP1 PUSH2 0x20D6 JUMP JUMPDEST PUSH1 0x40 MLOAD DUP1 SWAP2 SUB SWAP1 LOG1 POP POP POP POP POP POP JUMP JUMPDEST PUSH1 0x4 DUP1 SLOAD PUSH2 0xB43 SWAP1 PUSH2 0x245C JUMP JUMPDEST DUP1 PUSH1 0x1F ADD PUSH1 0x20 DUP1 SWAP2 DIV MUL PUSH1 0x20 ADD PUSH1 0x40 MLOAD SWAP1 DUP2 ADD PUSH1 0x40 MSTORE DUP1 SWAP3 SWAP2 SWAP1 DUP2 DUP2 MSTORE PUSH1 0x20 ADD DUP3 DUP1 SLOAD PUSH2 0xB6F SWAP1 PUSH2 0x245C JUMP JUMPDEST DUP1 ISZERO PUSH2 0xBBC JUMPI DUP1 PUSH1 0x1F LT PUSH2 0xB91 JUMPI PUSH2 0x100 DUP1 DUP4 SLOAD DIV MUL DUP4 MSTORE SWAP2 PUSH1 0x20 ADD SWAP2 PUSH2 0xBBC JUMP JUMPDEST DUP3 ADD SWAP2 SWAP1 PUSH1 0x0 MSTORE PUSH1 0x20 PUSH1 0x0 KECCAK256 SWAP1 JUMPDEST DUP2 SLOAD DUP2 MSTORE SWAP1 PUSH1 0x1 ADD SWAP1 PUSH1 0x20 ADD DUP1 DUP4 GT PUSH2 0xB9F JUMPI DUP3 SWAP1 SUB PUSH1 0x1F AND DUP3 ADD SWAP2 JUMPDEST POP POP POP POP POP DUP2 JUMP JUMPDEST PUSH1 0x3 DUP1 SLOAD PUSH2 0xBD1 SWAP1 PUSH2 0x245C JUMP JUMPDEST DUP1 PUSH1 0x1F ADD PUSH1 0x20 DUP1 SWAP2 DIV MUL PUSH1 0x20 ADD PUSH1 0x40 MLOAD SWAP1 DUP2 ADD PUSH1 0x40 MSTORE DUP1 SWAP3 SWAP2 SWAP1 DUP2 DUP2 MSTORE PUSH1 0x20 ADD DUP3 DUP1 SLOAD PUSH2 0xBFD SWAP1 PUSH2 0x245C JUMP JUMPDEST DUP1 ISZERO PUSH2 0xC4A JUMPI DUP1 PUSH1 0x1F LT PUSH2 0xC1F JUMPI PUSH2 0x100 DUP1 DUP4 SLOAD DIV MUL DUP4 MSTORE SWAP2 PUSH1 0x20 ADD SWAP2 PUSH2 0xC4A JUMP JUMPDEST DUP3 ADD SWAP2 SWAP1 PUSH1 0x0 MSTORE PUSH1 0x20 PUSH1 0x0 KECCAK256 SWAP1 JUMPDEST DUP2 SLOAD DUP2 MSTORE SWAP1 PUSH1 0x1 ADD SWAP1 PUSH1 0x20 ADD DUP1 DUP4 GT PUSH2 0xC2D JUMPI DUP3 SWAP1 SUB PUSH1 0x1F AND DUP3 ADD SWAP2 JUMPDEST POP POP POP POP POP DUP2 JUMP JUMPDEST PUSH1 0xA PUSH1 0x0 SWAP1 SLOAD SWAP1 PUSH2 0x100 EXP SWAP1 DIV PUSH16 0xFFFFFFFFFFFFFFFFFFFFFFFFFFFFFFFF AND DUP2 JUMP JUMPDEST PUSH1 0x0 DUP1 SLOAD SWAP1 PUSH2 0x100 EXP SWAP1 DIV PUSH20 0xFFFFFFFFFFFFFFFFFFFFFFFFFFFFFFFFFFFFFFFF AND PUSH20 0xFFFFFFFFFFFFFFFFFFFFFFFFFFFFFFFFFFFFFFFF AND CALLER PUSH20 0xFFFFFFFFFFFFFFFFFFFFFFFFFFFFFFFFFFFFFFFF AND EQ PUSH2 0xD02 JUMPI PUSH1 0x40 MLOAD PUSH32 0x8C379A000000000000000000000000000000000000000000000000000000000 DUP2 MSTORE PUSH1 0x4 ADD PUSH2 0xCF9 SWAP1 PUSH2 0x1FAA JUMP JUMPDEST PUSH1 0x40 MLOAD DUP1 SWAP2 SUB SWAP1 REVERT JUMPDEST DUP2 PUSH1 0x3 SWAP1 DUP1 MLOAD SWAP1 PUSH1 0x20 ADD SWAP1 PUSH2 0xD18 SWAP3 SWAP2 SWAP1 PUSH2 0x177B JUMP JUMPDEST POP DUP1 PUSH1 0x4 SWAP1 DUP1 MLOAD SWAP1 PUSH1 0x20 ADD SWAP1 PUSH2 0xD2F SWAP3 SWAP2 SWAP1 PUSH2 0x177B JUMP JUMPDEST POP POP POP JUMP JUMPDEST PUSH1 0xB SLOAD DUP2 JUMP JUMPDEST PUSH1 0x0 DUP1 SLOAD SWAP1 PUSH2 0x100 EXP SWAP1 DIV PUSH20 0xFFFFFFFFFFFFFFFFFFFFFFFFFFFFFFFFFFFFFFFF AND PUSH20 0xFFFFFFFFFFFFFFFFFFFFFFFFFFFFFFFFFFFFFFFF AND CALLER PUSH20 0xFFFFFFFFFFFFFFFFFFFFFFFFFFFFFFFFFFFFFFFF AND EQ PUSH2 0xDC8 JUMPI PUSH1 0x40 MLOAD PUSH32 0x8C379A000000000000000000000000000000000000000000000000000000000 DUP2 MSTORE PUSH1 0x4 ADD PUSH2 0xDBF SWAP1 PUSH2 0x1FAA JUMP JUMPDEST PUSH1 0x40 MLOAD DUP1 SWAP2 SUB SWAP1 REVERT JUMPDEST DUP1 PUSH1 0x7 PUSH1 0x0 PUSH2 0x100 EXP DUP2 SLOAD DUP2 PUSH20 0xFFFFFFFFFFFFFFFFFFFFFFFFFFFFFFFFFFFFFFFF MUL NOT AND SWAP1 DUP4 PUSH20 0xFFFFFFFFFFFFFFFFFFFFFFFFFFFFFFFFFFFFFFFF AND MUL OR SWAP1 SSTORE POP POP JUMP JUMPDEST PUSH1 0x6 PUSH1 0x0 SWAP1 SLOAD SWAP1 PUSH2 0x100 EXP SWAP1 DIV PUSH20 0xFFFFFFFFFFFFFFFFFFFFFFFFFFFFFFFFFFFFFFFF AND DUP2 JUMP JUMPDEST PUSH1 0x0 DUP1 SLOAD SWAP1 PUSH2 0x100 EXP SWAP1 DIV PUSH20 0xFFFFFFFFFFFFFFFFFFFFFFFFFFFFFFFFFFFFFFFF AND PUSH20 0xFFFFFFFFFFFFFFFFFFFFFFFFFFFFFFFFFFFFFFFF AND CALLER PUSH20 0xFFFFFFFFFFFFFFFFFFFFFFFFFFFFFFFFFFFFFFFF AND EQ PUSH2 0xEC0 JUMPI PUSH1 0x40 MLOAD PUSH32 0x8C379A000000000000000000000000000000000000000000000000000000000 DUP2 MSTORE PUSH1 0x4 ADD PUSH2 0xEB7 SWAP1 PUSH2 0x1FAA JUMP JUMPDEST PUSH1 0x40 MLOAD DUP1 SWAP2 SUB SWAP1 REVERT JUMPDEST DUP1 PUSH1 0x6 PUSH1 0x0 PUSH2 0x100 EXP DUP2 SLOAD DUP2 PUSH20 0xFFFFFFFFFFFFFFFFFFFFFFFFFFFFFFFFFFFFFFFF MUL NOT AND SWAP1 DUP4 PUSH20 0xFFFFFFFFFFFFFFFFFFFFFFFFFFFFFFFFFFFFFFFF AND MUL OR SWAP1 SSTORE POP POP JUMP JUMPDEST PUSH1 0x1 SLOAD DUP2 JUMP JUMPDEST PUSH1 0x9 PUSH1 0x20 MSTORE DUP1 PUSH1 0x0 MSTORE PUSH1 0x40 PUSH1 0x0 KECCAK256 PUSH1 0x0 SWAP2 POP SWAP1 POP DUP1 PUSH1 0x0 ADD SLOAD SWAP1 DUP1 PUSH1 0x1 ADD SLOAD SWAP1 DUP1 PUSH1 0x2 ADD PUSH1 0x0 SWAP1 SLOAD SWAP1 PUSH2 0x100 EXP SWAP1 DIV PUSH20 0xFFFFFFFFFFFFFFFFFFFFFFFFFFFFFFFFFFFFFFFF AND SWAP1 DUP1 PUSH1 0x3 ADD DUP1 SLOAD PUSH2 0xF5F SWAP1 PUSH2 0x245C JUMP JUMPDEST DUP1 PUSH1 0x1F ADD PUSH1 0x20 DUP1 SWAP2 DIV MUL PUSH1 0x20 ADD PUSH1 0x40 MLOAD SWAP1 DUP2 ADD PUSH1 0x40 MSTORE DUP1 SWAP3 SWAP2 SWAP1 DUP2 DUP2 MSTORE PUSH1 0x20 ADD DUP3 DUP1 SLOAD PUSH2 0xF8B SWAP1 PUSH2 0x245C JUMP JUMPDEST DUP1 ISZERO PUSH2 0xFD8 JUMPI DUP1 PUSH1 0x1F LT PUSH2 0xFAD JUMPI PUSH2 0x100 DUP1 DUP4 SLOAD DIV MUL DUP4 MSTORE SWAP2 PUSH1 0x20 ADD SWAP2 PUSH2 0xFD8 JUMP JUMPDEST DUP3 ADD SWAP2 SWAP1 PUSH1 0x0 MSTORE PUSH1 0x20 PUSH1 0x0 KECCAK256 SWAP1 JUMPDEST DUP2 SLOAD DUP2 MSTORE SWAP1 PUSH1 0x1 ADD SWAP1 PUSH1 0x20 ADD DUP1 DUP4 GT PUSH2 0xFBB JUMPI DUP3 SWAP1 SUB PUSH1 0x1F AND DUP3 ADD SWAP2 JUMPDEST POP POP POP POP POP SWAP1 DUP1 PUSH1 0x4 ADD PUSH1 0x0 SWAP1 SLOAD SWAP1 PUSH2 0x100 EXP SWAP1 DIV PUSH16 0xFFFFFFFFFFFFFFFFFFFFFFFFFFFFFFFF AND SWAP1 DUP1 PUSH1 0x4 ADD PUSH1 0x10 SWAP1 SLOAD SWAP1 PUSH2 0x100 EXP SWAP1 DIV PUSH1 0xFF AND SWAP1 DUP1 PUSH1 0x4 ADD PUSH1 0x11 SWAP1 SLOAD SWAP1 PUSH2 0x100 EXP SWAP1 DIV PUSH1 0xFF AND SWAP1 POP DUP8 JUMP JUMPDEST PUSH1 0x0 DUP1 SLOAD SWAP1 PUSH2 0x100 EXP SWAP1 DIV PUSH20 0xFFFFFFFFFFFFFFFFFFFFFFFFFFFFFFFFFFFFFFFF AND DUP2 JUMP JUMPDEST PUSH1 0x0 DUP1 SLOAD SWAP1 PUSH2 0x100 EXP SWAP1 DIV PUSH20 0xFFFFFFFFFFFFFFFFFFFFFFFFFFFFFFFFFFFFFFFF AND PUSH20 0xFFFFFFFFFFFFFFFFFFFFFFFFFFFFFFFFFFFFFFFF AND CALLER PUSH20 0xFFFFFFFFFFFFFFFFFFFFFFFFFFFFFFFFFFFFFFFF AND EQ PUSH2 0x10DC JUMPI PUSH1 0x40 MLOAD PUSH32 0x8C379A000000000000000000000000000000000000000000000000000000000 DUP2 MSTORE PUSH1 0x4 ADD PUSH2 0x10D3 SWAP1 PUSH2 0x1FAA JUMP JUMPDEST PUSH1 0x40 MLOAD DUP1 SWAP2 SUB SWAP1 REVERT JUMPDEST PUSH1 0x0 JUMPDEST PUSH1 0xA PUSH1 0x0 SWAP1 SLOAD SWAP1 PUSH2 0x100 EXP SWAP1 DIV PUSH16 0xFFFFFFFFFFFFFFFFFFFFFFFFFFFFFFFF AND PUSH16 0xFFFFFFFFFFFFFFFFFFFFFFFFFFFFFFFF AND DUP2 PUSH16 0xFFFFFFFFFFFFFFFFFFFFFFFFFFFFFFFF AND LT ISZERO PUSH2 0x12B9 JUMPI PUSH1 0x7 PUSH1 0x0 SWAP1 SLOAD SWAP1 PUSH2 0x100 EXP SWAP1 DIV PUSH20 0xFFFFFFFFFFFFFFFFFFFFFFFFFFFFFFFFFFFFFFFF AND PUSH20 0xFFFFFFFFFFFFFFFFFFFFFFFFFFFFFFFFFFFFFFFF AND PUSH4 0xB73A3A7F PUSH1 0x9 PUSH1 0x0 DUP5 PUSH16 0xFFFFFFFFFFFFFFFFFFFFFFFFFFFFFFFF AND DUP2 MSTORE PUSH1 0x20 ADD SWAP1 DUP2 MSTORE PUSH1 0x20 ADD PUSH1 0x0 KECCAK256 PUSH1 0x0 ADD SLOAD PUSH1 0x9 PUSH1 0x0 DUP6 PUSH16 0xFFFFFFFFFFFFFFFFFFFFFFFFFFFFFFFF AND DUP2 MSTORE PUSH1 0x20 ADD SWAP1 DUP2 MSTORE PUSH1 0x20 ADD PUSH1 0x0 KECCAK256 PUSH1 0x3 ADD PUSH1 0x9 PUSH1 0x0 DUP7 PUSH16 0xFFFFFFFFFFFFFFFFFFFFFFFFFFFFFFFF AND DUP2 MSTORE PUSH1 0x20 ADD SWAP1 DUP2 MSTORE PUSH1 0x20 ADD PUSH1 0x0 KECCAK256 PUSH1 0x4 ADD PUSH1 0x0 SWAP1 SLOAD SWAP1 PUSH2 0x100 EXP SWAP1 DIV PUSH16 0xFFFFFFFFFFFFFFFFFFFFFFFFFFFFFFFF AND PUSH1 0x40 MLOAD DUP5 PUSH4 0xFFFFFFFF AND PUSH1 0xE0 SHL DUP2 MSTORE PUSH1 0x4 ADD PUSH2 0x121B SWAP4 SWAP3 SWAP2 SWAP1 PUSH2 0x2022 JUMP JUMPDEST PUSH1 0x0 PUSH1 0x40 MLOAD DUP1 DUP4 SUB DUP2 PUSH1 0x0 DUP8 DUP1 EXTCODESIZE ISZERO DUP1 ISZERO PUSH2 0x1235 JUMPI PUSH1 0x0 DUP1 REVERT JUMPDEST POP GAS CALL ISZERO DUP1 ISZERO PUSH2 0x1249 JUMPI RETURNDATASIZE PUSH1 0x0 DUP1 RETURNDATACOPY RETURNDATASIZE PUSH1 0x0 REVERT JUMPDEST POP POP POP POP PUSH32 0xFD1BCD59B0263AC9966833C5210E1CF2992499BC85D4783E8C4AA79169C14895 PUSH1 0x9 PUSH1 0x0 DUP4 PUSH16 0xFFFFFFFFFFFFFFFFFFFFFFFFFFFFFFFF AND DUP2 MSTORE PUSH1 0x20 ADD SWAP1 DUP2 MSTORE PUSH1 0x20 ADD PUSH1 0x0 KECCAK256 PUSH1 0x40 MLOAD PUSH2 0x12A0 SWAP2 SWAP1 PUSH2 0x1FCA JUMP JUMPDEST PUSH1 0x40 MLOAD DUP1 SWAP2 SUB SWAP1 LOG1 DUP1 PUSH2 0x12B2 SWAP1 PUSH2 0x2541 JUMP JUMPDEST SWAP1 POP PUSH2 0x10DF JUMP JUMPDEST POP JUMP JUMPDEST PUSH1 0x0 DUP1 SLOAD SWAP1 PUSH2 0x100 EXP SWAP1 DIV PUSH20 0xFFFFFFFFFFFFFFFFFFFFFFFFFFFFFFFFFFFFFFFF AND PUSH20 0xFFFFFFFFFFFFFFFFFFFFFFFFFFFFFFFFFFFFFFFF AND CALLER PUSH20 0xFFFFFFFFFFFFFFFFFFFFFFFFFFFFFFFFFFFFFFFF AND EQ PUSH2 0x134A JUMPI PUSH1 0x40 MLOAD PUSH32 0x8C379A000000000000000000000000000000000000000000000000000000000 DUP2 MSTORE PUSH1 0x4 ADD PUSH2 0x1341 SWAP1 PUSH2 0x1FAA JUMP JUMPDEST PUSH1 0x40 MLOAD DUP1 SWAP2 SUB SWAP1 REVERT JUMPDEST DUP1 PUSH1 0x5 PUSH1 0x0 PUSH2 0x100 EXP DUP2 SLOAD DUP2 PUSH20 0xFFFFFFFFFFFFFFFFFFFFFFFFFFFFFFFFFFFFFFFF MUL NOT AND SWAP1 DUP4 PUSH20 0xFFFFFFFFFFFFFFFFFFFFFFFFFFFFFFFFFFFFFFFF AND MUL OR SWAP1 SSTORE POP POP JUMP JUMPDEST PUSH1 0x0 DUP1 SLOAD SWAP1 PUSH2 0x100 EXP SWAP1 DIV PUSH20 0xFFFFFFFFFFFFFFFFFFFFFFFFFFFFFFFFFFFFFFFF AND PUSH20 0xFFFFFFFFFFFFFFFFFFFFFFFFFFFFFFFFFFFFFFFF AND CALLER PUSH20 0xFFFFFFFFFFFFFFFFFFFFFFFFFFFFFFFFFFFFFFFF AND EQ PUSH2 0x141C JUMPI PUSH1 0x40 MLOAD PUSH32 0x8C379A000000000000000000000000000000000000000000000000000000000 DUP2 MSTORE PUSH1 0x4 ADD PUSH2 0x1413 SWAP1 PUSH2 0x1FAA JUMP JUMPDEST PUSH1 0x40 MLOAD DUP1 SWAP2 SUB SWAP1 REVERT JUMPDEST PUSH1 0x0 PUSH2 0x1426 PUSH2 0x1801 JUMP JUMPDEST PUSH1 0x0 JUMPDEST PUSH1 0x8 DUP1 SLOAD SWAP1 POP DUP2 PUSH1 0xFF AND LT ISZERO PUSH2 0x149A JUMPI PUSH1 0x8 DUP2 PUSH1 0xFF AND DUP2 SLOAD DUP2 LT PUSH2 0x1450 JUMPI PUSH2 0x144F PUSH2 0x264B JUMP JUMPDEST JUMPDEST SWAP1 PUSH1 0x0 MSTORE PUSH1 0x20 PUSH1 0x0 KECCAK256 SWAP1 PUSH1 0x2 MUL ADD PUSH1 0x0 ADD PUSH1 0x40 MLOAD PUSH2 0x146E SWAP2 SWAP1 PUSH2 0x1E5C JUMP JUMPDEST PUSH1 0x40 MLOAD DUP1 SWAP2 SUB SWAP1 KECCAK256 DUP6 DUP1 MLOAD SWAP1 PUSH1 0x20 ADD KECCAK256 EQ ISZERO PUSH2 0x1489 JUMPI PUSH1 0x1 SWAP3 POP JUMPDEST DUP1 PUSH2 0x1493 SWAP1 PUSH2 0x25C3 JUMP JUMPDEST SWAP1 POP PUSH2 0x1429 JUMP JUMPDEST POP DUP2 PUSH2 0x1560 JUMPI DUP4 DUP2 PUSH1 0x0 ADD DUP2 SWAP1 MSTORE POP DUP3 DUP2 PUSH1 0x20 ADD SWAP1 PUSH1 0xFF AND SWAP1 DUP2 PUSH1 0xFF AND DUP2 MSTORE POP POP PUSH1 0x0 DUP2 PUSH1 0x40 ADD SWAP1 PUSH2 0xFFFF AND SWAP1 DUP2 PUSH2 0xFFFF AND DUP2 MSTORE POP POP PUSH1 0x8 DUP2 SWAP1 DUP1 PUSH1 0x1 DUP2 SLOAD ADD DUP1 DUP3 SSTORE DUP1 SWAP2 POP POP PUSH1 0x1 SWAP1 SUB SWAP1 PUSH1 0x0 MSTORE PUSH1 0x20 PUSH1 0x0 KECCAK256 SWAP1 PUSH1 0x2 MUL ADD PUSH1 0x0 SWAP1 SWAP2 SWAP1 SWAP2 SWAP1 SWAP2 POP PUSH1 0x0 DUP3 ADD MLOAD DUP2 PUSH1 0x0 ADD SWAP1 DUP1 MLOAD SWAP1 PUSH1 0x20 ADD SWAP1 PUSH2 0x1518 SWAP3 SWAP2 SWAP1 PUSH2 0x177B JUMP JUMPDEST POP PUSH1 0x20 DUP3 ADD MLOAD DUP2 PUSH1 0x1 ADD PUSH1 0x0 PUSH2 0x100 EXP DUP2 SLOAD DUP2 PUSH1 0xFF MUL NOT AND SWAP1 DUP4 PUSH1 0xFF AND MUL OR SWAP1 SSTORE POP PUSH1 0x40 DUP3 ADD MLOAD DUP2 PUSH1 0x1 ADD PUSH1 0x1 PUSH2 0x100 EXP DUP2 SLOAD DUP2 PUSH2 0xFFFF MUL NOT AND SWAP1 DUP4 PUSH2 0xFFFF AND MUL OR SWAP1 SSTORE POP POP POP JUMPDEST POP POP POP POP JUMP JUMPDEST PUSH1 0x1 SLOAD DUP1 TIMESTAMP LT ISZERO PUSH2 0x15AC JUMPI PUSH1 0x40 MLOAD PUSH32 0x8C379A000000000000000000000000000000000000000000000000000000000 DUP2 MSTORE PUSH1 0x4 ADD PUSH2 0x15A3 SWAP1 PUSH2 0x1F8A JUMP JUMPDEST PUSH1 0x40 MLOAD DUP1 SWAP2 SUB SWAP1 REVERT JUMPDEST PUSH1 0x0 JUMPDEST PUSH1 0xA PUSH1 0x0 SWAP1 SLOAD SWAP1 PUSH2 0x100 EXP SWAP1 DIV PUSH16 0xFFFFFFFFFFFFFFFFFFFFFFFFFFFFFFFF AND PUSH16 0xFFFFFFFFFFFFFFFFFFFFFFFFFFFFFFFF AND DUP2 LT ISZERO PUSH2 0x1627 JUMPI PUSH1 0x1 PUSH1 0x9 PUSH1 0x0 DUP4 DUP2 MSTORE PUSH1 0x20 ADD SWAP1 DUP2 MSTORE PUSH1 0x20 ADD PUSH1 0x0 KECCAK256 PUSH1 0x4 ADD PUSH1 0x11 PUSH2 0x100 EXP DUP2 SLOAD DUP2 PUSH1 0xFF MUL NOT AND SWAP1 DUP4 ISZERO ISZERO MUL OR SWAP1 SSTORE POP DUP1 PUSH2 0x1620 SWAP1 PUSH2 0x257A JUMP JUMPDEST SWAP1 POP PUSH2 0x15AF JUMP JUMPDEST POP PUSH1 0x0 PUSH1 0xA PUSH1 0x0 PUSH2 0x100 EXP DUP2 SLOAD DUP2 PUSH16 0xFFFFFFFFFFFFFFFFFFFFFFFFFFFFFFFF MUL NOT AND SWAP1 DUP4 PUSH16 0xFFFFFFFFFFFFFFFFFFFFFFFFFFFFFFFF AND MUL OR SWAP1 SSTORE POP POP JUMP JUMPDEST PUSH1 0x7 PUSH1 0x0 SWAP1 SLOAD SWAP1 PUSH2 0x100 EXP SWAP1 DIV PUSH20 0xFFFFFFFFFFFFFFFFFFFFFFFFFFFFFFFFFFFFFFFF AND DUP2 JUMP JUMPDEST PUSH1 0x8 DUP2 DUP2 SLOAD DUP2 LT PUSH2 0x169B JUMPI PUSH1 0x0 DUP1 REVERT JUMPDEST SWAP1 PUSH1 0x0 MSTORE PUSH1 0x20 PUSH1 0x0 KECCAK256 SWAP1 PUSH1 0x2 MUL ADD PUSH1 0x0 SWAP2 POP SWAP1 POP DUP1 PUSH1 0x0 ADD DUP1 SLOAD PUSH2 0x16BE SWAP1 PUSH2 0x245C JUMP JUMPDEST DUP1 PUSH1 0x1F ADD PUSH1 0x20 DUP1 SWAP2 DIV MUL PUSH1 0x20 ADD PUSH1 0x40 MLOAD SWAP1 DUP2 ADD PUSH1 0x40 MSTORE DUP1 SWAP3 SWAP2 SWAP1 DUP2 DUP2 MSTORE PUSH1 0x20 ADD DUP3 DUP1 SLOAD PUSH2 0x16EA SWAP1 PUSH2 0x245C JUMP JUMPDEST DUP1 ISZERO PUSH2 0x1737 JUMPI DUP1 PUSH1 0x1F LT PUSH2 0x170C JUMPI PUSH2 0x100 DUP1 DUP4 SLOAD DIV MUL DUP4 MSTORE SWAP2 PUSH1 0x20 ADD SWAP2 PUSH2 0x1737 JUMP JUMPDEST DUP3 ADD SWAP2 SWAP1 PUSH1 0x0 MSTORE PUSH1 0x20 PUSH1 0x0 KECCAK256 SWAP1 JUMPDEST DUP2 SLOAD DUP2 MSTORE SWAP1 PUSH1 0x1 ADD SWAP1 PUSH1 0x20 ADD DUP1 DUP4 GT PUSH2 0x171A JUMPI DUP3 SWAP1 SUB PUSH1 0x1F AND DUP3 ADD SWAP2 JUMPDEST POP POP POP POP POP SWAP1 DUP1 PUSH1 0x1 ADD PUSH1 0x0 SWAP1 SLOAD SWAP1 PUSH2 0x100 EXP SWAP1 DIV PUSH1 0xFF AND SWAP1 DUP1 PUSH1 0x1 ADD PUSH1 0x1 SWAP1 SLOAD SWAP1 PUSH2 0x100 EXP SWAP1 DIV PUSH2 0xFFFF AND SWAP1 POP DUP4 JUMP JUMPDEST PUSH1 0xC PUSH1 0x0 SWAP1 SLOAD SWAP1 PUSH2 0x100 EXP SWAP1 DIV PUSH1 0xFF AND DUP2 JUMP JUMPDEST DUP3 DUP1 SLOAD PUSH2 0x1787 SWAP1 PUSH2 0x245C JUMP JUMPDEST SWAP1 PUSH1 0x0 MSTORE PUSH1 0x20 PUSH1 0x0 KECCAK256 SWAP1 PUSH1 0x1F ADD PUSH1 0x20 SWAP1 DIV DUP2 ADD SWAP3 DUP3 PUSH2 0x17A9 JUMPI PUSH1 0x0 DUP6 SSTORE PUSH2 0x17F0 JUMP JUMPDEST DUP3 PUSH1 0x1F LT PUSH2 0x17C2 JUMPI DUP1 MLOAD PUSH1 0xFF NOT AND DUP4 DUP1 ADD OR DUP6 SSTORE PUSH2 0x17F0 JUMP JUMPDEST DUP3 DUP1 ADD PUSH1 0x1 ADD DUP6 SSTORE DUP3 ISZERO PUSH2 0x17F0 JUMPI SWAP2 DUP3 ADD JUMPDEST DUP3 DUP2 GT ISZERO PUSH2 0x17EF JUMPI DUP3 MLOAD DUP3 SSTORE SWAP2 PUSH1 0x20 ADD SWAP2 SWAP1 PUSH1 0x1 ADD SWAP1 PUSH2 0x17D4 JUMP JUMPDEST JUMPDEST POP SWAP1 POP PUSH2 0x17FD SWAP2 SWAP1 PUSH2 0x1829 JUMP JUMPDEST POP SWAP1 JUMP JUMPDEST PUSH1 0x40 MLOAD DUP1 PUSH1 0x60 ADD PUSH1 0x40 MSTORE DUP1 PUSH1 0x60 DUP2 MSTORE PUSH1 0x20 ADD PUSH1 0x0 PUSH1 0xFF AND DUP2 MSTORE PUSH1 0x20 ADD PUSH1 0x0 PUSH2 0xFFFF AND DUP2 MSTORE POP SWAP1 JUMP JUMPDEST JUMPDEST DUP1 DUP3 GT ISZERO PUSH2 0x1842 JUMPI PUSH1 0x0 DUP2 PUSH1 0x0 SWAP1 SSTORE POP PUSH1 0x1 ADD PUSH2 0x182A JUMP JUMPDEST POP SWAP1 JUMP JUMPDEST PUSH1 0x0 PUSH2 0x1859 PUSH2 0x1854 DUP5 PUSH2 0x2163 JUMP JUMPDEST PUSH2 0x213E JUMP JUMPDEST SWAP1 POP DUP3 DUP2 MSTORE PUSH1 0x20 DUP2 ADD DUP5 DUP5 DUP5 ADD GT ISZERO PUSH2 0x1875 JUMPI PUSH2 0x1874 PUSH2 0x26AE JUMP JUMPDEST JUMPDEST PUSH2 0x1880 DUP5 DUP3 DUP6 PUSH2 0x241A JUMP JUMPDEST POP SWAP4 SWAP3 POP POP POP JUMP JUMPDEST PUSH1 0x0 DUP2 CALLDATALOAD SWAP1 POP PUSH2 0x1897 DUP2 PUSH2 0x276D JUMP JUMPDEST SWAP3 SWAP2 POP POP JUMP JUMPDEST PUSH1 0x0 DUP3 PUSH1 0x1F DUP4 ADD SLT PUSH2 0x18B2 JUMPI PUSH2 0x18B1 PUSH2 0x26A9 JUMP JUMPDEST JUMPDEST DUP2 CALLDATALOAD PUSH2 0x18C2 DUP5 DUP3 PUSH1 0x20 DUP7 ADD PUSH2 0x1846 JUMP JUMPDEST SWAP2 POP POP SWAP3 SWAP2 POP POP JUMP JUMPDEST PUSH1 0x0 DUP2 CALLDATALOAD SWAP1 POP PUSH2 0x18DA DUP2 PUSH2 0x2784 JUMP JUMPDEST SWAP3 SWAP2 POP POP JUMP JUMPDEST PUSH1 0x0 DUP2 CALLDATALOAD SWAP1 POP PUSH2 0x18EF DUP2 PUSH2 0x279B JUMP JUMPDEST SWAP3 SWAP2 POP POP JUMP JUMPDEST PUSH1 0x0 DUP2 CALLDATALOAD SWAP1 POP PUSH2 0x1904 DUP2 PUSH2 0x27B2 JUMP JUMPDEST SWAP3 SWAP2 POP POP JUMP JUMPDEST PUSH1 0x0 PUSH1 0x20 DUP3 DUP5 SUB SLT ISZERO PUSH2 0x1920 JUMPI PUSH2 0x191F PUSH2 0x26B8 JUMP JUMPDEST JUMPDEST PUSH1 0x0 PUSH2 0x192E DUP5 DUP3 DUP6 ADD PUSH2 0x1888 JUMP JUMPDEST SWAP2 POP POP SWAP3 SWAP2 POP POP JUMP JUMPDEST PUSH1 0x0 DUP1 PUSH1 0x0 DUP1 PUSH1 0x80 DUP6 DUP8 SUB SLT ISZERO PUSH2 0x1951 JUMPI PUSH2 0x1950 PUSH2 0x26B8 JUMP JUMPDEST JUMPDEST PUSH1 0x0 PUSH2 0x195F DUP8 DUP3 DUP9 ADD PUSH2 0x1888 JUMP JUMPDEST SWAP5 POP POP PUSH1 0x20 PUSH2 0x1970 DUP8 DUP3 DUP9 ADD PUSH2 0x18E0 JUMP JUMPDEST SWAP4 POP POP PUSH1 0x40 DUP6 ADD CALLDATALOAD PUSH8 0xFFFFFFFFFFFFFFFF DUP2 GT ISZERO PUSH2 0x1991 JUMPI PUSH2 0x1990 PUSH2 0x26B3 JUMP JUMPDEST JUMPDEST PUSH2 0x199D DUP8 DUP3 DUP9 ADD PUSH2 0x189D JUMP JUMPDEST SWAP3 POP POP PUSH1 0x60 PUSH2 0x19AE DUP8 DUP3 DUP9 ADD PUSH2 0x18CB JUMP JUMPDEST SWAP2 POP POP SWAP3 SWAP6 SWAP2 SWAP5 POP SWAP3 POP JUMP JUMPDEST PUSH1 0x0 DUP1 PUSH1 0x40 DUP4 DUP6 SUB SLT ISZERO PUSH2 0x19D1 JUMPI PUSH2 0x19D0 PUSH2 0x26B8 JUMP JUMPDEST JUMPDEST PUSH1 0x0 DUP4 ADD CALLDATALOAD PUSH8 0xFFFFFFFFFFFFFFFF DUP2 GT ISZERO PUSH2 0x19EF JUMPI PUSH2 0x19EE PUSH2 0x26B3 JUMP JUMPDEST JUMPDEST PUSH2 0x19FB DUP6 DUP3 DUP7 ADD PUSH2 0x189D JUMP JUMPDEST SWAP3 POP POP PUSH1 0x20 DUP4 ADD CALLDATALOAD PUSH8 0xFFFFFFFFFFFFFFFF DUP2 GT ISZERO PUSH2 0x1A1C JUMPI PUSH2 0x1A1B PUSH2 0x26B3 JUMP JUMPDEST JUMPDEST PUSH2 0x1A28 DUP6 DUP3 DUP7 ADD PUSH2 0x189D JUMP JUMPDEST SWAP2 POP POP SWAP3 POP SWAP3 SWAP1 POP JUMP JUMPDEST PUSH1 0x0 DUP1 PUSH1 0x40 DUP4 DUP6 SUB SLT ISZERO PUSH2 0x1A49 JUMPI PUSH2 0x1A48 PUSH2 0x26B8 JUMP JUMPDEST JUMPDEST PUSH1 0x0 DUP4 ADD CALLDATALOAD PUSH8 0xFFFFFFFFFFFFFFFF DUP2 GT ISZERO PUSH2 0x1A67 JUMPI PUSH2 0x1A66 PUSH2 0x26B3 JUMP JUMPDEST JUMPDEST PUSH2 0x1A73 DUP6 DUP3 DUP7 ADD PUSH2 0x189D JUMP JUMPDEST SWAP3 POP POP PUSH1 0x20 PUSH2 0x1A84 DUP6 DUP3 DUP7 ADD PUSH2 0x18F5 JUMP JUMPDEST SWAP2 POP POP SWAP3 POP SWAP3 SWAP1 POP JUMP JUMPDEST PUSH1 0x0 PUSH1 0x20 DUP3 DUP5 SUB SLT ISZERO PUSH2 0x1AA4 JUMPI PUSH2 0x1AA3 PUSH2 0x26B8 JUMP JUMPDEST JUMPDEST PUSH1 0x0 PUSH2 0x1AB2 DUP5 DUP3 DUP6 ADD PUSH2 0x18E0 JUMP JUMPDEST SWAP2 POP POP SWAP3 SWAP2 POP POP JUMP JUMPDEST PUSH2 0x1AC4 DUP2 PUSH2 0x232F JUMP JUMPDEST DUP3 MSTORE POP POP JUMP JUMPDEST PUSH2 0x1AD3 DUP2 PUSH2 0x232F JUMP JUMPDEST DUP3 MSTORE POP POP JUMP JUMPDEST PUSH2 0x1AE2 DUP2 PUSH2 0x2341 JUMP JUMPDEST DUP3 MSTORE POP POP JUMP JUMPDEST PUSH2 0x1AF1 DUP2 PUSH2 0x2341 JUMP JUMPDEST DUP3 MSTORE POP POP JUMP JUMPDEST PUSH1 0x0 DUP2 SLOAD PUSH2 0x1B04 DUP2 PUSH2 0x245C JUMP JUMPDEST PUSH2 0x1B0E DUP2 DUP7 PUSH2 0x21C9 JUMP JUMPDEST SWAP5 POP PUSH1 0x1 DUP3 AND PUSH1 0x0 DUP2 EQ PUSH2 0x1B29 JUMPI PUSH1 0x1 DUP2 EQ PUSH2 0x1B3A JUMPI PUSH2 0x1B6D JUMP JUMPDEST PUSH1 0xFF NOT DUP4 AND DUP7 MSTORE DUP2 DUP7 ADD SWAP4 POP PUSH2 0x1B6D JUMP JUMPDEST PUSH2 0x1B43 DUP6 PUSH2 0x2194 JUMP JUMPDEST PUSH1 0x0 JUMPDEST DUP4 DUP2 LT ISZERO PUSH2 0x1B65 JUMPI DUP2 SLOAD DUP2 DUP10 ADD MSTORE PUSH1 0x1 DUP3 ADD SWAP2 POP PUSH1 0x20 DUP2 ADD SWAP1 POP PUSH2 0x1B46 JUMP JUMPDEST DUP4 DUP9 ADD SWAP6 POP POP POP JUMPDEST POP POP POP SWAP3 SWAP2 POP POP JUMP JUMPDEST PUSH2 0x1B7F DUP2 PUSH2 0x23AE JUMP JUMPDEST DUP3 MSTORE POP POP JUMP JUMPDEST PUSH2 0x1B8E DUP2 PUSH2 0x23C0 JUMP JUMPDEST DUP3 MSTORE POP POP JUMP JUMPDEST PUSH2 0x1B9D DUP2 PUSH2 0x23D2 JUMP JUMPDEST DUP3 MSTORE POP POP JUMP JUMPDEST PUSH1 0x0 PUSH2 0x1BAE DUP3 PUSH2 0x21BE JUMP JUMPDEST PUSH2 0x1BB8 DUP2 DUP6 PUSH2 0x21E5 JUMP JUMPDEST SWAP4 POP PUSH2 0x1BC8 DUP2 DUP6 PUSH1 0x20 DUP7 ADD PUSH2 0x2429 JUMP JUMPDEST PUSH2 0x1BD1 DUP2 PUSH2 0x26BD JUMP JUMPDEST DUP5 ADD SWAP2 POP POP SWAP3 SWAP2 POP POP JUMP JUMPDEST PUSH1 0x0 DUP2 SLOAD PUSH2 0x1BE9 DUP2 PUSH2 0x245C JUMP JUMPDEST PUSH2 0x1BF3 DUP2 DUP7 PUSH2 0x21D4 JUMP JUMPDEST SWAP5 POP PUSH1 0x1 DUP3 AND PUSH1 0x0 DUP2 EQ PUSH2 0x1C0E JUMPI PUSH1 0x1 DUP2 EQ PUSH2 0x1C20 JUMPI PUSH2 0x1C53 JUMP JUMPDEST PUSH1 0xFF NOT DUP4 AND DUP7 MSTORE PUSH1 0x20 DUP7 ADD SWAP4 POP PUSH2 0x1C53 JUMP JUMPDEST PUSH2 0x1C29 DUP6 PUSH2 0x21A9 JUMP JUMPDEST PUSH1 0x0 JUMPDEST DUP4 DUP2 LT ISZERO PUSH2 0x1C4B JUMPI DUP2 SLOAD DUP2 DUP10 ADD MSTORE PUSH1 0x1 DUP3 ADD SWAP2 POP PUSH1 0x20 DUP2 ADD SWAP1 POP PUSH2 0x1C2C JUMP JUMPDEST DUP1 DUP9 ADD SWAP6 POP POP POP JUMPDEST POP POP POP SWAP3 SWAP2 POP POP JUMP JUMPDEST PUSH1 0x0 DUP2 SLOAD PUSH2 0x1C69 DUP2 PUSH2 0x245C JUMP JUMPDEST PUSH2 0x1C73 DUP2 DUP7 PUSH2 0x21E5 JUMP JUMPDEST SWAP5 POP PUSH1 0x1 DUP3 AND PUSH1 0x0 DUP2 EQ PUSH2 0x1C8E JUMPI PUSH1 0x1 DUP2 EQ PUSH2 0x1CA0 JUMPI PUSH2 0x1CD3 JUMP JUMPDEST PUSH1 0xFF NOT DUP4 AND DUP7 MSTORE PUSH1 0x20 DUP7 ADD SWAP4 POP PUSH2 0x1CD3 JUMP JUMPDEST PUSH2 0x1CA9 DUP6 PUSH2 0x21A9 JUMP JUMPDEST PUSH1 0x0 JUMPDEST DUP4 DUP2 LT ISZERO PUSH2 0x1CCB JUMPI DUP2 SLOAD DUP2 DUP10 ADD MSTORE PUSH1 0x1 DUP3 ADD SWAP2 POP PUSH1 0x20 DUP2 ADD SWAP1 POP PUSH2 0x1CAC JUMP JUMPDEST DUP1 DUP9 ADD SWAP6 POP POP POP JUMPDEST POP POP POP SWAP3 SWAP2 POP POP JUMP JUMPDEST PUSH1 0x0 PUSH2 0x1CE9 PUSH1 0x1A DUP4 PUSH2 0x21E5 JUMP JUMPDEST SWAP2 POP PUSH2 0x1CF4 DUP3 PUSH2 0x26F5 JUMP JUMPDEST PUSH1 0x20 DUP3 ADD SWAP1 POP SWAP2 SWAP1 POP JUMP JUMPDEST PUSH1 0x0 PUSH2 0x1D0C PUSH1 0x33 DUP4 PUSH2 0x21E5 JUMP JUMPDEST SWAP2 POP PUSH2 0x1D17 DUP3 PUSH2 0x271E JUMP JUMPDEST PUSH1 0x40 DUP3 ADD SWAP1 POP SWAP2 SWAP1 POP JUMP JUMPDEST PUSH1 0x0 PUSH1 0xE0 DUP4 ADD PUSH1 0x0 DUP1 DUP5 ADD SLOAD SWAP1 POP PUSH2 0x1D39 DUP2 PUSH2 0x24C2 JUMP JUMPDEST PUSH2 0x1D46 PUSH1 0x0 DUP8 ADD DUP3 PUSH2 0x1E2F JUMP JUMPDEST POP PUSH1 0x1 DUP5 ADD SLOAD SWAP1 POP PUSH2 0x1D57 DUP2 PUSH2 0x24C2 JUMP JUMPDEST PUSH2 0x1D64 PUSH1 0x20 DUP8 ADD DUP3 PUSH2 0x1E2F JUMP JUMPDEST POP PUSH1 0x2 DUP5 ADD SLOAD SWAP1 POP PUSH2 0x1D75 DUP2 PUSH2 0x248E JUMP JUMPDEST PUSH2 0x1D82 PUSH1 0x40 DUP8 ADD DUP3 PUSH2 0x1ABB JUMP JUMPDEST POP PUSH1 0x3 DUP5 ADD DUP6 DUP4 SUB PUSH1 0x60 DUP8 ADD MSTORE PUSH2 0x1D99 DUP4 DUP3 PUSH2 0x1BDC JUMP JUMPDEST SWAP3 POP POP PUSH1 0x4 DUP5 ADD SLOAD SWAP1 POP PUSH2 0x1DAC DUP2 PUSH2 0x24A8 JUMP JUMPDEST PUSH2 0x1DB9 PUSH1 0x80 DUP8 ADD DUP3 PUSH2 0x1DF3 JUMP JUMPDEST POP PUSH2 0x1DC3 DUP2 PUSH2 0x24DC JUMP JUMPDEST PUSH2 0x1DD0 PUSH1 0xA0 DUP8 ADD DUP3 PUSH2 0x1AD9 JUMP JUMPDEST POP PUSH2 0x1DDA DUP2 PUSH2 0x24F6 JUMP JUMPDEST PUSH2 0x1DE7 PUSH1 0xC0 DUP8 ADD DUP3 PUSH2 0x1AD9 JUMP JUMPDEST POP DUP2 SWAP3 POP POP POP SWAP3 SWAP2 POP POP JUMP JUMPDEST PUSH2 0x1DFC DUP2 PUSH2 0x234D JUMP JUMPDEST DUP3 MSTORE POP POP JUMP JUMPDEST PUSH2 0x1E0B DUP2 PUSH2 0x234D JUMP JUMPDEST DUP3 MSTORE POP POP JUMP JUMPDEST PUSH2 0x1E1A DUP2 PUSH2 0x23E4 JUMP JUMPDEST DUP3 MSTORE POP POP JUMP JUMPDEST PUSH2 0x1E29 DUP2 PUSH2 0x2369 JUMP JUMPDEST DUP3 MSTORE POP POP JUMP JUMPDEST PUSH2 0x1E38 DUP2 PUSH2 0x2397 JUMP JUMPDEST DUP3 MSTORE POP POP JUMP JUMPDEST PUSH2 0x1E47 DUP2 PUSH2 0x2397 JUMP JUMPDEST DUP3 MSTORE POP POP JUMP JUMPDEST PUSH2 0x1E56 DUP2 PUSH2 0x23A1 JUMP JUMPDEST DUP3 MSTORE POP POP JUMP JUMPDEST PUSH1 0x0 PUSH2 0x1E68 DUP3 DUP5 PUSH2 0x1AF7 JUMP JUMPDEST SWAP2 POP DUP2 SWAP1 POP SWAP3 SWAP2 POP POP JUMP JUMPDEST PUSH1 0x0 PUSH1 0x20 DUP3 ADD SWAP1 POP PUSH2 0x1E88 PUSH1 0x0 DUP4 ADD DUP5 PUSH2 0x1ACA JUMP JUMPDEST SWAP3 SWAP2 POP POP JUMP JUMPDEST PUSH1 0x0 PUSH1 0x40 DUP3 ADD SWAP1 POP PUSH2 0x1EA3 PUSH1 0x0 DUP4 ADD DUP6 PUSH2 0x1ACA JUMP JUMPDEST DUP2 DUP2 SUB PUSH1 0x20 DUP4 ADD MSTORE PUSH2 0x1EB5 DUP2 DUP5 PUSH2 0x1C5C JUMP JUMPDEST SWAP1 POP SWAP4 SWAP3 POP POP POP JUMP JUMPDEST PUSH1 0x0 PUSH1 0x20 DUP3 ADD SWAP1 POP PUSH2 0x1ED3 PUSH1 0x0 DUP4 ADD DUP5 PUSH2 0x1AE8 JUMP JUMPDEST SWAP3 SWAP2 POP POP JUMP JUMPDEST PUSH1 0x0 PUSH1 0x20 DUP3 ADD SWAP1 POP PUSH2 0x1EEE PUSH1 0x0 DUP4 ADD DUP5 PUSH2 0x1B76 JUMP JUMPDEST SWAP3 SWAP2 POP POP JUMP JUMPDEST PUSH1 0x0 PUSH1 0x20 DUP3 ADD SWAP1 POP PUSH2 0x1F09 PUSH1 0x0 DUP4 ADD DUP5 PUSH2 0x1B85 JUMP JUMPDEST SWAP3 SWAP2 POP POP JUMP JUMPDEST PUSH1 0x0 PUSH1 0x20 DUP3 ADD SWAP1 POP PUSH2 0x1F24 PUSH1 0x0 DUP4 ADD DUP5 PUSH2 0x1B94 JUMP JUMPDEST SWAP3 SWAP2 POP POP JUMP JUMPDEST PUSH1 0x0 PUSH1 0x20 DUP3 ADD SWAP1 POP DUP2 DUP2 SUB PUSH1 0x0 DUP4 ADD MSTORE PUSH2 0x1F44 DUP2 DUP5 PUSH2 0x1BA3 JUMP JUMPDEST SWAP1 POP SWAP3 SWAP2 POP POP JUMP JUMPDEST PUSH1 0x0 PUSH1 0x60 DUP3 ADD SWAP1 POP DUP2 DUP2 SUB PUSH1 0x0 DUP4 ADD MSTORE PUSH2 0x1F66 DUP2 DUP7 PUSH2 0x1BA3 JUMP JUMPDEST SWAP1 POP PUSH2 0x1F75 PUSH1 0x20 DUP4 ADD DUP6 PUSH2 0x1E4D JUMP JUMPDEST PUSH2 0x1F82 PUSH1 0x40 DUP4 ADD DUP5 PUSH2 0x1E20 JUMP JUMPDEST SWAP5 SWAP4 POP POP POP POP JUMP JUMPDEST PUSH1 0x0 PUSH1 0x20 DUP3 ADD SWAP1 POP DUP2 DUP2 SUB PUSH1 0x0 DUP4 ADD MSTORE PUSH2 0x1FA3 DUP2 PUSH2 0x1CDC JUMP JUMPDEST SWAP1 POP SWAP2 SWAP1 POP JUMP JUMPDEST PUSH1 0x0 PUSH1 0x20 DUP3 ADD SWAP1 POP DUP2 DUP2 SUB PUSH1 0x0 DUP4 ADD MSTORE PUSH2 0x1FC3 DUP2 PUSH2 0x1CFF JUMP JUMPDEST SWAP1 POP SWAP2 SWAP1 POP JUMP JUMPDEST PUSH1 0x0 PUSH1 0x20 DUP3 ADD SWAP1 POP DUP2 DUP2 SUB PUSH1 0x0 DUP4 ADD MSTORE PUSH2 0x1FE4 DUP2 DUP5 PUSH2 0x1D22 JUMP JUMPDEST SWAP1 POP SWAP3 SWAP2 POP POP JUMP JUMPDEST PUSH1 0x0 PUSH1 0x20 DUP3 ADD SWAP1 POP PUSH2 0x2001 PUSH1 0x0 DUP4 ADD DUP5 PUSH2 0x1E02 JUMP JUMPDEST SWAP3 SWAP2 POP POP JUMP JUMPDEST PUSH1 0x0 PUSH1 0x20 DUP3 ADD SWAP1 POP PUSH2 0x201C PUSH1 0x0 DUP4 ADD DUP5 PUSH2 0x1E3E JUMP JUMPDEST SWAP3 SWAP2 POP POP JUMP JUMPDEST PUSH1 0x0 PUSH1 0x60 DUP3 ADD SWAP1 POP PUSH2 0x2037 PUSH1 0x0 DUP4 ADD DUP7 PUSH2 0x1E3E JUMP JUMPDEST DUP2 DUP2 SUB PUSH1 0x20 DUP4 ADD MSTORE PUSH2 0x2049 DUP2 DUP6 PUSH2 0x1C5C JUMP JUMPDEST SWAP1 POP PUSH2 0x2058 PUSH1 0x40 DUP4 ADD DUP5 PUSH2 0x1E02 JUMP JUMPDEST SWAP5 SWAP4 POP POP POP POP JUMP JUMPDEST PUSH1 0x0 PUSH1 0xE0 DUP3 ADD SWAP1 POP PUSH2 0x2075 PUSH1 0x0 DUP4 ADD DUP11 PUSH2 0x1E3E JUMP JUMPDEST PUSH2 0x2082 PUSH1 0x20 DUP4 ADD DUP10 PUSH2 0x1E3E JUMP JUMPDEST PUSH2 0x208F PUSH1 0x40 DUP4 ADD DUP9 PUSH2 0x1ACA JUMP JUMPDEST DUP2 DUP2 SUB PUSH1 0x60 DUP4 ADD MSTORE PUSH2 0x20A1 DUP2 DUP8 PUSH2 0x1BA3 JUMP JUMPDEST SWAP1 POP PUSH2 0x20B0 PUSH1 0x80 DUP4 ADD DUP7 PUSH2 0x1E02 JUMP JUMPDEST PUSH2 0x20BD PUSH1 0xA0 DUP4 ADD DUP6 PUSH2 0x1AE8 JUMP JUMPDEST PUSH2 0x20CA PUSH1 0xC0 DUP4 ADD DUP5 PUSH2 0x1AE8 JUMP JUMPDEST SWAP9 SWAP8 POP POP POP POP POP POP POP POP JUMP JUMPDEST PUSH1 0x0 PUSH1 0xC0 DUP3 ADD SWAP1 POP PUSH2 0x20EB PUSH1 0x0 DUP4 ADD DUP10 PUSH2 0x1E3E JUMP JUMPDEST PUSH2 0x20F8 PUSH1 0x20 DUP4 ADD DUP9 PUSH2 0x1E3E JUMP JUMPDEST PUSH2 0x2105 PUSH1 0x40 DUP4 ADD DUP8 PUSH2 0x1ACA JUMP JUMPDEST DUP2 DUP2 SUB PUSH1 0x60 DUP4 ADD MSTORE PUSH2 0x2117 DUP2 DUP7 PUSH2 0x1BA3 JUMP JUMPDEST SWAP1 POP PUSH2 0x2126 PUSH1 0x80 DUP4 ADD DUP6 PUSH2 0x1E02 JUMP JUMPDEST PUSH2 0x2133 PUSH1 0xA0 DUP4 ADD DUP5 PUSH2 0x1E11 JUMP JUMPDEST SWAP8 SWAP7 POP POP POP POP POP POP POP JUMP JUMPDEST PUSH1 0x0 PUSH2 0x2148 PUSH2 0x2159 JUMP JUMPDEST SWAP1 POP PUSH2 0x2154 DUP3 DUP3 PUSH2 0x2510 JUMP JUMPDEST SWAP2 SWAP1 POP JUMP JUMPDEST PUSH1 0x0 PUSH1 0x40 MLOAD SWAP1 POP SWAP1 JUMP JUMPDEST PUSH1 0x0 PUSH8 0xFFFFFFFFFFFFFFFF DUP3 GT ISZERO PUSH2 0x217E JUMPI PUSH2 0x217D PUSH2 0x267A JUMP JUMPDEST JUMPDEST PUSH2 0x2187 DUP3 PUSH2 0x26BD JUMP JUMPDEST SWAP1 POP PUSH1 0x20 DUP2 ADD SWAP1 POP SWAP2 SWAP1 POP JUMP JUMPDEST PUSH1 0x0 DUP2 SWAP1 POP DUP2 PUSH1 0x0 MSTORE PUSH1 0x20 PUSH1 0x0 KECCAK256 SWAP1 POP SWAP2 SWAP1 POP JUMP JUMPDEST PUSH1 0x0 DUP2 SWAP1 POP DUP2 PUSH1 0x0 MSTORE PUSH1 0x20 PUSH1 0x0 KECCAK256 SWAP1 POP SWAP2 SWAP1 POP JUMP JUMPDEST PUSH1 0x0 DUP2 MLOAD SWAP1 POP SWAP2 SWAP1 POP JUMP JUMPDEST PUSH1 0x0 DUP2 SWAP1 POP SWAP3 SWAP2 POP POP JUMP JUMPDEST PUSH1 0x0 DUP3 DUP3 MSTORE PUSH1 0x20 DUP3 ADD SWAP1 POP SWAP3 SWAP2 POP POP JUMP JUMPDEST PUSH1 0x0 DUP3 DUP3 MSTORE PUSH1 0x20 DUP3 ADD SWAP1 POP SWAP3 SWAP2 POP POP JUMP JUMPDEST PUSH1 0x0 PUSH2 0x2201 DUP3 PUSH2 0x234D JUMP JUMPDEST SWAP2 POP PUSH2 0x220C DUP4 PUSH2 0x234D JUMP JUMPDEST SWAP3 POP DUP3 PUSH16 0xFFFFFFFFFFFFFFFFFFFFFFFFFFFFFFFF SUB DUP3 GT ISZERO PUSH2 0x2231 JUMPI PUSH2 0x2230 PUSH2 0x25ED JUMP JUMPDEST JUMPDEST DUP3 DUP3 ADD SWAP1 POP SWAP3 SWAP2 POP POP JUMP JUMPDEST PUSH1 0x0 PUSH2 0x2247 DUP3 PUSH2 0x2397 JUMP JUMPDEST SWAP2 POP PUSH2 0x2252 DUP4 PUSH2 0x2397 JUMP JUMPDEST SWAP3 POP DUP3 PUSH32 0xFFFFFFFFFFFFFFFFFFFFFFFFFFFFFFFFFFFFFFFFFFFFFFFFFFFFFFFFFFFFFFFF SUB DUP3 GT ISZERO PUSH2 0x2287 JUMPI PUSH2 0x2286 PUSH2 0x25ED JUMP JUMPDEST JUMPDEST DUP3 DUP3 ADD SWAP1 POP SWAP3 SWAP2 POP POP JUMP JUMPDEST PUSH1 0x0 PUSH2 0x229D DUP3 PUSH2 0x234D JUMP JUMPDEST SWAP2 POP PUSH2 0x22A8 DUP4 PUSH2 0x234D JUMP JUMPDEST SWAP3 POP DUP2 PUSH16 0xFFFFFFFFFFFFFFFFFFFFFFFFFFFFFFFF DIV DUP4 GT DUP3 ISZERO ISZERO AND ISZERO PUSH2 0x22D1 JUMPI PUSH2 0x22D0 PUSH2 0x25ED JUMP JUMPDEST JUMPDEST DUP3 DUP3 MUL SWAP1 POP SWAP3 SWAP2 POP POP JUMP JUMPDEST PUSH1 0x0 PUSH20 0xFFFFFFFFFFFFFFFFFFFFFFFFFFFFFFFFFFFFFFFF DUP3 AND SWAP1 POP SWAP2 SWAP1 POP JUMP JUMPDEST PUSH1 0x0 PUSH1 0xFF DUP3 AND SWAP1 POP SWAP2 SWAP1 POP JUMP JUMPDEST PUSH1 0x0 PUSH16 0xFFFFFFFFFFFFFFFFFFFFFFFFFFFFFFFF DUP3 AND SWAP1 POP SWAP2 SWAP1 POP JUMP JUMPDEST PUSH1 0x0 DUP2 SWAP1 POP SWAP2 SWAP1 POP JUMP JUMPDEST PUSH1 0x0 PUSH2 0x233A DUP3 PUSH2 0x2377 JUMP JUMPDEST SWAP1 POP SWAP2 SWAP1 POP JUMP JUMPDEST PUSH1 0x0 DUP2 ISZERO ISZERO SWAP1 POP SWAP2 SWAP1 POP JUMP JUMPDEST PUSH1 0x0 PUSH16 0xFFFFFFFFFFFFFFFFFFFFFFFFFFFFFFFF DUP3 AND SWAP1 POP SWAP2 SWAP1 POP JUMP JUMPDEST PUSH1 0x0 PUSH2 0xFFFF DUP3 AND SWAP1 POP SWAP2 SWAP1 POP JUMP JUMPDEST PUSH1 0x0 PUSH20 0xFFFFFFFFFFFFFFFFFFFFFFFFFFFFFFFFFFFFFFFF DUP3 AND SWAP1 POP SWAP2 SWAP1 POP JUMP JUMPDEST PUSH1 0x0 DUP2 SWAP1 POP SWAP2 SWAP1 POP JUMP JUMPDEST PUSH1 0x0 PUSH1 0xFF DUP3 AND SWAP1 POP SWAP2 SWAP1 POP JUMP JUMPDEST PUSH1 0x0 PUSH2 0x23B9 DUP3 PUSH2 0x23F6 JUMP JUMPDEST SWAP1 POP SWAP2 SWAP1 POP JUMP JUMPDEST PUSH1 0x0 PUSH2 0x23CB DUP3 PUSH2 0x23F6 JUMP JUMPDEST SWAP1 POP SWAP2 SWAP1 POP JUMP JUMPDEST PUSH1 0x0 PUSH2 0x23DD DUP3 PUSH2 0x23F6 JUMP JUMPDEST SWAP1 POP SWAP2 SWAP1 POP JUMP JUMPDEST PUSH1 0x0 PUSH2 0x23EF DUP3 PUSH2 0x234D JUMP JUMPDEST SWAP1 POP SWAP2 SWAP1 POP JUMP JUMPDEST PUSH1 0x0 PUSH2 0x2401 DUP3 PUSH2 0x2408 JUMP JUMPDEST SWAP1 POP SWAP2 SWAP1 POP JUMP JUMPDEST PUSH1 0x0 PUSH2 0x2413 DUP3 PUSH2 0x2377 JUMP JUMPDEST SWAP1 POP SWAP2 SWAP1 POP JUMP JUMPDEST DUP3 DUP2 DUP4 CALLDATACOPY PUSH1 0x0 DUP4 DUP4 ADD MSTORE POP POP POP JUMP JUMPDEST PUSH1 0x0 JUMPDEST DUP4 DUP2 LT ISZERO PUSH2 0x2447 JUMPI DUP1 DUP3 ADD MLOAD DUP2 DUP5 ADD MSTORE PUSH1 0x20 DUP2 ADD SWAP1 POP PUSH2 0x242C JUMP JUMPDEST DUP4 DUP2 GT ISZERO PUSH2 0x2456 JUMPI PUSH1 0x0 DUP5 DUP5 ADD MSTORE JUMPDEST POP POP POP POP JUMP JUMPDEST PUSH1 0x0 PUSH1 0x2 DUP3 DIV SWAP1 POP PUSH1 0x1 DUP3 AND DUP1 PUSH2 0x2474 JUMPI PUSH1 0x7F DUP3 AND SWAP2 POP JUMPDEST PUSH1 0x20 DUP3 LT DUP2 EQ ISZERO PUSH2 0x2488 JUMPI PUSH2 0x2487 PUSH2 0x261C JUMP JUMPDEST JUMPDEST POP SWAP2 SWAP1 POP JUMP JUMPDEST PUSH1 0x0 PUSH2 0x24A1 PUSH2 0x249C DUP4 PUSH2 0x26CE JUMP JUMPDEST PUSH2 0x22DC JUMP JUMPDEST SWAP1 POP SWAP2 SWAP1 POP JUMP JUMPDEST PUSH1 0x0 PUSH2 0x24BB PUSH2 0x24B6 DUP4 PUSH2 0x26CE JUMP JUMPDEST PUSH2 0x2309 JUMP JUMPDEST SWAP1 POP SWAP2 SWAP1 POP JUMP JUMPDEST PUSH1 0x0 PUSH2 0x24D5 PUSH2 0x24D0 DUP4 PUSH2 0x26CE JUMP JUMPDEST PUSH2 0x2325 JUMP JUMPDEST SWAP1 POP SWAP2 SWAP1 POP JUMP JUMPDEST PUSH1 0x0 PUSH2 0x24EF PUSH2 0x24EA DUP4 PUSH2 0x26DB JUMP JUMPDEST PUSH2 0x22FC JUMP JUMPDEST SWAP1 POP SWAP2 SWAP1 POP JUMP JUMPDEST PUSH1 0x0 PUSH2 0x2509 PUSH2 0x2504 DUP4 PUSH2 0x26E8 JUMP JUMPDEST PUSH2 0x22FC JUMP JUMPDEST SWAP1 POP SWAP2 SWAP1 POP JUMP JUMPDEST PUSH2 0x2519 DUP3 PUSH2 0x26BD JUMP JUMPDEST DUP2 ADD DUP2 DUP2 LT PUSH8 0xFFFFFFFFFFFFFFFF DUP3 GT OR ISZERO PUSH2 0x2538 JUMPI PUSH2 0x2537 PUSH2 0x267A JUMP JUMPDEST JUMPDEST DUP1 PUSH1 0x40 MSTORE POP POP POP JUMP JUMPDEST PUSH1 0x0 PUSH2 0x254C DUP3 PUSH2 0x234D JUMP JUMPDEST SWAP2 POP PUSH16 0xFFFFFFFFFFFFFFFFFFFFFFFFFFFFFFFF DUP3 EQ ISZERO PUSH2 0x256F JUMPI PUSH2 0x256E PUSH2 0x25ED JUMP JUMPDEST JUMPDEST PUSH1 0x1 DUP3 ADD SWAP1 POP SWAP2 SWAP1 POP JUMP JUMPDEST PUSH1 0x0 PUSH2 0x2585 DUP3 PUSH2 0x2397 JUMP JUMPDEST SWAP2 POP PUSH32 0xFFFFFFFFFFFFFFFFFFFFFFFFFFFFFFFFFFFFFFFFFFFFFFFFFFFFFFFFFFFFFFFF DUP3 EQ ISZERO PUSH2 0x25B8 JUMPI PUSH2 0x25B7 PUSH2 0x25ED JUMP JUMPDEST JUMPDEST PUSH1 0x1 DUP3 ADD SWAP1 POP SWAP2 SWAP1 POP JUMP JUMPDEST PUSH1 0x0 PUSH2 0x25CE DUP3 PUSH2 0x23A1 JUMP JUMPDEST SWAP2 POP PUSH1 0xFF DUP3 EQ ISZERO PUSH2 0x25E2 JUMPI PUSH2 0x25E1 PUSH2 0x25ED JUMP JUMPDEST JUMPDEST PUSH1 0x1 DUP3 ADD SWAP1 POP SWAP2 SWAP1 POP JUMP JUMPDEST PUSH32 0x4E487B7100000000000000000000000000000000000000000000000000000000 PUSH1 0x0 MSTORE PUSH1 0x11 PUSH1 0x4 MSTORE PUSH1 0x24 PUSH1 0x0 REVERT JUMPDEST PUSH32 0x4E487B7100000000000000000000000000000000000000000000000000000000 PUSH1 0x0 MSTORE PUSH1 0x22 PUSH1 0x4 MSTORE PUSH1 0x24 PUSH1 0x0 REVERT JUMPDEST PUSH32 0x4E487B7100000000000000000000000000000000000000000000000000000000 PUSH1 0x0 MSTORE PUSH1 0x32 PUSH1 0x4 MSTORE PUSH1 0x24 PUSH1 0x0 REVERT JUMPDEST PUSH32 0x4E487B7100000000000000000000000000000000000000000000000000000000 PUSH1 0x0 MSTORE PUSH1 0x41 PUSH1 0x4 MSTORE PUSH1 0x24 PUSH1 0x0 REVERT JUMPDEST PUSH1 0x0 DUP1 REVERT JUMPDEST PUSH1 0x0 DUP1 REVERT JUMPDEST PUSH1 0x0 DUP1 REVERT JUMPDEST PUSH1 0x0 DUP1 REVERT JUMPDEST PUSH1 0x0 PUSH1 0x1F NOT PUSH1 0x1F DUP4 ADD AND SWAP1 POP SWAP2 SWAP1 POP JUMP JUMPDEST PUSH1 0x0 DUP2 PUSH1 0x0 SHR SWAP1 POP SWAP2 SWAP1 POP JUMP JUMPDEST PUSH1 0x0 DUP2 PUSH1 0x80 SHR SWAP1 POP SWAP2 SWAP1 POP JUMP JUMPDEST PUSH1 0x0 DUP2 PUSH1 0x88 SHR SWAP1 POP SWAP2 SWAP1 POP JUMP JUMPDEST PUSH32 0x46756E6374696F6E2063616C6C656420746F6F206561726C792E000000000000 PUSH1 0x0 DUP3 ADD MSTORE POP JUMP JUMPDEST PUSH32 0x546869732066756E6374696F6E206973207265737472696374656420746F2074 PUSH1 0x0 DUP3 ADD MSTORE PUSH32 0x686520636F6E74726163742773206F776E657200000000000000000000000000 PUSH1 0x20 DUP3 ADD MSTORE POP JUMP JUMPDEST PUSH2 0x2776 DUP2 PUSH2 0x232F JUMP JUMPDEST DUP2 EQ PUSH2 0x2781 JUMPI PUSH1 0x0 DUP1 REVERT JUMPDEST POP JUMP JUMPDEST PUSH2 0x278D DUP2 PUSH2 0x234D JUMP JUMPDEST DUP2 EQ PUSH2 0x2798 JUMPI PUSH1 0x0 DUP1 REVERT JUMPDEST POP JUMP JUMPDEST PUSH2 0x27A4 DUP2 PUSH2 0x2397 JUMP JUMPDEST DUP2 EQ PUSH2 0x27AF JUMPI PUSH1 0x0 DUP1 REVERT JUMPDEST POP JUMP JUMPDEST PUSH2 0x27BB DUP2 PUSH2 0x23A1 JUMP JUMPDEST DUP2 EQ PUSH2 0x27C6 JUMPI PUSH1 0x0 DUP1 REVERT JUMPDEST POP JUMP INVALID LOG2 PUSH5 0x6970667358 0x22 SLT KECCAK256 SGT PUSH3 0x626309 0xC5 EXTCODEHASH 0xB9 LOG1 PUSH17 0xD7E661EA55C537CE14263D9E76B532D9E1 XOR BALANCE DUP9 PUSH32 0xE364736F6C634300080700330000000000000000000000000000000000000000 "
		},
		"gasEstimates": {
			"creation": {
				"codeDepositCost": "2047800",
				"executionCost": "infinite",
				"totalCost": "infinite"
			},
			"external": {
				"CheckHoneyAnalysysResults()": "infinite",
				"DeleteBeekeeperHoneyData()": "infinite",
				"RegisterAtApiary(address)": "26911",
				"RegisterAtLaboratory(address)": "26912",
				"RegisterAtProcessor(address)": "26978",
				"RegisterNewHoneyTypeInCenter(string,uint8)": "infinite",
				"RegisterReceivedBeekeeperHoney(address,uint256,string,uint128)": "infinite",
				"TransferHoneyToProcessor()": "infinite",
				"UpdateAcquisitionCenterInfo(string,string)": "infinite",
				"_acquisitionCenterHoneyUID_uint()": "2496",
				"_acquisitionCenterLocation_str()": "infinite",
				"_acquisitionCenterName_str()": "infinite",
				"_counterBeekeeperHoney_uint()": "2494",
				"_creationTime_uint()": "2474",
				"_owner()": "2600",
				"apiary()": "2624",
				"beekeeperHoneyEvidence(uint256)": "infinite",
				"honeyTypesWithPriceEvidence(uint256)": "infinite",
				"laboratory()": "2711",
				"processor()": "2688",
				"test()": "2603"
			}
		},
		"methodIdentifiers": {
			"CheckHoneyAnalysysResults()": "170194db",
			"DeleteBeekeeperHoneyData()": "c7a7ed68",
			"RegisterAtApiary(address)": "c0070162",
			"RegisterAtLaboratory(address)": "8c64c366",
			"RegisterAtProcessor(address)": "78ba8e23",
			"RegisterNewHoneyTypeInCenter(string,uint8)": "c031751e",
			"RegisterReceivedBeekeeperHoney(address,uint256,string,uint128)": "1ca60445",
			"TransferHoneyToProcessor()": "b98fe1bc",
			"UpdateAcquisitionCenterInfo(string,string)": "3bfaad8b",
			"_acquisitionCenterHoneyUID_uint()": "4e2ce75c",
			"_acquisitionCenterLocation_str()": "2464d946",
			"_acquisitionCenterName_str()": "2eef6fe5",
			"_counterBeekeeperHoney_uint()": "2f197a71",
			"_creationTime_uint()": "921dfded",
			"_owner()": "b2bdfa7b",
			"apiary()": "13f1effe",
			"beekeeperHoneyEvidence(uint256)": "a467b71a",
			"honeyTypesWithPriceEvidence(uint256)": "e5d48f29",
			"laboratory()": "79971266",
			"processor()": "ce1b1d43",
			"test()": "f8a8fd6d"
		}
	},
	"abi": [
		{
			"inputs": [],
			"stateMutability": "nonpayable",
			"type": "constructor"
		},
		{
			"anonymous": false,
			"inputs": [
				{
					"indexed": false,
					"internalType": "uint256",
					"name": "acquisitionCenterHoneyUID_uint",
					"type": "uint256"
				},
				{
					"indexed": false,
					"internalType": "uint256",
					"name": "apiaryHoneyUID_uint",
					"type": "uint256"
				},
				{
					"indexed": false,
					"internalType": "address",
					"name": "apiaryAccount_addr",
					"type": "address"
				},
				{
					"indexed": false,
					"internalType": "string",
					"name": "honeyType",
					"type": "string"
				},
				{
					"indexed": false,
					"internalType": "uint128",
					"name": "honeyQuantity",
					"type": "uint128"
				},
				{
					"indexed": false,
					"internalType": "uint256",
					"name": "payment",
					"type": "uint256"
				}
			],
			"name": "HoneyReceivedFromApiaryEv",
			"type": "event"
		},
		{
			"anonymous": false,
			"inputs": [
				{
					"components": [
						{
							"internalType": "uint256",
							"name": "acquisitionCenterHoneyUID_uint",
							"type": "uint256"
						},
						{
							"internalType": "uint256",
							"name": "apiaryHoneyUID_uint",
							"type": "uint256"
						},
						{
							"internalType": "address",
							"name": "apiaryAccount_addr",
							"type": "address"
						},
						{
							"internalType": "string",
							"name": "honeyType_str",
							"type": "string"
						},
						{
							"internalType": "uint128",
							"name": "quantity_uint",
							"type": "uint128"
						},
						{
							"internalType": "bool",
							"name": "isBIO",
							"type": "bool"
						},
						{
							"internalType": "bool",
							"name": "isAvailable",
							"type": "bool"
						}
					],
					"indexed": false,
					"internalType": "struct AcquisitionCenter.BeekeeperHoney_st",
					"name": "beekeeperHoney",
					"type": "tuple"
				}
			],
			"name": "HoneyTransferToProcessor",
			"type": "event"
		},
		{
			"anonymous": false,
			"inputs": [],
			"name": "ReturnNonEcologicalHoneyToApiaryEv",
			"type": "event"
		},
		{
			"inputs": [],
			"name": "CheckHoneyAnalysysResults",
			"outputs": [],
			"stateMutability": "nonpayable",
			"type": "function"
		},
		{
			"inputs": [],
			"name": "DeleteBeekeeperHoneyData",
			"outputs": [],
			"stateMutability": "nonpayable",
			"type": "function"
		},
		{
			"inputs": [
				{
					"internalType": "address",
					"name": "apiaryContract_addr",
					"type": "address"
				}
			],
			"name": "RegisterAtApiary",
			"outputs": [],
			"stateMutability": "nonpayable",
			"type": "function"
		},
		{
			"inputs": [
				{
					"internalType": "address",
					"name": "laboratoryCenterContract_addr",
					"type": "address"
				}
			],
			"name": "RegisterAtLaboratory",
			"outputs": [],
			"stateMutability": "nonpayable",
			"type": "function"
		},
		{
			"inputs": [
				{
					"internalType": "address",
					"name": "processorContract_addr",
					"type": "address"
				}
			],
			"name": "RegisterAtProcessor",
			"outputs": [],
			"stateMutability": "nonpayable",
			"type": "function"
		},
		{
			"inputs": [
				{
					"internalType": "string",
					"name": "honeyType",
					"type": "string"
				},
				{
					"internalType": "uint8",
					"name": "price",
					"type": "uint8"
				}
			],
			"name": "RegisterNewHoneyTypeInCenter",
			"outputs": [],
			"stateMutability": "nonpayable",
			"type": "function"
		},
		{
			"inputs": [
				{
					"internalType": "address",
					"name": "apiaryAccount_addr",
					"type": "address"
				},
				{
					"internalType": "uint256",
					"name": "apiaryHoneyUID_uint",
					"type": "uint256"
				},
				{
					"internalType": "string",
					"name": "honeyType_str",
					"type": "string"
				},
				{
					"internalType": "uint128",
					"name": "quantity_uint",
					"type": "uint128"
				}
			],
			"name": "RegisterReceivedBeekeeperHoney",
			"outputs": [],
			"stateMutability": "nonpayable",
			"type": "function"
		},
		{
			"inputs": [],
			"name": "TransferHoneyToProcessor",
			"outputs": [],
			"stateMutability": "nonpayable",
			"type": "function"
		},
		{
			"inputs": [
				{
					"internalType": "string",
					"name": "acquisitionCenterName",
					"type": "string"
				},
				{
					"internalType": "string",
					"name": "acquisitionCenterLocation",
					"type": "string"
				}
			],
			"name": "UpdateAcquisitionCenterInfo",
			"outputs": [],
			"stateMutability": "nonpayable",
			"type": "function"
		},
		{
			"inputs": [],
			"name": "_acquisitionCenterHoneyUID_uint",
			"outputs": [
				{
					"internalType": "uint256",
					"name": "",
					"type": "uint256"
				}
			],
			"stateMutability": "view",
			"type": "function"
		},
		{
			"inputs": [],
			"name": "_acquisitionCenterLocation_str",
			"outputs": [
				{
					"internalType": "string",
					"name": "",
					"type": "string"
				}
			],
			"stateMutability": "view",
			"type": "function"
		},
		{
			"inputs": [],
			"name": "_acquisitionCenterName_str",
			"outputs": [
				{
					"internalType": "string",
					"name": "",
					"type": "string"
				}
			],
			"stateMutability": "view",
			"type": "function"
		},
		{
			"inputs": [],
			"name": "_counterBeekeeperHoney_uint",
			"outputs": [
				{
					"internalType": "uint128",
					"name": "",
					"type": "uint128"
				}
			],
			"stateMutability": "view",
			"type": "function"
		},
		{
			"inputs": [],
			"name": "_creationTime_uint",
			"outputs": [
				{
					"internalType": "uint256",
					"name": "",
					"type": "uint256"
				}
			],
			"stateMutability": "view",
			"type": "function"
		},
		{
			"inputs": [],
			"name": "_owner",
			"outputs": [
				{
					"internalType": "address",
					"name": "",
					"type": "address"
				}
			],
			"stateMutability": "view",
			"type": "function"
		},
		{
			"inputs": [],
			"name": "apiary",
			"outputs": [
				{
					"internalType": "contract Apiary",
					"name": "",
					"type": "address"
				}
			],
			"stateMutability": "view",
			"type": "function"
		},
		{
			"inputs": [
				{
					"internalType": "uint256",
					"name": "",
					"type": "uint256"
				}
			],
			"name": "beekeeperHoneyEvidence",
			"outputs": [
				{
					"internalType": "uint256",
					"name": "acquisitionCenterHoneyUID_uint",
					"type": "uint256"
				},
				{
					"internalType": "uint256",
					"name": "apiaryHoneyUID_uint",
					"type": "uint256"
				},
				{
					"internalType": "address",
					"name": "apiaryAccount_addr",
					"type": "address"
				},
				{
					"internalType": "string",
					"name": "honeyType_str",
					"type": "string"
				},
				{
					"internalType": "uint128",
					"name": "quantity_uint",
					"type": "uint128"
				},
				{
					"internalType": "bool",
					"name": "isBIO",
					"type": "bool"
				},
				{
					"internalType": "bool",
					"name": "isAvailable",
					"type": "bool"
				}
			],
			"stateMutability": "view",
			"type": "function"
		},
		{
			"inputs": [
				{
					"internalType": "uint256",
					"name": "",
					"type": "uint256"
				}
			],
			"name": "honeyTypesWithPriceEvidence",
			"outputs": [
				{
					"internalType": "string",
					"name": "honeyType_str",
					"type": "string"
				},
				{
					"internalType": "uint8",
					"name": "pricePerKg_uint",
					"type": "uint8"
				},
				{
					"internalType": "uint16",
					"name": "quantity_uint",
					"type": "uint16"
				}
			],
			"stateMutability": "view",
			"type": "function"
		},
		{
			"inputs": [],
			"name": "laboratory",
			"outputs": [
				{
					"internalType": "contract Laboratory",
					"name": "",
					"type": "address"
				}
			],
			"stateMutability": "view",
			"type": "function"
		},
		{
			"inputs": [],
			"name": "processor",
			"outputs": [
				{
					"internalType": "contract Processor",
					"name": "",
					"type": "address"
				}
			],
			"stateMutability": "view",
			"type": "function"
		},
		{
			"inputs": [],
			"name": "test",
			"outputs": [
				{
					"internalType": "bool",
					"name": "",
					"type": "bool"
				}
			],
			"stateMutability": "view",
			"type": "function"
		}
	]
}