{
	"data": {
		"bytecode": {
			"linkReferences": {},
			"object": "608060405260405180602001604052806000815250600190805190602001906200002b929190620000a8565b50604051806020016040528060008152506002908051906020019062000053929190620000a8565b503480156200006157600080fd5b50336000806101000a81548173ffffffffffffffffffffffffffffffffffffffff021916908373ffffffffffffffffffffffffffffffffffffffff160217905550620001bd565b828054620000b69062000158565b90600052602060002090601f016020900481019282620000da576000855562000126565b82601f10620000f557805160ff191683800117855562000126565b8280016001018555821562000126579182015b828111156200012557825182559160200191906001019062000108565b5b50905062000135919062000139565b5090565b5b80821115620001545760008160009055506001016200013a565b5090565b600060028204905060018216806200017157607f821691505b602082108114156200018857620001876200018e565b5b50919050565b7f4e487b7100000000000000000000000000000000000000000000000000000000600052602260045260246000fd5b61121280620001cd6000396000f3fe608060405234801561001057600080fd5b50600436106100885760003560e01c8063e5d48f291161005b578063e5d48f2914610115578063e6bcd1be14610147578063eea7e50c14610165578063fd52c6501461018157610088565b80635b18b2431461008d5780638db72a2f146100a9578063b2bdfa7b146100db578063b73a3a7f146100f9575b600080fd5b6100a760048036038101906100a29190610bf9565b61019f565b005b6100c360048036038101906100be9190610c4d565b6103d5565b6040516100d293929190610ea6565b60405180910390f35b6100e36104b3565b6040516100f09190610e0b565b60405180910390f35b610113600480360381019061010e9190610c76565b6104d7565b005b61012f600480360381019061012a9190610c4d565b6105ac565b60405161013e93929190610e48565b60405180910390f35b61014f610697565b60405161015c9190610e26565b60405180910390f35b61017f600480360381019061017a9190610b8d565b610725565b005b6101896107e5565b6040516101969190610e26565b60405180910390f35b60008054906101000a900473ffffffffffffffffffffffffffffffffffffffff1673ffffffffffffffffffffffffffffffffffffffff163373ffffffffffffffffffffffffffffffffffffffff161461022d576040517f08c379a000000000000000000000000000000000000000000000000000000000815260040161022490610e86565b60405180910390fd5b6000610237610a0d565b60005b6003805490508160ff1610156102d15760038160ff1681548110610287577f4e487b7100000000000000000000000000000000000000000000000000000000600052603260045260246000fd5b90600052602060002090600202016000016040516102a59190610df4565b6040518091039020858051906020012014156102c057600192505b806102ca90611080565b905061023a565b50816103cf5783816000018190525082816020019060ff16908160ff1681525050600081604001906fffffffffffffffffffffffffffffffff1690816fffffffffffffffffffffffffffffffff16815250506003819080600181540180825580915050600190039060005260206000209060020201600090919091909150600082015181600001908051906020019061036b929190610a43565b5060208201518160010160006101000a81548160ff021916908360ff16021790555060408201518160010160016101000a8154816fffffffffffffffffffffffffffffffff02191690836fffffffffffffffffffffffffffffffff16021790555050505b50505050565b600481815481106103e557600080fd5b906000526020600020906003020160009150905080600001549080600101805461040e9061101d565b80601f016020809104026020016040519081016040528092919081815260200182805461043a9061101d565b80156104875780601f1061045c57610100808354040283529160200191610487565b820191906000526020600020905b81548152906001019060200180831161046a57829003601f168201915b5050505050908060020160009054906101000a90046fffffffffffffffffffffffffffffffff16905083565b60008054906101000a900473ffffffffffffffffffffffffffffffffffffffff1681565b60006040518060600160405280858152602001848152602001836fffffffffffffffffffffffffffffffff1681525090506105128383610873565b6004819080600181540180825580915050600190039060005260206000209060030201600090919091909150600082015181600001556020820151816001019080519060200190610564929190610a43565b5060408201518160020160006101000a8154816fffffffffffffffffffffffffffffffff02191690836fffffffffffffffffffffffffffffffff160217905550505050505050565b600381815481106105bc57600080fd5b90600052602060002090600202016000915090508060000180546105df9061101d565b80601f016020809104026020016040519081016040528092919081815260200182805461060b9061101d565b80156106585780601f1061062d57610100808354040283529160200191610658565b820191906000526020600020905b81548152906001019060200180831161063b57829003601f168201915b5050505050908060010160009054906101000a900460ff16908060010160019054906101000a90046fffffffffffffffffffffffffffffffff16905083565b600180546106a49061101d565b80601f01602080910402602001604051908101604052809291908181526020018280546106d09061101d565b801561071d5780601f106106f25761010080835404028352916020019161071d565b820191906000526020600020905b81548152906001019060200180831161070057829003601f168201915b505050505081565b60008054906101000a900473ffffffffffffffffffffffffffffffffffffffff1673ffffffffffffffffffffffffffffffffffffffff163373ffffffffffffffffffffffffffffffffffffffff16146107b3576040517f08c379a00000000000000000000000000000000000000000000000000000000081526004016107aa90610e86565b60405180910390fd5b81600190805190602001906107c9929190610a43565b5080600290805190602001906107e0929190610a43565b505050565b600280546107f29061101d565b80601f016020809104026020016040519081016040528092919081815260200182805461081e9061101d565b801561086b5780601f106108405761010080835404028352916020019161086b565b820191906000526020600020905b81548152906001019060200180831161084e57829003601f168201915b505050505081565b600061087d610a0d565b60005b6003805490508160ff1610156109175760038160ff16815481106108cd577f4e487b7100000000000000000000000000000000000000000000000000000000600052603260045260246000fd5b90600052602060002090600202016000016040516108eb9190610df4565b60405180910390208580519060200120141561090657600192505b8061091090611080565b9050610880565b5081610a06578381600001819052508281604001906fffffffffffffffffffffffffffffffff1690816fffffffffffffffffffffffffffffffff16815250506003819080600181540180825580915050600190039060005260206000209060020201600090919091909150600082015181600001908051906020019061099e929190610a43565b5060208201518160010160006101000a81548160ff021916908360ff16021790555060408201518160010160016101000a8154816fffffffffffffffffffffffffffffffff02191690836fffffffffffffffffffffffffffffffff1602179055505050610a07565b5b50505050565b604051806060016040528060608152602001600060ff16815260200160006fffffffffffffffffffffffffffffffff1681525090565b828054610a4f9061101d565b90600052602060002090601f016020900481019282610a715760008555610ab8565b82601f10610a8a57805160ff1916838001178555610ab8565b82800160010185558215610ab8579182015b82811115610ab7578251825591602001919060010190610a9c565b5b509050610ac59190610ac9565b5090565b5b80821115610ae2576000816000905550600101610aca565b5090565b6000610af9610af484610f09565b610ee4565b905082815260208101848484011115610b1157600080fd5b610b1c848285610fdb565b509392505050565b600082601f830112610b3557600080fd5b8135610b45848260208601610ae6565b91505092915050565b600081359050610b5d81611197565b92915050565b600081359050610b72816111ae565b92915050565b600081359050610b87816111c5565b92915050565b60008060408385031215610ba057600080fd5b600083013567ffffffffffffffff811115610bba57600080fd5b610bc685828601610b24565b925050602083013567ffffffffffffffff811115610be357600080fd5b610bef85828601610b24565b9150509250929050565b60008060408385031215610c0c57600080fd5b600083013567ffffffffffffffff811115610c2657600080fd5b610c3285828601610b24565b9250506020610c4385828601610b78565b9150509250929050565b600060208284031215610c5f57600080fd5b6000610c6d84828501610b63565b91505092915050565b600080600060608486031215610c8b57600080fd5b6000610c9986828701610b63565b935050602084013567ffffffffffffffff811115610cb657600080fd5b610cc286828701610b24565b9250506040610cd386828701610b4e565b9150509250925092565b610ce681610f76565b82525050565b60008154610cf98161101d565b610d038186610f5a565b94506001821660008114610d1e5760018114610d2f57610d62565b60ff19831686528186019350610d62565b610d3885610f3a565b60005b83811015610d5a57815481890152600182019150602081019050610d3b565b838801955050505b50505092915050565b6000610d7682610f4f565b610d808185610f65565b9350610d90818560208601610fea565b610d9981611137565b840191505092915050565b6000610db1603383610f65565b9150610dbc82611148565b604082019050919050565b610dd081610f88565b82525050565b610ddf81610fc4565b82525050565b610dee81610fce565b82525050565b6000610e008284610cec565b915081905092915050565b6000602082019050610e206000830184610cdd565b92915050565b60006020820190508181036000830152610e408184610d6b565b905092915050565b60006060820190508181036000830152610e628186610d6b565b9050610e716020830185610de5565b610e7e6040830184610dc7565b949350505050565b60006020820190508181036000830152610e9f81610da4565b9050919050565b6000606082019050610ebb6000830186610dd6565b8181036020830152610ecd8185610d6b565b9050610edc6040830184610dc7565b949350505050565b6000610eee610eff565b9050610efa828261104f565b919050565b6000604051905090565b600067ffffffffffffffff821115610f2457610f23611108565b5b610f2d82611137565b9050602081019050919050565b60008190508160005260206000209050919050565b600081519050919050565b600081905092915050565b600082825260208201905092915050565b6000610f8182610fa4565b9050919050565b60006fffffffffffffffffffffffffffffffff82169050919050565b600073ffffffffffffffffffffffffffffffffffffffff82169050919050565b6000819050919050565b600060ff82169050919050565b82818337600083830152505050565b60005b83811015611008578082015181840152602081019050610fed565b83811115611017576000848401525b50505050565b6000600282049050600182168061103557607f821691505b60208210811415611049576110486110d9565b5b50919050565b61105882611137565b810181811067ffffffffffffffff8211171561107757611076611108565b5b80604052505050565b600061108b82610fce565b915060ff82141561109f5761109e6110aa565b5b600182019050919050565b7f4e487b7100000000000000000000000000000000000000000000000000000000600052601160045260246000fd5b7f4e487b7100000000000000000000000000000000000000000000000000000000600052602260045260246000fd5b7f4e487b7100000000000000000000000000000000000000000000000000000000600052604160045260246000fd5b6000601f19601f8301169050919050565b7f546869732066756e6374696f6e206973207265737472696374656420746f207460008201527f686520636f6e74726163742773206f776e657200000000000000000000000000602082015250565b6111a081610f88565b81146111ab57600080fd5b50565b6111b781610fc4565b81146111c257600080fd5b50565b6111ce81610fce565b81146111d957600080fd5b5056fea264697066735822122045925649ad60aee1ca7ee028fd55f0d55960944e21d5e4ab4dcc7e944a8c458564736f6c63430008040033",
			"opcodes": "PUSH1 0x80 PUSH1 0x40 MSTORE PUSH1 0x40 MLOAD DUP1 PUSH1 0x20 ADD PUSH1 0x40 MSTORE DUP1 PUSH1 0x0 DUP2 MSTORE POP PUSH1 0x1 SWAP1 DUP1 MLOAD SWAP1 PUSH1 0x20 ADD SWAP1 PUSH3 0x2B SWAP3 SWAP2 SWAP1 PUSH3 0xA8 JUMP JUMPDEST POP PUSH1 0x40 MLOAD DUP1 PUSH1 0x20 ADD PUSH1 0x40 MSTORE DUP1 PUSH1 0x0 DUP2 MSTORE POP PUSH1 0x2 SWAP1 DUP1 MLOAD SWAP1 PUSH1 0x20 ADD SWAP1 PUSH3 0x53 SWAP3 SWAP2 SWAP1 PUSH3 0xA8 JUMP JUMPDEST POP CALLVALUE DUP1 ISZERO PUSH3 0x61 JUMPI PUSH1 0x0 DUP1 REVERT JUMPDEST POP CALLER PUSH1 0x0 DUP1 PUSH2 0x100 EXP DUP2 SLOAD DUP2 PUSH20 0xFFFFFFFFFFFFFFFFFFFFFFFFFFFFFFFFFFFFFFFF MUL NOT AND SWAP1 DUP4 PUSH20 0xFFFFFFFFFFFFFFFFFFFFFFFFFFFFFFFFFFFFFFFF AND MUL OR SWAP1 SSTORE POP PUSH3 0x1BD JUMP JUMPDEST DUP3 DUP1 SLOAD PUSH3 0xB6 SWAP1 PUSH3 0x158 JUMP JUMPDEST SWAP1 PUSH1 0x0 MSTORE PUSH1 0x20 PUSH1 0x0 KECCAK256 SWAP1 PUSH1 0x1F ADD PUSH1 0x20 SWAP1 DIV DUP2 ADD SWAP3 DUP3 PUSH3 0xDA JUMPI PUSH1 0x0 DUP6 SSTORE PUSH3 0x126 JUMP JUMPDEST DUP3 PUSH1 0x1F LT PUSH3 0xF5 JUMPI DUP1 MLOAD PUSH1 0xFF NOT AND DUP4 DUP1 ADD OR DUP6 SSTORE PUSH3 0x126 JUMP JUMPDEST DUP3 DUP1 ADD PUSH1 0x1 ADD DUP6 SSTORE DUP3 ISZERO PUSH3 0x126 JUMPI SWAP2 DUP3 ADD JUMPDEST DUP3 DUP2 GT ISZERO PUSH3 0x125 JUMPI DUP3 MLOAD DUP3 SSTORE SWAP2 PUSH1 0x20 ADD SWAP2 SWAP1 PUSH1 0x1 ADD SWAP1 PUSH3 0x108 JUMP JUMPDEST JUMPDEST POP SWAP1 POP PUSH3 0x135 SWAP2 SWAP1 PUSH3 0x139 JUMP JUMPDEST POP SWAP1 JUMP JUMPDEST JUMPDEST DUP1 DUP3 GT ISZERO PUSH3 0x154 JUMPI PUSH1 0x0 DUP2 PUSH1 0x0 SWAP1 SSTORE POP PUSH1 0x1 ADD PUSH3 0x13A JUMP JUMPDEST POP SWAP1 JUMP JUMPDEST PUSH1 0x0 PUSH1 0x2 DUP3 DIV SWAP1 POP PUSH1 0x1 DUP3 AND DUP1 PUSH3 0x171 JUMPI PUSH1 0x7F DUP3 AND SWAP2 POP JUMPDEST PUSH1 0x20 DUP3 LT DUP2 EQ ISZERO PUSH3 0x188 JUMPI PUSH3 0x187 PUSH3 0x18E JUMP JUMPDEST JUMPDEST POP SWAP2 SWAP1 POP JUMP JUMPDEST PUSH32 0x4E487B7100000000000000000000000000000000000000000000000000000000 PUSH1 0x0 MSTORE PUSH1 0x22 PUSH1 0x4 MSTORE PUSH1 0x24 PUSH1 0x0 REVERT JUMPDEST PUSH2 0x1212 DUP1 PUSH3 0x1CD PUSH1 0x0 CODECOPY PUSH1 0x0 RETURN INVALID PUSH1 0x80 PUSH1 0x40 MSTORE CALLVALUE DUP1 ISZERO PUSH2 0x10 JUMPI PUSH1 0x0 DUP1 REVERT JUMPDEST POP PUSH1 0x4 CALLDATASIZE LT PUSH2 0x88 JUMPI PUSH1 0x0 CALLDATALOAD PUSH1 0xE0 SHR DUP1 PUSH4 0xE5D48F29 GT PUSH2 0x5B JUMPI DUP1 PUSH4 0xE5D48F29 EQ PUSH2 0x115 JUMPI DUP1 PUSH4 0xE6BCD1BE EQ PUSH2 0x147 JUMPI DUP1 PUSH4 0xEEA7E50C EQ PUSH2 0x165 JUMPI DUP1 PUSH4 0xFD52C650 EQ PUSH2 0x181 JUMPI PUSH2 0x88 JUMP JUMPDEST DUP1 PUSH4 0x5B18B243 EQ PUSH2 0x8D JUMPI DUP1 PUSH4 0x8DB72A2F EQ PUSH2 0xA9 JUMPI DUP1 PUSH4 0xB2BDFA7B EQ PUSH2 0xDB JUMPI DUP1 PUSH4 0xB73A3A7F EQ PUSH2 0xF9 JUMPI JUMPDEST PUSH1 0x0 DUP1 REVERT JUMPDEST PUSH2 0xA7 PUSH1 0x4 DUP1 CALLDATASIZE SUB DUP2 ADD SWAP1 PUSH2 0xA2 SWAP2 SWAP1 PUSH2 0xBF9 JUMP JUMPDEST PUSH2 0x19F JUMP JUMPDEST STOP JUMPDEST PUSH2 0xC3 PUSH1 0x4 DUP1 CALLDATASIZE SUB DUP2 ADD SWAP1 PUSH2 0xBE SWAP2 SWAP1 PUSH2 0xC4D JUMP JUMPDEST PUSH2 0x3D5 JUMP JUMPDEST PUSH1 0x40 MLOAD PUSH2 0xD2 SWAP4 SWAP3 SWAP2 SWAP1 PUSH2 0xEA6 JUMP JUMPDEST PUSH1 0x40 MLOAD DUP1 SWAP2 SUB SWAP1 RETURN JUMPDEST PUSH2 0xE3 PUSH2 0x4B3 JUMP JUMPDEST PUSH1 0x40 MLOAD PUSH2 0xF0 SWAP2 SWAP1 PUSH2 0xE0B JUMP JUMPDEST PUSH1 0x40 MLOAD DUP1 SWAP2 SUB SWAP1 RETURN JUMPDEST PUSH2 0x113 PUSH1 0x4 DUP1 CALLDATASIZE SUB DUP2 ADD SWAP1 PUSH2 0x10E SWAP2 SWAP1 PUSH2 0xC76 JUMP JUMPDEST PUSH2 0x4D7 JUMP JUMPDEST STOP JUMPDEST PUSH2 0x12F PUSH1 0x4 DUP1 CALLDATASIZE SUB DUP2 ADD SWAP1 PUSH2 0x12A SWAP2 SWAP1 PUSH2 0xC4D JUMP JUMPDEST PUSH2 0x5AC JUMP JUMPDEST PUSH1 0x40 MLOAD PUSH2 0x13E SWAP4 SWAP3 SWAP2 SWAP1 PUSH2 0xE48 JUMP JUMPDEST PUSH1 0x40 MLOAD DUP1 SWAP2 SUB SWAP1 RETURN JUMPDEST PUSH2 0x14F PUSH2 0x697 JUMP JUMPDEST PUSH1 0x40 MLOAD PUSH2 0x15C SWAP2 SWAP1 PUSH2 0xE26 JUMP JUMPDEST PUSH1 0x40 MLOAD DUP1 SWAP2 SUB SWAP1 RETURN JUMPDEST PUSH2 0x17F PUSH1 0x4 DUP1 CALLDATASIZE SUB DUP2 ADD SWAP1 PUSH2 0x17A SWAP2 SWAP1 PUSH2 0xB8D JUMP JUMPDEST PUSH2 0x725 JUMP JUMPDEST STOP JUMPDEST PUSH2 0x189 PUSH2 0x7E5 JUMP JUMPDEST PUSH1 0x40 MLOAD PUSH2 0x196 SWAP2 SWAP1 PUSH2 0xE26 JUMP JUMPDEST PUSH1 0x40 MLOAD DUP1 SWAP2 SUB SWAP1 RETURN JUMPDEST PUSH1 0x0 DUP1 SLOAD SWAP1 PUSH2 0x100 EXP SWAP1 DIV PUSH20 0xFFFFFFFFFFFFFFFFFFFFFFFFFFFFFFFFFFFFFFFF AND PUSH20 0xFFFFFFFFFFFFFFFFFFFFFFFFFFFFFFFFFFFFFFFF AND CALLER PUSH20 0xFFFFFFFFFFFFFFFFFFFFFFFFFFFFFFFFFFFFFFFF AND EQ PUSH2 0x22D JUMPI PUSH1 0x40 MLOAD PUSH32 0x8C379A000000000000000000000000000000000000000000000000000000000 DUP2 MSTORE PUSH1 0x4 ADD PUSH2 0x224 SWAP1 PUSH2 0xE86 JUMP JUMPDEST PUSH1 0x40 MLOAD DUP1 SWAP2 SUB SWAP1 REVERT JUMPDEST PUSH1 0x0 PUSH2 0x237 PUSH2 0xA0D JUMP JUMPDEST PUSH1 0x0 JUMPDEST PUSH1 0x3 DUP1 SLOAD SWAP1 POP DUP2 PUSH1 0xFF AND LT ISZERO PUSH2 0x2D1 JUMPI PUSH1 0x3 DUP2 PUSH1 0xFF AND DUP2 SLOAD DUP2 LT PUSH2 0x287 JUMPI PUSH32 0x4E487B7100000000000000000000000000000000000000000000000000000000 PUSH1 0x0 MSTORE PUSH1 0x32 PUSH1 0x4 MSTORE PUSH1 0x24 PUSH1 0x0 REVERT JUMPDEST SWAP1 PUSH1 0x0 MSTORE PUSH1 0x20 PUSH1 0x0 KECCAK256 SWAP1 PUSH1 0x2 MUL ADD PUSH1 0x0 ADD PUSH1 0x40 MLOAD PUSH2 0x2A5 SWAP2 SWAP1 PUSH2 0xDF4 JUMP JUMPDEST PUSH1 0x40 MLOAD DUP1 SWAP2 SUB SWAP1 KECCAK256 DUP6 DUP1 MLOAD SWAP1 PUSH1 0x20 ADD KECCAK256 EQ ISZERO PUSH2 0x2C0 JUMPI PUSH1 0x1 SWAP3 POP JUMPDEST DUP1 PUSH2 0x2CA SWAP1 PUSH2 0x1080 JUMP JUMPDEST SWAP1 POP PUSH2 0x23A JUMP JUMPDEST POP DUP2 PUSH2 0x3CF JUMPI DUP4 DUP2 PUSH1 0x0 ADD DUP2 SWAP1 MSTORE POP DUP3 DUP2 PUSH1 0x20 ADD SWAP1 PUSH1 0xFF AND SWAP1 DUP2 PUSH1 0xFF AND DUP2 MSTORE POP POP PUSH1 0x0 DUP2 PUSH1 0x40 ADD SWAP1 PUSH16 0xFFFFFFFFFFFFFFFFFFFFFFFFFFFFFFFF AND SWAP1 DUP2 PUSH16 0xFFFFFFFFFFFFFFFFFFFFFFFFFFFFFFFF AND DUP2 MSTORE POP POP PUSH1 0x3 DUP2 SWAP1 DUP1 PUSH1 0x1 DUP2 SLOAD ADD DUP1 DUP3 SSTORE DUP1 SWAP2 POP POP PUSH1 0x1 SWAP1 SUB SWAP1 PUSH1 0x0 MSTORE PUSH1 0x20 PUSH1 0x0 KECCAK256 SWAP1 PUSH1 0x2 MUL ADD PUSH1 0x0 SWAP1 SWAP2 SWAP1 SWAP2 SWAP1 SWAP2 POP PUSH1 0x0 DUP3 ADD MLOAD DUP2 PUSH1 0x0 ADD SWAP1 DUP1 MLOAD SWAP1 PUSH1 0x20 ADD SWAP1 PUSH2 0x36B SWAP3 SWAP2 SWAP1 PUSH2 0xA43 JUMP JUMPDEST POP PUSH1 0x20 DUP3 ADD MLOAD DUP2 PUSH1 0x1 ADD PUSH1 0x0 PUSH2 0x100 EXP DUP2 SLOAD DUP2 PUSH1 0xFF MUL NOT AND SWAP1 DUP4 PUSH1 0xFF AND MUL OR SWAP1 SSTORE POP PUSH1 0x40 DUP3 ADD MLOAD DUP2 PUSH1 0x1 ADD PUSH1 0x1 PUSH2 0x100 EXP DUP2 SLOAD DUP2 PUSH16 0xFFFFFFFFFFFFFFFFFFFFFFFFFFFFFFFF MUL NOT AND SWAP1 DUP4 PUSH16 0xFFFFFFFFFFFFFFFFFFFFFFFFFFFFFFFF AND MUL OR SWAP1 SSTORE POP POP POP JUMPDEST POP POP POP POP JUMP JUMPDEST PUSH1 0x4 DUP2 DUP2 SLOAD DUP2 LT PUSH2 0x3E5 JUMPI PUSH1 0x0 DUP1 REVERT JUMPDEST SWAP1 PUSH1 0x0 MSTORE PUSH1 0x20 PUSH1 0x0 KECCAK256 SWAP1 PUSH1 0x3 MUL ADD PUSH1 0x0 SWAP2 POP SWAP1 POP DUP1 PUSH1 0x0 ADD SLOAD SWAP1 DUP1 PUSH1 0x1 ADD DUP1 SLOAD PUSH2 0x40E SWAP1 PUSH2 0x101D JUMP JUMPDEST DUP1 PUSH1 0x1F ADD PUSH1 0x20 DUP1 SWAP2 DIV MUL PUSH1 0x20 ADD PUSH1 0x40 MLOAD SWAP1 DUP2 ADD PUSH1 0x40 MSTORE DUP1 SWAP3 SWAP2 SWAP1 DUP2 DUP2 MSTORE PUSH1 0x20 ADD DUP3 DUP1 SLOAD PUSH2 0x43A SWAP1 PUSH2 0x101D JUMP JUMPDEST DUP1 ISZERO PUSH2 0x487 JUMPI DUP1 PUSH1 0x1F LT PUSH2 0x45C JUMPI PUSH2 0x100 DUP1 DUP4 SLOAD DIV MUL DUP4 MSTORE SWAP2 PUSH1 0x20 ADD SWAP2 PUSH2 0x487 JUMP JUMPDEST DUP3 ADD SWAP2 SWAP1 PUSH1 0x0 MSTORE PUSH1 0x20 PUSH1 0x0 KECCAK256 SWAP1 JUMPDEST DUP2 SLOAD DUP2 MSTORE SWAP1 PUSH1 0x1 ADD SWAP1 PUSH1 0x20 ADD DUP1 DUP4 GT PUSH2 0x46A JUMPI DUP3 SWAP1 SUB PUSH1 0x1F AND DUP3 ADD SWAP2 JUMPDEST POP POP POP POP POP SWAP1 DUP1 PUSH1 0x2 ADD PUSH1 0x0 SWAP1 SLOAD SWAP1 PUSH2 0x100 EXP SWAP1 DIV PUSH16 0xFFFFFFFFFFFFFFFFFFFFFFFFFFFFFFFF AND SWAP1 POP DUP4 JUMP JUMPDEST PUSH1 0x0 DUP1 SLOAD SWAP1 PUSH2 0x100 EXP SWAP1 DIV PUSH20 0xFFFFFFFFFFFFFFFFFFFFFFFFFFFFFFFFFFFFFFFF AND DUP2 JUMP JUMPDEST PUSH1 0x0 PUSH1 0x40 MLOAD DUP1 PUSH1 0x60 ADD PUSH1 0x40 MSTORE DUP1 DUP6 DUP2 MSTORE PUSH1 0x20 ADD DUP5 DUP2 MSTORE PUSH1 0x20 ADD DUP4 PUSH16 0xFFFFFFFFFFFFFFFFFFFFFFFFFFFFFFFF AND DUP2 MSTORE POP SWAP1 POP PUSH2 0x512 DUP4 DUP4 PUSH2 0x873 JUMP JUMPDEST PUSH1 0x4 DUP2 SWAP1 DUP1 PUSH1 0x1 DUP2 SLOAD ADD DUP1 DUP3 SSTORE DUP1 SWAP2 POP POP PUSH1 0x1 SWAP1 SUB SWAP1 PUSH1 0x0 MSTORE PUSH1 0x20 PUSH1 0x0 KECCAK256 SWAP1 PUSH1 0x3 MUL ADD PUSH1 0x0 SWAP1 SWAP2 SWAP1 SWAP2 SWAP1 SWAP2 POP PUSH1 0x0 DUP3 ADD MLOAD DUP2 PUSH1 0x0 ADD SSTORE PUSH1 0x20 DUP3 ADD MLOAD DUP2 PUSH1 0x1 ADD SWAP1 DUP1 MLOAD SWAP1 PUSH1 0x20 ADD SWAP1 PUSH2 0x564 SWAP3 SWAP2 SWAP1 PUSH2 0xA43 JUMP JUMPDEST POP PUSH1 0x40 DUP3 ADD MLOAD DUP2 PUSH1 0x2 ADD PUSH1 0x0 PUSH2 0x100 EXP DUP2 SLOAD DUP2 PUSH16 0xFFFFFFFFFFFFFFFFFFFFFFFFFFFFFFFF MUL NOT AND SWAP1 DUP4 PUSH16 0xFFFFFFFFFFFFFFFFFFFFFFFFFFFFFFFF AND MUL OR SWAP1 SSTORE POP POP POP POP POP POP POP JUMP JUMPDEST PUSH1 0x3 DUP2 DUP2 SLOAD DUP2 LT PUSH2 0x5BC JUMPI PUSH1 0x0 DUP1 REVERT JUMPDEST SWAP1 PUSH1 0x0 MSTORE PUSH1 0x20 PUSH1 0x0 KECCAK256 SWAP1 PUSH1 0x2 MUL ADD PUSH1 0x0 SWAP2 POP SWAP1 POP DUP1 PUSH1 0x0 ADD DUP1 SLOAD PUSH2 0x5DF SWAP1 PUSH2 0x101D JUMP JUMPDEST DUP1 PUSH1 0x1F ADD PUSH1 0x20 DUP1 SWAP2 DIV MUL PUSH1 0x20 ADD PUSH1 0x40 MLOAD SWAP1 DUP2 ADD PUSH1 0x40 MSTORE DUP1 SWAP3 SWAP2 SWAP1 DUP2 DUP2 MSTORE PUSH1 0x20 ADD DUP3 DUP1 SLOAD PUSH2 0x60B SWAP1 PUSH2 0x101D JUMP JUMPDEST DUP1 ISZERO PUSH2 0x658 JUMPI DUP1 PUSH1 0x1F LT PUSH2 0x62D JUMPI PUSH2 0x100 DUP1 DUP4 SLOAD DIV MUL DUP4 MSTORE SWAP2 PUSH1 0x20 ADD SWAP2 PUSH2 0x658 JUMP JUMPDEST DUP3 ADD SWAP2 SWAP1 PUSH1 0x0 MSTORE PUSH1 0x20 PUSH1 0x0 KECCAK256 SWAP1 JUMPDEST DUP2 SLOAD DUP2 MSTORE SWAP1 PUSH1 0x1 ADD SWAP1 PUSH1 0x20 ADD DUP1 DUP4 GT PUSH2 0x63B JUMPI DUP3 SWAP1 SUB PUSH1 0x1F AND DUP3 ADD SWAP2 JUMPDEST POP POP POP POP POP SWAP1 DUP1 PUSH1 0x1 ADD PUSH1 0x0 SWAP1 SLOAD SWAP1 PUSH2 0x100 EXP SWAP1 DIV PUSH1 0xFF AND SWAP1 DUP1 PUSH1 0x1 ADD PUSH1 0x1 SWAP1 SLOAD SWAP1 PUSH2 0x100 EXP SWAP1 DIV PUSH16 0xFFFFFFFFFFFFFFFFFFFFFFFFFFFFFFFF AND SWAP1 POP DUP4 JUMP JUMPDEST PUSH1 0x1 DUP1 SLOAD PUSH2 0x6A4 SWAP1 PUSH2 0x101D JUMP JUMPDEST DUP1 PUSH1 0x1F ADD PUSH1 0x20 DUP1 SWAP2 DIV MUL PUSH1 0x20 ADD PUSH1 0x40 MLOAD SWAP1 DUP2 ADD PUSH1 0x40 MSTORE DUP1 SWAP3 SWAP2 SWAP1 DUP2 DUP2 MSTORE PUSH1 0x20 ADD DUP3 DUP1 SLOAD PUSH2 0x6D0 SWAP1 PUSH2 0x101D JUMP JUMPDEST DUP1 ISZERO PUSH2 0x71D JUMPI DUP1 PUSH1 0x1F LT PUSH2 0x6F2 JUMPI PUSH2 0x100 DUP1 DUP4 SLOAD DIV MUL DUP4 MSTORE SWAP2 PUSH1 0x20 ADD SWAP2 PUSH2 0x71D JUMP JUMPDEST DUP3 ADD SWAP2 SWAP1 PUSH1 0x0 MSTORE PUSH1 0x20 PUSH1 0x0 KECCAK256 SWAP1 JUMPDEST DUP2 SLOAD DUP2 MSTORE SWAP1 PUSH1 0x1 ADD SWAP1 PUSH1 0x20 ADD DUP1 DUP4 GT PUSH2 0x700 JUMPI DUP3 SWAP1 SUB PUSH1 0x1F AND DUP3 ADD SWAP2 JUMPDEST POP POP POP POP POP DUP2 JUMP JUMPDEST PUSH1 0x0 DUP1 SLOAD SWAP1 PUSH2 0x100 EXP SWAP1 DIV PUSH20 0xFFFFFFFFFFFFFFFFFFFFFFFFFFFFFFFFFFFFFFFF AND PUSH20 0xFFFFFFFFFFFFFFFFFFFFFFFFFFFFFFFFFFFFFFFF AND CALLER PUSH20 0xFFFFFFFFFFFFFFFFFFFFFFFFFFFFFFFFFFFFFFFF AND EQ PUSH2 0x7B3 JUMPI PUSH1 0x40 MLOAD PUSH32 0x8C379A000000000000000000000000000000000000000000000000000000000 DUP2 MSTORE PUSH1 0x4 ADD PUSH2 0x7AA SWAP1 PUSH2 0xE86 JUMP JUMPDEST PUSH1 0x40 MLOAD DUP1 SWAP2 SUB SWAP1 REVERT JUMPDEST DUP2 PUSH1 0x1 SWAP1 DUP1 MLOAD SWAP1 PUSH1 0x20 ADD SWAP1 PUSH2 0x7C9 SWAP3 SWAP2 SWAP1 PUSH2 0xA43 JUMP JUMPDEST POP DUP1 PUSH1 0x2 SWAP1 DUP1 MLOAD SWAP1 PUSH1 0x20 ADD SWAP1 PUSH2 0x7E0 SWAP3 SWAP2 SWAP1 PUSH2 0xA43 JUMP JUMPDEST POP POP POP JUMP JUMPDEST PUSH1 0x2 DUP1 SLOAD PUSH2 0x7F2 SWAP1 PUSH2 0x101D JUMP JUMPDEST DUP1 PUSH1 0x1F ADD PUSH1 0x20 DUP1 SWAP2 DIV MUL PUSH1 0x20 ADD PUSH1 0x40 MLOAD SWAP1 DUP2 ADD PUSH1 0x40 MSTORE DUP1 SWAP3 SWAP2 SWAP1 DUP2 DUP2 MSTORE PUSH1 0x20 ADD DUP3 DUP1 SLOAD PUSH2 0x81E SWAP1 PUSH2 0x101D JUMP JUMPDEST DUP1 ISZERO PUSH2 0x86B JUMPI DUP1 PUSH1 0x1F LT PUSH2 0x840 JUMPI PUSH2 0x100 DUP1 DUP4 SLOAD DIV MUL DUP4 MSTORE SWAP2 PUSH1 0x20 ADD SWAP2 PUSH2 0x86B JUMP JUMPDEST DUP3 ADD SWAP2 SWAP1 PUSH1 0x0 MSTORE PUSH1 0x20 PUSH1 0x0 KECCAK256 SWAP1 JUMPDEST DUP2 SLOAD DUP2 MSTORE SWAP1 PUSH1 0x1 ADD SWAP1 PUSH1 0x20 ADD DUP1 DUP4 GT PUSH2 0x84E JUMPI DUP3 SWAP1 SUB PUSH1 0x1F AND DUP3 ADD SWAP2 JUMPDEST POP POP POP POP POP DUP2 JUMP JUMPDEST PUSH1 0x0 PUSH2 0x87D PUSH2 0xA0D JUMP JUMPDEST PUSH1 0x0 JUMPDEST PUSH1 0x3 DUP1 SLOAD SWAP1 POP DUP2 PUSH1 0xFF AND LT ISZERO PUSH2 0x917 JUMPI PUSH1 0x3 DUP2 PUSH1 0xFF AND DUP2 SLOAD DUP2 LT PUSH2 0x8CD JUMPI PUSH32 0x4E487B7100000000000000000000000000000000000000000000000000000000 PUSH1 0x0 MSTORE PUSH1 0x32 PUSH1 0x4 MSTORE PUSH1 0x24 PUSH1 0x0 REVERT JUMPDEST SWAP1 PUSH1 0x0 MSTORE PUSH1 0x20 PUSH1 0x0 KECCAK256 SWAP1 PUSH1 0x2 MUL ADD PUSH1 0x0 ADD PUSH1 0x40 MLOAD PUSH2 0x8EB SWAP2 SWAP1 PUSH2 0xDF4 JUMP JUMPDEST PUSH1 0x40 MLOAD DUP1 SWAP2 SUB SWAP1 KECCAK256 DUP6 DUP1 MLOAD SWAP1 PUSH1 0x20 ADD KECCAK256 EQ ISZERO PUSH2 0x906 JUMPI PUSH1 0x1 SWAP3 POP JUMPDEST DUP1 PUSH2 0x910 SWAP1 PUSH2 0x1080 JUMP JUMPDEST SWAP1 POP PUSH2 0x880 JUMP JUMPDEST POP DUP2 PUSH2 0xA06 JUMPI DUP4 DUP2 PUSH1 0x0 ADD DUP2 SWAP1 MSTORE POP DUP3 DUP2 PUSH1 0x40 ADD SWAP1 PUSH16 0xFFFFFFFFFFFFFFFFFFFFFFFFFFFFFFFF AND SWAP1 DUP2 PUSH16 0xFFFFFFFFFFFFFFFFFFFFFFFFFFFFFFFF AND DUP2 MSTORE POP POP PUSH1 0x3 DUP2 SWAP1 DUP1 PUSH1 0x1 DUP2 SLOAD ADD DUP1 DUP3 SSTORE DUP1 SWAP2 POP POP PUSH1 0x1 SWAP1 SUB SWAP1 PUSH1 0x0 MSTORE PUSH1 0x20 PUSH1 0x0 KECCAK256 SWAP1 PUSH1 0x2 MUL ADD PUSH1 0x0 SWAP1 SWAP2 SWAP1 SWAP2 SWAP1 SWAP2 POP PUSH1 0x0 DUP3 ADD MLOAD DUP2 PUSH1 0x0 ADD SWAP1 DUP1 MLOAD SWAP1 PUSH1 0x20 ADD SWAP1 PUSH2 0x99E SWAP3 SWAP2 SWAP1 PUSH2 0xA43 JUMP JUMPDEST POP PUSH1 0x20 DUP3 ADD MLOAD DUP2 PUSH1 0x1 ADD PUSH1 0x0 PUSH2 0x100 EXP DUP2 SLOAD DUP2 PUSH1 0xFF MUL NOT AND SWAP1 DUP4 PUSH1 0xFF AND MUL OR SWAP1 SSTORE POP PUSH1 0x40 DUP3 ADD MLOAD DUP2 PUSH1 0x1 ADD PUSH1 0x1 PUSH2 0x100 EXP DUP2 SLOAD DUP2 PUSH16 0xFFFFFFFFFFFFFFFFFFFFFFFFFFFFFFFF MUL NOT AND SWAP1 DUP4 PUSH16 0xFFFFFFFFFFFFFFFFFFFFFFFFFFFFFFFF AND MUL OR SWAP1 SSTORE POP POP POP PUSH2 0xA07 JUMP JUMPDEST JUMPDEST POP POP POP POP JUMP JUMPDEST PUSH1 0x40 MLOAD DUP1 PUSH1 0x60 ADD PUSH1 0x40 MSTORE DUP1 PUSH1 0x60 DUP2 MSTORE PUSH1 0x20 ADD PUSH1 0x0 PUSH1 0xFF AND DUP2 MSTORE PUSH1 0x20 ADD PUSH1 0x0 PUSH16 0xFFFFFFFFFFFFFFFFFFFFFFFFFFFFFFFF AND DUP2 MSTORE POP SWAP1 JUMP JUMPDEST DUP3 DUP1 SLOAD PUSH2 0xA4F SWAP1 PUSH2 0x101D JUMP JUMPDEST SWAP1 PUSH1 0x0 MSTORE PUSH1 0x20 PUSH1 0x0 KECCAK256 SWAP1 PUSH1 0x1F ADD PUSH1 0x20 SWAP1 DIV DUP2 ADD SWAP3 DUP3 PUSH2 0xA71 JUMPI PUSH1 0x0 DUP6 SSTORE PUSH2 0xAB8 JUMP JUMPDEST DUP3 PUSH1 0x1F LT PUSH2 0xA8A JUMPI DUP1 MLOAD PUSH1 0xFF NOT AND DUP4 DUP1 ADD OR DUP6 SSTORE PUSH2 0xAB8 JUMP JUMPDEST DUP3 DUP1 ADD PUSH1 0x1 ADD DUP6 SSTORE DUP3 ISZERO PUSH2 0xAB8 JUMPI SWAP2 DUP3 ADD JUMPDEST DUP3 DUP2 GT ISZERO PUSH2 0xAB7 JUMPI DUP3 MLOAD DUP3 SSTORE SWAP2 PUSH1 0x20 ADD SWAP2 SWAP1 PUSH1 0x1 ADD SWAP1 PUSH2 0xA9C JUMP JUMPDEST JUMPDEST POP SWAP1 POP PUSH2 0xAC5 SWAP2 SWAP1 PUSH2 0xAC9 JUMP JUMPDEST POP SWAP1 JUMP JUMPDEST JUMPDEST DUP1 DUP3 GT ISZERO PUSH2 0xAE2 JUMPI PUSH1 0x0 DUP2 PUSH1 0x0 SWAP1 SSTORE POP PUSH1 0x1 ADD PUSH2 0xACA JUMP JUMPDEST POP SWAP1 JUMP JUMPDEST PUSH1 0x0 PUSH2 0xAF9 PUSH2 0xAF4 DUP5 PUSH2 0xF09 JUMP JUMPDEST PUSH2 0xEE4 JUMP JUMPDEST SWAP1 POP DUP3 DUP2 MSTORE PUSH1 0x20 DUP2 ADD DUP5 DUP5 DUP5 ADD GT ISZERO PUSH2 0xB11 JUMPI PUSH1 0x0 DUP1 REVERT JUMPDEST PUSH2 0xB1C DUP5 DUP3 DUP6 PUSH2 0xFDB JUMP JUMPDEST POP SWAP4 SWAP3 POP POP POP JUMP JUMPDEST PUSH1 0x0 DUP3 PUSH1 0x1F DUP4 ADD SLT PUSH2 0xB35 JUMPI PUSH1 0x0 DUP1 REVERT JUMPDEST DUP2 CALLDATALOAD PUSH2 0xB45 DUP5 DUP3 PUSH1 0x20 DUP7 ADD PUSH2 0xAE6 JUMP JUMPDEST SWAP2 POP POP SWAP3 SWAP2 POP POP JUMP JUMPDEST PUSH1 0x0 DUP2 CALLDATALOAD SWAP1 POP PUSH2 0xB5D DUP2 PUSH2 0x1197 JUMP JUMPDEST SWAP3 SWAP2 POP POP JUMP JUMPDEST PUSH1 0x0 DUP2 CALLDATALOAD SWAP1 POP PUSH2 0xB72 DUP2 PUSH2 0x11AE JUMP JUMPDEST SWAP3 SWAP2 POP POP JUMP JUMPDEST PUSH1 0x0 DUP2 CALLDATALOAD SWAP1 POP PUSH2 0xB87 DUP2 PUSH2 0x11C5 JUMP JUMPDEST SWAP3 SWAP2 POP POP JUMP JUMPDEST PUSH1 0x0 DUP1 PUSH1 0x40 DUP4 DUP6 SUB SLT ISZERO PUSH2 0xBA0 JUMPI PUSH1 0x0 DUP1 REVERT JUMPDEST PUSH1 0x0 DUP4 ADD CALLDATALOAD PUSH8 0xFFFFFFFFFFFFFFFF DUP2 GT ISZERO PUSH2 0xBBA JUMPI PUSH1 0x0 DUP1 REVERT JUMPDEST PUSH2 0xBC6 DUP6 DUP3 DUP7 ADD PUSH2 0xB24 JUMP JUMPDEST SWAP3 POP POP PUSH1 0x20 DUP4 ADD CALLDATALOAD PUSH8 0xFFFFFFFFFFFFFFFF DUP2 GT ISZERO PUSH2 0xBE3 JUMPI PUSH1 0x0 DUP1 REVERT JUMPDEST PUSH2 0xBEF DUP6 DUP3 DUP7 ADD PUSH2 0xB24 JUMP JUMPDEST SWAP2 POP POP SWAP3 POP SWAP3 SWAP1 POP JUMP JUMPDEST PUSH1 0x0 DUP1 PUSH1 0x40 DUP4 DUP6 SUB SLT ISZERO PUSH2 0xC0C JUMPI PUSH1 0x0 DUP1 REVERT JUMPDEST PUSH1 0x0 DUP4 ADD CALLDATALOAD PUSH8 0xFFFFFFFFFFFFFFFF DUP2 GT ISZERO PUSH2 0xC26 JUMPI PUSH1 0x0 DUP1 REVERT JUMPDEST PUSH2 0xC32 DUP6 DUP3 DUP7 ADD PUSH2 0xB24 JUMP JUMPDEST SWAP3 POP POP PUSH1 0x20 PUSH2 0xC43 DUP6 DUP3 DUP7 ADD PUSH2 0xB78 JUMP JUMPDEST SWAP2 POP POP SWAP3 POP SWAP3 SWAP1 POP JUMP JUMPDEST PUSH1 0x0 PUSH1 0x20 DUP3 DUP5 SUB SLT ISZERO PUSH2 0xC5F JUMPI PUSH1 0x0 DUP1 REVERT JUMPDEST PUSH1 0x0 PUSH2 0xC6D DUP5 DUP3 DUP6 ADD PUSH2 0xB63 JUMP JUMPDEST SWAP2 POP POP SWAP3 SWAP2 POP POP JUMP JUMPDEST PUSH1 0x0 DUP1 PUSH1 0x0 PUSH1 0x60 DUP5 DUP7 SUB SLT ISZERO PUSH2 0xC8B JUMPI PUSH1 0x0 DUP1 REVERT JUMPDEST PUSH1 0x0 PUSH2 0xC99 DUP7 DUP3 DUP8 ADD PUSH2 0xB63 JUMP JUMPDEST SWAP4 POP POP PUSH1 0x20 DUP5 ADD CALLDATALOAD PUSH8 0xFFFFFFFFFFFFFFFF DUP2 GT ISZERO PUSH2 0xCB6 JUMPI PUSH1 0x0 DUP1 REVERT JUMPDEST PUSH2 0xCC2 DUP7 DUP3 DUP8 ADD PUSH2 0xB24 JUMP JUMPDEST SWAP3 POP POP PUSH1 0x40 PUSH2 0xCD3 DUP7 DUP3 DUP8 ADD PUSH2 0xB4E JUMP JUMPDEST SWAP2 POP POP SWAP3 POP SWAP3 POP SWAP3 JUMP JUMPDEST PUSH2 0xCE6 DUP2 PUSH2 0xF76 JUMP JUMPDEST DUP3 MSTORE POP POP JUMP JUMPDEST PUSH1 0x0 DUP2 SLOAD PUSH2 0xCF9 DUP2 PUSH2 0x101D JUMP JUMPDEST PUSH2 0xD03 DUP2 DUP7 PUSH2 0xF5A JUMP JUMPDEST SWAP5 POP PUSH1 0x1 DUP3 AND PUSH1 0x0 DUP2 EQ PUSH2 0xD1E JUMPI PUSH1 0x1 DUP2 EQ PUSH2 0xD2F JUMPI PUSH2 0xD62 JUMP JUMPDEST PUSH1 0xFF NOT DUP4 AND DUP7 MSTORE DUP2 DUP7 ADD SWAP4 POP PUSH2 0xD62 JUMP JUMPDEST PUSH2 0xD38 DUP6 PUSH2 0xF3A JUMP JUMPDEST PUSH1 0x0 JUMPDEST DUP4 DUP2 LT ISZERO PUSH2 0xD5A JUMPI DUP2 SLOAD DUP2 DUP10 ADD MSTORE PUSH1 0x1 DUP3 ADD SWAP2 POP PUSH1 0x20 DUP2 ADD SWAP1 POP PUSH2 0xD3B JUMP JUMPDEST DUP4 DUP9 ADD SWAP6 POP POP POP JUMPDEST POP POP POP SWAP3 SWAP2 POP POP JUMP JUMPDEST PUSH1 0x0 PUSH2 0xD76 DUP3 PUSH2 0xF4F JUMP JUMPDEST PUSH2 0xD80 DUP2 DUP6 PUSH2 0xF65 JUMP JUMPDEST SWAP4 POP PUSH2 0xD90 DUP2 DUP6 PUSH1 0x20 DUP7 ADD PUSH2 0xFEA JUMP JUMPDEST PUSH2 0xD99 DUP2 PUSH2 0x1137 JUMP JUMPDEST DUP5 ADD SWAP2 POP POP SWAP3 SWAP2 POP POP JUMP JUMPDEST PUSH1 0x0 PUSH2 0xDB1 PUSH1 0x33 DUP4 PUSH2 0xF65 JUMP JUMPDEST SWAP2 POP PUSH2 0xDBC DUP3 PUSH2 0x1148 JUMP JUMPDEST PUSH1 0x40 DUP3 ADD SWAP1 POP SWAP2 SWAP1 POP JUMP JUMPDEST PUSH2 0xDD0 DUP2 PUSH2 0xF88 JUMP JUMPDEST DUP3 MSTORE POP POP JUMP JUMPDEST PUSH2 0xDDF DUP2 PUSH2 0xFC4 JUMP JUMPDEST DUP3 MSTORE POP POP JUMP JUMPDEST PUSH2 0xDEE DUP2 PUSH2 0xFCE JUMP JUMPDEST DUP3 MSTORE POP POP JUMP JUMPDEST PUSH1 0x0 PUSH2 0xE00 DUP3 DUP5 PUSH2 0xCEC JUMP JUMPDEST SWAP2 POP DUP2 SWAP1 POP SWAP3 SWAP2 POP POP JUMP JUMPDEST PUSH1 0x0 PUSH1 0x20 DUP3 ADD SWAP1 POP PUSH2 0xE20 PUSH1 0x0 DUP4 ADD DUP5 PUSH2 0xCDD JUMP JUMPDEST SWAP3 SWAP2 POP POP JUMP JUMPDEST PUSH1 0x0 PUSH1 0x20 DUP3 ADD SWAP1 POP DUP2 DUP2 SUB PUSH1 0x0 DUP4 ADD MSTORE PUSH2 0xE40 DUP2 DUP5 PUSH2 0xD6B JUMP JUMPDEST SWAP1 POP SWAP3 SWAP2 POP POP JUMP JUMPDEST PUSH1 0x0 PUSH1 0x60 DUP3 ADD SWAP1 POP DUP2 DUP2 SUB PUSH1 0x0 DUP4 ADD MSTORE PUSH2 0xE62 DUP2 DUP7 PUSH2 0xD6B JUMP JUMPDEST SWAP1 POP PUSH2 0xE71 PUSH1 0x20 DUP4 ADD DUP6 PUSH2 0xDE5 JUMP JUMPDEST PUSH2 0xE7E PUSH1 0x40 DUP4 ADD DUP5 PUSH2 0xDC7 JUMP JUMPDEST SWAP5 SWAP4 POP POP POP POP JUMP JUMPDEST PUSH1 0x0 PUSH1 0x20 DUP3 ADD SWAP1 POP DUP2 DUP2 SUB PUSH1 0x0 DUP4 ADD MSTORE PUSH2 0xE9F DUP2 PUSH2 0xDA4 JUMP JUMPDEST SWAP1 POP SWAP2 SWAP1 POP JUMP JUMPDEST PUSH1 0x0 PUSH1 0x60 DUP3 ADD SWAP1 POP PUSH2 0xEBB PUSH1 0x0 DUP4 ADD DUP7 PUSH2 0xDD6 JUMP JUMPDEST DUP2 DUP2 SUB PUSH1 0x20 DUP4 ADD MSTORE PUSH2 0xECD DUP2 DUP6 PUSH2 0xD6B JUMP JUMPDEST SWAP1 POP PUSH2 0xEDC PUSH1 0x40 DUP4 ADD DUP5 PUSH2 0xDC7 JUMP JUMPDEST SWAP5 SWAP4 POP POP POP POP JUMP JUMPDEST PUSH1 0x0 PUSH2 0xEEE PUSH2 0xEFF JUMP JUMPDEST SWAP1 POP PUSH2 0xEFA DUP3 DUP3 PUSH2 0x104F JUMP JUMPDEST SWAP2 SWAP1 POP JUMP JUMPDEST PUSH1 0x0 PUSH1 0x40 MLOAD SWAP1 POP SWAP1 JUMP JUMPDEST PUSH1 0x0 PUSH8 0xFFFFFFFFFFFFFFFF DUP3 GT ISZERO PUSH2 0xF24 JUMPI PUSH2 0xF23 PUSH2 0x1108 JUMP JUMPDEST JUMPDEST PUSH2 0xF2D DUP3 PUSH2 0x1137 JUMP JUMPDEST SWAP1 POP PUSH1 0x20 DUP2 ADD SWAP1 POP SWAP2 SWAP1 POP JUMP JUMPDEST PUSH1 0x0 DUP2 SWAP1 POP DUP2 PUSH1 0x0 MSTORE PUSH1 0x20 PUSH1 0x0 KECCAK256 SWAP1 POP SWAP2 SWAP1 POP JUMP JUMPDEST PUSH1 0x0 DUP2 MLOAD SWAP1 POP SWAP2 SWAP1 POP JUMP JUMPDEST PUSH1 0x0 DUP2 SWAP1 POP SWAP3 SWAP2 POP POP JUMP JUMPDEST PUSH1 0x0 DUP3 DUP3 MSTORE PUSH1 0x20 DUP3 ADD SWAP1 POP SWAP3 SWAP2 POP POP JUMP JUMPDEST PUSH1 0x0 PUSH2 0xF81 DUP3 PUSH2 0xFA4 JUMP JUMPDEST SWAP1 POP SWAP2 SWAP1 POP JUMP JUMPDEST PUSH1 0x0 PUSH16 0xFFFFFFFFFFFFFFFFFFFFFFFFFFFFFFFF DUP3 AND SWAP1 POP SWAP2 SWAP1 POP JUMP JUMPDEST PUSH1 0x0 PUSH20 0xFFFFFFFFFFFFFFFFFFFFFFFFFFFFFFFFFFFFFFFF DUP3 AND SWAP1 POP SWAP2 SWAP1 POP JUMP JUMPDEST PUSH1 0x0 DUP2 SWAP1 POP SWAP2 SWAP1 POP JUMP JUMPDEST PUSH1 0x0 PUSH1 0xFF DUP3 AND SWAP1 POP SWAP2 SWAP1 POP JUMP JUMPDEST DUP3 DUP2 DUP4 CALLDATACOPY PUSH1 0x0 DUP4 DUP4 ADD MSTORE POP POP POP JUMP JUMPDEST PUSH1 0x0 JUMPDEST DUP4 DUP2 LT ISZERO PUSH2 0x1008 JUMPI DUP1 DUP3 ADD MLOAD DUP2 DUP5 ADD MSTORE PUSH1 0x20 DUP2 ADD SWAP1 POP PUSH2 0xFED JUMP JUMPDEST DUP4 DUP2 GT ISZERO PUSH2 0x1017 JUMPI PUSH1 0x0 DUP5 DUP5 ADD MSTORE JUMPDEST POP POP POP POP JUMP JUMPDEST PUSH1 0x0 PUSH1 0x2 DUP3 DIV SWAP1 POP PUSH1 0x1 DUP3 AND DUP1 PUSH2 0x1035 JUMPI PUSH1 0x7F DUP3 AND SWAP2 POP JUMPDEST PUSH1 0x20 DUP3 LT DUP2 EQ ISZERO PUSH2 0x1049 JUMPI PUSH2 0x1048 PUSH2 0x10D9 JUMP JUMPDEST JUMPDEST POP SWAP2 SWAP1 POP JUMP JUMPDEST PUSH2 0x1058 DUP3 PUSH2 0x1137 JUMP JUMPDEST DUP2 ADD DUP2 DUP2 LT PUSH8 0xFFFFFFFFFFFFFFFF DUP3 GT OR ISZERO PUSH2 0x1077 JUMPI PUSH2 0x1076 PUSH2 0x1108 JUMP JUMPDEST JUMPDEST DUP1 PUSH1 0x40 MSTORE POP POP POP JUMP JUMPDEST PUSH1 0x0 PUSH2 0x108B DUP3 PUSH2 0xFCE JUMP JUMPDEST SWAP2 POP PUSH1 0xFF DUP3 EQ ISZERO PUSH2 0x109F JUMPI PUSH2 0x109E PUSH2 0x10AA JUMP JUMPDEST JUMPDEST PUSH1 0x1 DUP3 ADD SWAP1 POP SWAP2 SWAP1 POP JUMP JUMPDEST PUSH32 0x4E487B7100000000000000000000000000000000000000000000000000000000 PUSH1 0x0 MSTORE PUSH1 0x11 PUSH1 0x4 MSTORE PUSH1 0x24 PUSH1 0x0 REVERT JUMPDEST PUSH32 0x4E487B7100000000000000000000000000000000000000000000000000000000 PUSH1 0x0 MSTORE PUSH1 0x22 PUSH1 0x4 MSTORE PUSH1 0x24 PUSH1 0x0 REVERT JUMPDEST PUSH32 0x4E487B7100000000000000000000000000000000000000000000000000000000 PUSH1 0x0 MSTORE PUSH1 0x41 PUSH1 0x4 MSTORE PUSH1 0x24 PUSH1 0x0 REVERT JUMPDEST PUSH1 0x0 PUSH1 0x1F NOT PUSH1 0x1F DUP4 ADD AND SWAP1 POP SWAP2 SWAP1 POP JUMP JUMPDEST PUSH32 0x546869732066756E6374696F6E206973207265737472696374656420746F2074 PUSH1 0x0 DUP3 ADD MSTORE PUSH32 0x686520636F6E74726163742773206F776E657200000000000000000000000000 PUSH1 0x20 DUP3 ADD MSTORE POP JUMP JUMPDEST PUSH2 0x11A0 DUP2 PUSH2 0xF88 JUMP JUMPDEST DUP2 EQ PUSH2 0x11AB JUMPI PUSH1 0x0 DUP1 REVERT JUMPDEST POP JUMP JUMPDEST PUSH2 0x11B7 DUP2 PUSH2 0xFC4 JUMP JUMPDEST DUP2 EQ PUSH2 0x11C2 JUMPI PUSH1 0x0 DUP1 REVERT JUMPDEST POP JUMP JUMPDEST PUSH2 0x11CE DUP2 PUSH2 0xFCE JUMP JUMPDEST DUP2 EQ PUSH2 0x11D9 JUMPI PUSH1 0x0 DUP1 REVERT JUMPDEST POP JUMP INVALID LOG2 PUSH5 0x6970667358 0x22 SLT KECCAK256 GASLIMIT SWAP3 JUMP 0x49 0xAD PUSH1 0xAE 0xE1 0xCA PUSH31 0xE028FD55F0D55960944E21D5E4AB4DCC7E944A8C458564736F6C6343000804 STOP CALLER "
		},
		"gasEstimates": {
			"creation": {
				"codeDepositCost": "925200",
				"executionCost": "infinite",
				"totalCost": "infinite"
			},
			"external": {
				"RegisterNewHoneyTypeInProcessor(string,uint8)": "infinite",
				"TransferHoneyFromAcqCenterToProcessor(uint256,string,uint128)": "infinite",
				"UpdateProcessorInfo(string,string)": "infinite",
				"_owner()": "1256",
				"_processorLocation_str()": "infinite",
				"_processorName_str()": "infinite",
				"honeyTypesWithPriceEvidence(uint256)": "infinite",
				"receivedAcquisitionCenterHoneyEvidence(uint256)": "infinite"
			},
			"internal": {
				"RegisterHoneyTypeInProcessorFromAcqCenter(string memory,uint128)": "infinite"
			}
		},
		"methodIdentifiers": {
			"RegisterNewHoneyTypeInProcessor(string,uint8)": "5b18b243",
			"TransferHoneyFromAcqCenterToProcessor(uint256,string,uint128)": "b73a3a7f",
			"UpdateProcessorInfo(string,string)": "eea7e50c",
			"_owner()": "b2bdfa7b",
			"_processorLocation_str()": "fd52c650",
			"_processorName_str()": "e6bcd1be",
			"honeyTypesWithPriceEvidence(uint256)": "e5d48f29",
			"receivedAcquisitionCenterHoneyEvidence(uint256)": "8db72a2f"
		}
	},
	"abi": [
		{
			"inputs": [],
			"stateMutability": "nonpayable",
			"type": "constructor"
		},
		{
			"inputs": [
				{
					"internalType": "string",
					"name": "honeyType",
					"type": "string"
				},
				{
					"internalType": "uint8",
					"name": "price",
					"type": "uint8"
				}
			],
			"name": "RegisterNewHoneyTypeInProcessor",
			"outputs": [],
			"stateMutability": "nonpayable",
			"type": "function"
		},
		{
			"inputs": [
				{
					"internalType": "uint256",
					"name": "acquisitionCenterHoneyUID",
					"type": "uint256"
				},
				{
					"internalType": "string",
					"name": "honeyType",
					"type": "string"
				},
				{
					"internalType": "uint128",
					"name": "quantity",
					"type": "uint128"
				}
			],
			"name": "TransferHoneyFromAcqCenterToProcessor",
			"outputs": [],
			"stateMutability": "nonpayable",
			"type": "function"
		},
		{
			"inputs": [
				{
					"internalType": "string",
					"name": "processorName_str",
					"type": "string"
				},
				{
					"internalType": "string",
					"name": "processorLocation_str",
					"type": "string"
				}
			],
			"name": "UpdateProcessorInfo",
			"outputs": [],
			"stateMutability": "nonpayable",
			"type": "function"
		},
		{
			"inputs": [],
			"name": "_owner",
			"outputs": [
				{
					"internalType": "address",
					"name": "",
					"type": "address"
				}
			],
			"stateMutability": "view",
			"type": "function"
		},
		{
			"inputs": [],
			"name": "_processorLocation_str",
			"outputs": [
				{
					"internalType": "string",
					"name": "",
					"type": "string"
				}
			],
			"stateMutability": "view",
			"type": "function"
		},
		{
			"inputs": [],
			"name": "_processorName_str",
			"outputs": [
				{
					"internalType": "string",
					"name": "",
					"type": "string"
				}
			],
			"stateMutability": "view",
			"type": "function"
		},
		{
			"inputs": [
				{
					"internalType": "uint256",
					"name": "",
					"type": "uint256"
				}
			],
			"name": "honeyTypesWithPriceEvidence",
			"outputs": [
				{
					"internalType": "string",
					"name": "honeyType_str",
					"type": "string"
				},
				{
					"internalType": "uint8",
					"name": "pricePerKg_uint",
					"type": "uint8"
				},
				{
					"internalType": "uint128",
					"name": "quantity_uint",
					"type": "uint128"
				}
			],
			"stateMutability": "view",
			"type": "function"
		},
		{
			"inputs": [
				{
					"internalType": "uint256",
					"name": "",
					"type": "uint256"
				}
			],
			"name": "receivedAcquisitionCenterHoneyEvidence",
			"outputs": [
				{
					"internalType": "uint256",
					"name": "acquisitionCenterHoneyUID_uint",
					"type": "uint256"
				},
				{
					"internalType": "string",
					"name": "honeyType_str",
					"type": "string"
				},
				{
					"internalType": "uint128",
					"name": "quantity_uint",
					"type": "uint128"
				}
			],
			"stateMutability": "view",
			"type": "function"
		}
	]
}