{
	"data": {
		"bytecode": {
			"linkReferences": {},
			"object": "608060405260008060146101000a81548161ffff021916908361ffff16021790555060008060166101000a81548161ffff021916908361ffff160217905550604051806020016040528060008152506001908051906020019062000065929190620000e2565b5060405180602001604052806000815250600290805190602001906200008d929190620000e2565b503480156200009b57600080fd5b50336000806101000a81548173ffffffffffffffffffffffffffffffffffffffff021916908373ffffffffffffffffffffffffffffffffffffffff160217905550620001f7565b828054620000f09062000192565b90600052602060002090601f01602090048101928262000114576000855562000160565b82601f106200012f57805160ff191683800117855562000160565b8280016001018555821562000160579182015b828111156200015f57825182559160200191906001019062000142565b5b5090506200016f919062000173565b5090565b5b808211156200018e57600081600090555060010162000174565b5090565b60006002820490506001821680620001ab57607f821691505b60208210811415620001c257620001c1620001c8565b5b50919050565b7f4e487b7100000000000000000000000000000000000000000000000000000000600052602260045260246000fd5b61139280620002076000396000f3fe608060405234801561001057600080fd5b50600436106100935760003560e01c80636e122151116100665780636e122151146100fa57806393c42ca914610118578063b2bdfa7b14610136578063dd107dca14610154578063f18a02c61461017057610093565b8063049139361461009857806319d7ae35146100b657806325f4525f146100d2578063594e568e146100f0575b600080fd5b6100a06101a8565b6040516100ad9190610f0e565b60405180910390f35b6100d060048036038101906100cb9190610c4e565b610236565b005b6100da6102f6565b6040516100e79190610f0e565b60405180910390f35b6100f8610384565b005b6101026103c0565b60405161010f9190611000565b60405180910390f35b6101206103d4565b60405161012d9190611000565b60405180910390f35b61013e6103e8565b60405161014b9190610ec3565b60405180910390f35b61016e60048036038101906101699190610b35565b61040c565b005b61018a60048036038101906101859190610b08565b6106a1565b60405161019f99989796959493929190610f50565b60405180910390f35b600180546101b5906111e1565b80601f01602080910402602001604051908101604052809291908181526020018280546101e1906111e1565b801561022e5780601f106102035761010080835404028352916020019161022e565b820191906000526020600020905b81548152906001019060200180831161021157829003601f168201915b505050505081565b60008054906101000a900473ffffffffffffffffffffffffffffffffffffffff1673ffffffffffffffffffffffffffffffffffffffff163373ffffffffffffffffffffffffffffffffffffffff16146102c4576040517f08c379a00000000000000000000000000000000000000000000000000000000081526004016102bb90610f30565b60405180910390fd5b81600190805190602001906102da9291906109e0565b5080600290805190602001906102f19291906109e0565b505050565b60028054610303906111e1565b80601f016020809104026020016040519081016040528092919081815260200182805461032f906111e1565b801561037c5780601f106103515761010080835404028352916020019161037c565b820191906000526020600020905b81548152906001019060200180831161035f57829003601f168201915b505050505081565b6001600060168282829054906101000a900461ffff166103a4919061109e565b92506101000a81548161ffff021916908361ffff160217905550565b600060169054906101000a900461ffff1681565b600060149054906101000a900461ffff1681565b60008054906101000a900473ffffffffffffffffffffffffffffffffffffffff1681565b6000604051806101200160405280600060149054906101000a900461ffff1661ffff166fffffffffffffffffffffffffffffffff1681526020018873ffffffffffffffffffffffffffffffffffffffff168152602001878152602001868152602001858152602001848152602001838152602001600c60ff1681526020016301e133804261049a91906110d6565b815250905080600360003373ffffffffffffffffffffffffffffffffffffffff1673ffffffffffffffffffffffffffffffffffffffff16815260200190815260200160002060008201518160000160006101000a8154816fffffffffffffffffffffffffffffffff02191690836fffffffffffffffffffffffffffffffff16021790555060208201518160010160006101000a81548173ffffffffffffffffffffffffffffffffffffffff021916908373ffffffffffffffffffffffffffffffffffffffff16021790555060408201518160020190805190602001906105819291906109e0565b50606082015181600301908051906020019061059e9291906109e0565b5060808201518160040190805190602001906105bb9291906109e0565b5060a08201518160050190805190602001906105d89291906109e0565b5060c08201518160060190805190602001906105f59291906109e0565b5060e08201518160070160006101000a81548160ff021916908360ff16021790555061010082015181600801559050506001600060148282829054906101000a900461ffff16610645919061109e565b92506101000a81548161ffff021916908361ffff1602179055507f2fcfb316e39da5b742b77c48250753017a74aa73f7d29a892660d4a6d044a0938782604051610690929190610ede565b60405180910390a150505050505050565b60036020528060005260406000206000915090508060000160009054906101000a90046fffffffffffffffffffffffffffffffff16908060010160009054906101000a900473ffffffffffffffffffffffffffffffffffffffff169080600201805461070c906111e1565b80601f0160208091040260200160405190810160405280929190818152602001828054610738906111e1565b80156107855780601f1061075a57610100808354040283529160200191610785565b820191906000526020600020905b81548152906001019060200180831161076857829003601f168201915b50505050509080600301805461079a906111e1565b80601f01602080910402602001604051908101604052809291908181526020018280546107c6906111e1565b80156108135780601f106107e857610100808354040283529160200191610813565b820191906000526020600020905b8154815290600101906020018083116107f657829003601f168201915b505050505090806004018054610828906111e1565b80601f0160208091040260200160405190810160405280929190818152602001828054610854906111e1565b80156108a15780601f10610876576101008083540402835291602001916108a1565b820191906000526020600020905b81548152906001019060200180831161088457829003601f168201915b5050505050908060050180546108b6906111e1565b80601f01602080910402602001604051908101604052809291908181526020018280546108e2906111e1565b801561092f5780601f106109045761010080835404028352916020019161092f565b820191906000526020600020905b81548152906001019060200180831161091257829003601f168201915b505050505090806006018054610944906111e1565b80601f0160208091040260200160405190810160405280929190818152602001828054610970906111e1565b80156109bd5780601f10610992576101008083540402835291602001916109bd565b820191906000526020600020905b8154815290600101906020018083116109a057829003601f168201915b5050505050908060070160009054906101000a900460ff16908060080154905089565b8280546109ec906111e1565b90600052602060002090601f016020900481019282610a0e5760008555610a55565b82601f10610a2757805160ff1916838001178555610a55565b82800160010185558215610a55579182015b82811115610a54578251825591602001919060010190610a39565b5b509050610a629190610a66565b5090565b5b80821115610a7f576000816000905550600101610a67565b5090565b6000610a96610a9184611040565b61101b565b905082815260208101848484011115610ab257610ab16112d6565b5b610abd84828561119f565b509392505050565b600081359050610ad481611345565b92915050565b600082601f830112610aef57610aee6112d1565b5b8135610aff848260208601610a83565b91505092915050565b600060208284031215610b1e57610b1d6112e0565b5b6000610b2c84828501610ac5565b91505092915050565b60008060008060008060c08789031215610b5257610b516112e0565b5b6000610b6089828a01610ac5565b965050602087013567ffffffffffffffff811115610b8157610b806112db565b5b610b8d89828a01610ada565b955050604087013567ffffffffffffffff811115610bae57610bad6112db565b5b610bba89828a01610ada565b945050606087013567ffffffffffffffff811115610bdb57610bda6112db565b5b610be789828a01610ada565b935050608087013567ffffffffffffffff811115610c0857610c076112db565b5b610c1489828a01610ada565b92505060a087013567ffffffffffffffff811115610c3557610c346112db565b5b610c4189828a01610ada565b9150509295509295509295565b60008060408385031215610c6557610c646112e0565b5b600083013567ffffffffffffffff811115610c8357610c826112db565b5b610c8f85828601610ada565b925050602083013567ffffffffffffffff811115610cb057610caf6112db565b5b610cbc85828601610ada565b9150509250929050565b610ccf8161112c565b82525050565b610cde8161112c565b82525050565b6000610cef82611071565b610cf9818561107c565b9350610d098185602086016111ae565b610d12816112e5565b840191505092915050565b6000610d2882611071565b610d32818561108d565b9350610d428185602086016111ae565b610d4b816112e5565b840191505092915050565b6000610d6360338361108d565b9150610d6e826112f6565b604082019050919050565b600061012083016000830151610d926000860182610e5a565b506020830151610da56020860182610cc6565b5060408301518482036040860152610dbd8282610ce4565b91505060608301518482036060860152610dd78282610ce4565b91505060808301518482036080860152610df18282610ce4565b91505060a083015184820360a0860152610e0b8282610ce4565b91505060c083015184820360c0860152610e258282610ce4565b91505060e0830151610e3a60e0860182610ea5565b50610100830151610e4f610100860182610e87565b508091505092915050565b610e638161113e565b82525050565b610e728161113e565b82525050565b610e818161115a565b82525050565b610e9081611188565b82525050565b610e9f81611188565b82525050565b610eae81611192565b82525050565b610ebd81611192565b82525050565b6000602082019050610ed86000830184610cd5565b92915050565b6000604082019050610ef36000830185610cd5565b8181036020830152610f058184610d79565b90509392505050565b60006020820190508181036000830152610f288184610d1d565b905092915050565b60006020820190508181036000830152610f4981610d56565b9050919050565b600061012082019050610f66600083018c610e69565b610f73602083018b610cd5565b8181036040830152610f85818a610d1d565b90508181036060830152610f998189610d1d565b90508181036080830152610fad8188610d1d565b905081810360a0830152610fc18187610d1d565b905081810360c0830152610fd58186610d1d565b9050610fe460e0830185610eb4565b610ff2610100830184610e96565b9a9950505050505050505050565b60006020820190506110156000830184610e78565b92915050565b6000611025611036565b90506110318282611213565b919050565b6000604051905090565b600067ffffffffffffffff82111561105b5761105a6112a2565b5b611064826112e5565b9050602081019050919050565b600081519050919050565b600082825260208201905092915050565b600082825260208201905092915050565b60006110a98261115a565b91506110b48361115a565b92508261ffff038211156110cb576110ca611244565b5b828201905092915050565b60006110e182611188565b91506110ec83611188565b9250827fffffffffffffffffffffffffffffffffffffffffffffffffffffffffffffffff0382111561112157611120611244565b5b828201905092915050565b600061113782611168565b9050919050565b60006fffffffffffffffffffffffffffffffff82169050919050565b600061ffff82169050919050565b600073ffffffffffffffffffffffffffffffffffffffff82169050919050565b6000819050919050565b600060ff82169050919050565b82818337600083830152505050565b60005b838110156111cc5780820151818401526020810190506111b1565b838111156111db576000848401525b50505050565b600060028204905060018216806111f957607f821691505b6020821081141561120d5761120c611273565b5b50919050565b61121c826112e5565b810181811067ffffffffffffffff8211171561123b5761123a6112a2565b5b80604052505050565b7f4e487b7100000000000000000000000000000000000000000000000000000000600052601160045260246000fd5b7f4e487b7100000000000000000000000000000000000000000000000000000000600052602260045260246000fd5b7f4e487b7100000000000000000000000000000000000000000000000000000000600052604160045260246000fd5b600080fd5b600080fd5b600080fd5b600080fd5b6000601f19601f8301169050919050565b7f546869732066756e6374696f6e206973207265737472696374656420746f207460008201527f686520636f6e74726163742773206f776e657200000000000000000000000000602082015250565b61134e8161112c565b811461135957600080fd5b5056fea264697066735822122054922cf503f421a7ea4b09e3faa6743519de1521c5a3418439f072756f39384b64736f6c63430008070033",
			"opcodes": "PUSH1 0x80 PUSH1 0x40 MSTORE PUSH1 0x0 DUP1 PUSH1 0x14 PUSH2 0x100 EXP DUP2 SLOAD DUP2 PUSH2 0xFFFF MUL NOT AND SWAP1 DUP4 PUSH2 0xFFFF AND MUL OR SWAP1 SSTORE POP PUSH1 0x0 DUP1 PUSH1 0x16 PUSH2 0x100 EXP DUP2 SLOAD DUP2 PUSH2 0xFFFF MUL NOT AND SWAP1 DUP4 PUSH2 0xFFFF AND MUL OR SWAP1 SSTORE POP PUSH1 0x40 MLOAD DUP1 PUSH1 0x20 ADD PUSH1 0x40 MSTORE DUP1 PUSH1 0x0 DUP2 MSTORE POP PUSH1 0x1 SWAP1 DUP1 MLOAD SWAP1 PUSH1 0x20 ADD SWAP1 PUSH3 0x65 SWAP3 SWAP2 SWAP1 PUSH3 0xE2 JUMP JUMPDEST POP PUSH1 0x40 MLOAD DUP1 PUSH1 0x20 ADD PUSH1 0x40 MSTORE DUP1 PUSH1 0x0 DUP2 MSTORE POP PUSH1 0x2 SWAP1 DUP1 MLOAD SWAP1 PUSH1 0x20 ADD SWAP1 PUSH3 0x8D SWAP3 SWAP2 SWAP1 PUSH3 0xE2 JUMP JUMPDEST POP CALLVALUE DUP1 ISZERO PUSH3 0x9B JUMPI PUSH1 0x0 DUP1 REVERT JUMPDEST POP CALLER PUSH1 0x0 DUP1 PUSH2 0x100 EXP DUP2 SLOAD DUP2 PUSH20 0xFFFFFFFFFFFFFFFFFFFFFFFFFFFFFFFFFFFFFFFF MUL NOT AND SWAP1 DUP4 PUSH20 0xFFFFFFFFFFFFFFFFFFFFFFFFFFFFFFFFFFFFFFFF AND MUL OR SWAP1 SSTORE POP PUSH3 0x1F7 JUMP JUMPDEST DUP3 DUP1 SLOAD PUSH3 0xF0 SWAP1 PUSH3 0x192 JUMP JUMPDEST SWAP1 PUSH1 0x0 MSTORE PUSH1 0x20 PUSH1 0x0 KECCAK256 SWAP1 PUSH1 0x1F ADD PUSH1 0x20 SWAP1 DIV DUP2 ADD SWAP3 DUP3 PUSH3 0x114 JUMPI PUSH1 0x0 DUP6 SSTORE PUSH3 0x160 JUMP JUMPDEST DUP3 PUSH1 0x1F LT PUSH3 0x12F JUMPI DUP1 MLOAD PUSH1 0xFF NOT AND DUP4 DUP1 ADD OR DUP6 SSTORE PUSH3 0x160 JUMP JUMPDEST DUP3 DUP1 ADD PUSH1 0x1 ADD DUP6 SSTORE DUP3 ISZERO PUSH3 0x160 JUMPI SWAP2 DUP3 ADD JUMPDEST DUP3 DUP2 GT ISZERO PUSH3 0x15F JUMPI DUP3 MLOAD DUP3 SSTORE SWAP2 PUSH1 0x20 ADD SWAP2 SWAP1 PUSH1 0x1 ADD SWAP1 PUSH3 0x142 JUMP JUMPDEST JUMPDEST POP SWAP1 POP PUSH3 0x16F SWAP2 SWAP1 PUSH3 0x173 JUMP JUMPDEST POP SWAP1 JUMP JUMPDEST JUMPDEST DUP1 DUP3 GT ISZERO PUSH3 0x18E JUMPI PUSH1 0x0 DUP2 PUSH1 0x0 SWAP1 SSTORE POP PUSH1 0x1 ADD PUSH3 0x174 JUMP JUMPDEST POP SWAP1 JUMP JUMPDEST PUSH1 0x0 PUSH1 0x2 DUP3 DIV SWAP1 POP PUSH1 0x1 DUP3 AND DUP1 PUSH3 0x1AB JUMPI PUSH1 0x7F DUP3 AND SWAP2 POP JUMPDEST PUSH1 0x20 DUP3 LT DUP2 EQ ISZERO PUSH3 0x1C2 JUMPI PUSH3 0x1C1 PUSH3 0x1C8 JUMP JUMPDEST JUMPDEST POP SWAP2 SWAP1 POP JUMP JUMPDEST PUSH32 0x4E487B7100000000000000000000000000000000000000000000000000000000 PUSH1 0x0 MSTORE PUSH1 0x22 PUSH1 0x4 MSTORE PUSH1 0x24 PUSH1 0x0 REVERT JUMPDEST PUSH2 0x1392 DUP1 PUSH3 0x207 PUSH1 0x0 CODECOPY PUSH1 0x0 RETURN INVALID PUSH1 0x80 PUSH1 0x40 MSTORE CALLVALUE DUP1 ISZERO PUSH2 0x10 JUMPI PUSH1 0x0 DUP1 REVERT JUMPDEST POP PUSH1 0x4 CALLDATASIZE LT PUSH2 0x93 JUMPI PUSH1 0x0 CALLDATALOAD PUSH1 0xE0 SHR DUP1 PUSH4 0x6E122151 GT PUSH2 0x66 JUMPI DUP1 PUSH4 0x6E122151 EQ PUSH2 0xFA JUMPI DUP1 PUSH4 0x93C42CA9 EQ PUSH2 0x118 JUMPI DUP1 PUSH4 0xB2BDFA7B EQ PUSH2 0x136 JUMPI DUP1 PUSH4 0xDD107DCA EQ PUSH2 0x154 JUMPI DUP1 PUSH4 0xF18A02C6 EQ PUSH2 0x170 JUMPI PUSH2 0x93 JUMP JUMPDEST DUP1 PUSH4 0x4913936 EQ PUSH2 0x98 JUMPI DUP1 PUSH4 0x19D7AE35 EQ PUSH2 0xB6 JUMPI DUP1 PUSH4 0x25F4525F EQ PUSH2 0xD2 JUMPI DUP1 PUSH4 0x594E568E EQ PUSH2 0xF0 JUMPI JUMPDEST PUSH1 0x0 DUP1 REVERT JUMPDEST PUSH2 0xA0 PUSH2 0x1A8 JUMP JUMPDEST PUSH1 0x40 MLOAD PUSH2 0xAD SWAP2 SWAP1 PUSH2 0xF0E JUMP JUMPDEST PUSH1 0x40 MLOAD DUP1 SWAP2 SUB SWAP1 RETURN JUMPDEST PUSH2 0xD0 PUSH1 0x4 DUP1 CALLDATASIZE SUB DUP2 ADD SWAP1 PUSH2 0xCB SWAP2 SWAP1 PUSH2 0xC4E JUMP JUMPDEST PUSH2 0x236 JUMP JUMPDEST STOP JUMPDEST PUSH2 0xDA PUSH2 0x2F6 JUMP JUMPDEST PUSH1 0x40 MLOAD PUSH2 0xE7 SWAP2 SWAP1 PUSH2 0xF0E JUMP JUMPDEST PUSH1 0x40 MLOAD DUP1 SWAP2 SUB SWAP1 RETURN JUMPDEST PUSH2 0xF8 PUSH2 0x384 JUMP JUMPDEST STOP JUMPDEST PUSH2 0x102 PUSH2 0x3C0 JUMP JUMPDEST PUSH1 0x40 MLOAD PUSH2 0x10F SWAP2 SWAP1 PUSH2 0x1000 JUMP JUMPDEST PUSH1 0x40 MLOAD DUP1 SWAP2 SUB SWAP1 RETURN JUMPDEST PUSH2 0x120 PUSH2 0x3D4 JUMP JUMPDEST PUSH1 0x40 MLOAD PUSH2 0x12D SWAP2 SWAP1 PUSH2 0x1000 JUMP JUMPDEST PUSH1 0x40 MLOAD DUP1 SWAP2 SUB SWAP1 RETURN JUMPDEST PUSH2 0x13E PUSH2 0x3E8 JUMP JUMPDEST PUSH1 0x40 MLOAD PUSH2 0x14B SWAP2 SWAP1 PUSH2 0xEC3 JUMP JUMPDEST PUSH1 0x40 MLOAD DUP1 SWAP2 SUB SWAP1 RETURN JUMPDEST PUSH2 0x16E PUSH1 0x4 DUP1 CALLDATASIZE SUB DUP2 ADD SWAP1 PUSH2 0x169 SWAP2 SWAP1 PUSH2 0xB35 JUMP JUMPDEST PUSH2 0x40C JUMP JUMPDEST STOP JUMPDEST PUSH2 0x18A PUSH1 0x4 DUP1 CALLDATASIZE SUB DUP2 ADD SWAP1 PUSH2 0x185 SWAP2 SWAP1 PUSH2 0xB08 JUMP JUMPDEST PUSH2 0x6A1 JUMP JUMPDEST PUSH1 0x40 MLOAD PUSH2 0x19F SWAP10 SWAP9 SWAP8 SWAP7 SWAP6 SWAP5 SWAP4 SWAP3 SWAP2 SWAP1 PUSH2 0xF50 JUMP JUMPDEST PUSH1 0x40 MLOAD DUP1 SWAP2 SUB SWAP1 RETURN JUMPDEST PUSH1 0x1 DUP1 SLOAD PUSH2 0x1B5 SWAP1 PUSH2 0x11E1 JUMP JUMPDEST DUP1 PUSH1 0x1F ADD PUSH1 0x20 DUP1 SWAP2 DIV MUL PUSH1 0x20 ADD PUSH1 0x40 MLOAD SWAP1 DUP2 ADD PUSH1 0x40 MSTORE DUP1 SWAP3 SWAP2 SWAP1 DUP2 DUP2 MSTORE PUSH1 0x20 ADD DUP3 DUP1 SLOAD PUSH2 0x1E1 SWAP1 PUSH2 0x11E1 JUMP JUMPDEST DUP1 ISZERO PUSH2 0x22E JUMPI DUP1 PUSH1 0x1F LT PUSH2 0x203 JUMPI PUSH2 0x100 DUP1 DUP4 SLOAD DIV MUL DUP4 MSTORE SWAP2 PUSH1 0x20 ADD SWAP2 PUSH2 0x22E JUMP JUMPDEST DUP3 ADD SWAP2 SWAP1 PUSH1 0x0 MSTORE PUSH1 0x20 PUSH1 0x0 KECCAK256 SWAP1 JUMPDEST DUP2 SLOAD DUP2 MSTORE SWAP1 PUSH1 0x1 ADD SWAP1 PUSH1 0x20 ADD DUP1 DUP4 GT PUSH2 0x211 JUMPI DUP3 SWAP1 SUB PUSH1 0x1F AND DUP3 ADD SWAP2 JUMPDEST POP POP POP POP POP DUP2 JUMP JUMPDEST PUSH1 0x0 DUP1 SLOAD SWAP1 PUSH2 0x100 EXP SWAP1 DIV PUSH20 0xFFFFFFFFFFFFFFFFFFFFFFFFFFFFFFFFFFFFFFFF AND PUSH20 0xFFFFFFFFFFFFFFFFFFFFFFFFFFFFFFFFFFFFFFFF AND CALLER PUSH20 0xFFFFFFFFFFFFFFFFFFFFFFFFFFFFFFFFFFFFFFFF AND EQ PUSH2 0x2C4 JUMPI PUSH1 0x40 MLOAD PUSH32 0x8C379A000000000000000000000000000000000000000000000000000000000 DUP2 MSTORE PUSH1 0x4 ADD PUSH2 0x2BB SWAP1 PUSH2 0xF30 JUMP JUMPDEST PUSH1 0x40 MLOAD DUP1 SWAP2 SUB SWAP1 REVERT JUMPDEST DUP2 PUSH1 0x1 SWAP1 DUP1 MLOAD SWAP1 PUSH1 0x20 ADD SWAP1 PUSH2 0x2DA SWAP3 SWAP2 SWAP1 PUSH2 0x9E0 JUMP JUMPDEST POP DUP1 PUSH1 0x2 SWAP1 DUP1 MLOAD SWAP1 PUSH1 0x20 ADD SWAP1 PUSH2 0x2F1 SWAP3 SWAP2 SWAP1 PUSH2 0x9E0 JUMP JUMPDEST POP POP POP JUMP JUMPDEST PUSH1 0x2 DUP1 SLOAD PUSH2 0x303 SWAP1 PUSH2 0x11E1 JUMP JUMPDEST DUP1 PUSH1 0x1F ADD PUSH1 0x20 DUP1 SWAP2 DIV MUL PUSH1 0x20 ADD PUSH1 0x40 MLOAD SWAP1 DUP2 ADD PUSH1 0x40 MSTORE DUP1 SWAP3 SWAP2 SWAP1 DUP2 DUP2 MSTORE PUSH1 0x20 ADD DUP3 DUP1 SLOAD PUSH2 0x32F SWAP1 PUSH2 0x11E1 JUMP JUMPDEST DUP1 ISZERO PUSH2 0x37C JUMPI DUP1 PUSH1 0x1F LT PUSH2 0x351 JUMPI PUSH2 0x100 DUP1 DUP4 SLOAD DIV MUL DUP4 MSTORE SWAP2 PUSH1 0x20 ADD SWAP2 PUSH2 0x37C JUMP JUMPDEST DUP3 ADD SWAP2 SWAP1 PUSH1 0x0 MSTORE PUSH1 0x20 PUSH1 0x0 KECCAK256 SWAP1 JUMPDEST DUP2 SLOAD DUP2 MSTORE SWAP1 PUSH1 0x1 ADD SWAP1 PUSH1 0x20 ADD DUP1 DUP4 GT PUSH2 0x35F JUMPI DUP3 SWAP1 SUB PUSH1 0x1F AND DUP3 ADD SWAP2 JUMPDEST POP POP POP POP POP DUP2 JUMP JUMPDEST PUSH1 0x1 PUSH1 0x0 PUSH1 0x16 DUP3 DUP3 DUP3 SWAP1 SLOAD SWAP1 PUSH2 0x100 EXP SWAP1 DIV PUSH2 0xFFFF AND PUSH2 0x3A4 SWAP2 SWAP1 PUSH2 0x109E JUMP JUMPDEST SWAP3 POP PUSH2 0x100 EXP DUP2 SLOAD DUP2 PUSH2 0xFFFF MUL NOT AND SWAP1 DUP4 PUSH2 0xFFFF AND MUL OR SWAP1 SSTORE POP JUMP JUMPDEST PUSH1 0x0 PUSH1 0x16 SWAP1 SLOAD SWAP1 PUSH2 0x100 EXP SWAP1 DIV PUSH2 0xFFFF AND DUP2 JUMP JUMPDEST PUSH1 0x0 PUSH1 0x14 SWAP1 SLOAD SWAP1 PUSH2 0x100 EXP SWAP1 DIV PUSH2 0xFFFF AND DUP2 JUMP JUMPDEST PUSH1 0x0 DUP1 SLOAD SWAP1 PUSH2 0x100 EXP SWAP1 DIV PUSH20 0xFFFFFFFFFFFFFFFFFFFFFFFFFFFFFFFFFFFFFFFF AND DUP2 JUMP JUMPDEST PUSH1 0x0 PUSH1 0x40 MLOAD DUP1 PUSH2 0x120 ADD PUSH1 0x40 MSTORE DUP1 PUSH1 0x0 PUSH1 0x14 SWAP1 SLOAD SWAP1 PUSH2 0x100 EXP SWAP1 DIV PUSH2 0xFFFF AND PUSH2 0xFFFF AND PUSH16 0xFFFFFFFFFFFFFFFFFFFFFFFFFFFFFFFF AND DUP2 MSTORE PUSH1 0x20 ADD DUP9 PUSH20 0xFFFFFFFFFFFFFFFFFFFFFFFFFFFFFFFFFFFFFFFF AND DUP2 MSTORE PUSH1 0x20 ADD DUP8 DUP2 MSTORE PUSH1 0x20 ADD DUP7 DUP2 MSTORE PUSH1 0x20 ADD DUP6 DUP2 MSTORE PUSH1 0x20 ADD DUP5 DUP2 MSTORE PUSH1 0x20 ADD DUP4 DUP2 MSTORE PUSH1 0x20 ADD PUSH1 0xC PUSH1 0xFF AND DUP2 MSTORE PUSH1 0x20 ADD PUSH4 0x1E13380 TIMESTAMP PUSH2 0x49A SWAP2 SWAP1 PUSH2 0x10D6 JUMP JUMPDEST DUP2 MSTORE POP SWAP1 POP DUP1 PUSH1 0x3 PUSH1 0x0 CALLER PUSH20 0xFFFFFFFFFFFFFFFFFFFFFFFFFFFFFFFFFFFFFFFF AND PUSH20 0xFFFFFFFFFFFFFFFFFFFFFFFFFFFFFFFFFFFFFFFF AND DUP2 MSTORE PUSH1 0x20 ADD SWAP1 DUP2 MSTORE PUSH1 0x20 ADD PUSH1 0x0 KECCAK256 PUSH1 0x0 DUP3 ADD MLOAD DUP2 PUSH1 0x0 ADD PUSH1 0x0 PUSH2 0x100 EXP DUP2 SLOAD DUP2 PUSH16 0xFFFFFFFFFFFFFFFFFFFFFFFFFFFFFFFF MUL NOT AND SWAP1 DUP4 PUSH16 0xFFFFFFFFFFFFFFFFFFFFFFFFFFFFFFFF AND MUL OR SWAP1 SSTORE POP PUSH1 0x20 DUP3 ADD MLOAD DUP2 PUSH1 0x1 ADD PUSH1 0x0 PUSH2 0x100 EXP DUP2 SLOAD DUP2 PUSH20 0xFFFFFFFFFFFFFFFFFFFFFFFFFFFFFFFFFFFFFFFF MUL NOT AND SWAP1 DUP4 PUSH20 0xFFFFFFFFFFFFFFFFFFFFFFFFFFFFFFFFFFFFFFFF AND MUL OR SWAP1 SSTORE POP PUSH1 0x40 DUP3 ADD MLOAD DUP2 PUSH1 0x2 ADD SWAP1 DUP1 MLOAD SWAP1 PUSH1 0x20 ADD SWAP1 PUSH2 0x581 SWAP3 SWAP2 SWAP1 PUSH2 0x9E0 JUMP JUMPDEST POP PUSH1 0x60 DUP3 ADD MLOAD DUP2 PUSH1 0x3 ADD SWAP1 DUP1 MLOAD SWAP1 PUSH1 0x20 ADD SWAP1 PUSH2 0x59E SWAP3 SWAP2 SWAP1 PUSH2 0x9E0 JUMP JUMPDEST POP PUSH1 0x80 DUP3 ADD MLOAD DUP2 PUSH1 0x4 ADD SWAP1 DUP1 MLOAD SWAP1 PUSH1 0x20 ADD SWAP1 PUSH2 0x5BB SWAP3 SWAP2 SWAP1 PUSH2 0x9E0 JUMP JUMPDEST POP PUSH1 0xA0 DUP3 ADD MLOAD DUP2 PUSH1 0x5 ADD SWAP1 DUP1 MLOAD SWAP1 PUSH1 0x20 ADD SWAP1 PUSH2 0x5D8 SWAP3 SWAP2 SWAP1 PUSH2 0x9E0 JUMP JUMPDEST POP PUSH1 0xC0 DUP3 ADD MLOAD DUP2 PUSH1 0x6 ADD SWAP1 DUP1 MLOAD SWAP1 PUSH1 0x20 ADD SWAP1 PUSH2 0x5F5 SWAP3 SWAP2 SWAP1 PUSH2 0x9E0 JUMP JUMPDEST POP PUSH1 0xE0 DUP3 ADD MLOAD DUP2 PUSH1 0x7 ADD PUSH1 0x0 PUSH2 0x100 EXP DUP2 SLOAD DUP2 PUSH1 0xFF MUL NOT AND SWAP1 DUP4 PUSH1 0xFF AND MUL OR SWAP1 SSTORE POP PUSH2 0x100 DUP3 ADD MLOAD DUP2 PUSH1 0x8 ADD SSTORE SWAP1 POP POP PUSH1 0x1 PUSH1 0x0 PUSH1 0x14 DUP3 DUP3 DUP3 SWAP1 SLOAD SWAP1 PUSH2 0x100 EXP SWAP1 DIV PUSH2 0xFFFF AND PUSH2 0x645 SWAP2 SWAP1 PUSH2 0x109E JUMP JUMPDEST SWAP3 POP PUSH2 0x100 EXP DUP2 SLOAD DUP2 PUSH2 0xFFFF MUL NOT AND SWAP1 DUP4 PUSH2 0xFFFF AND MUL OR SWAP1 SSTORE POP PUSH32 0x2FCFB316E39DA5B742B77C48250753017A74AA73F7D29A892660D4A6D044A093 DUP8 DUP3 PUSH1 0x40 MLOAD PUSH2 0x690 SWAP3 SWAP2 SWAP1 PUSH2 0xEDE JUMP JUMPDEST PUSH1 0x40 MLOAD DUP1 SWAP2 SUB SWAP1 LOG1 POP POP POP POP POP POP POP JUMP JUMPDEST PUSH1 0x3 PUSH1 0x20 MSTORE DUP1 PUSH1 0x0 MSTORE PUSH1 0x40 PUSH1 0x0 KECCAK256 PUSH1 0x0 SWAP2 POP SWAP1 POP DUP1 PUSH1 0x0 ADD PUSH1 0x0 SWAP1 SLOAD SWAP1 PUSH2 0x100 EXP SWAP1 DIV PUSH16 0xFFFFFFFFFFFFFFFFFFFFFFFFFFFFFFFF AND SWAP1 DUP1 PUSH1 0x1 ADD PUSH1 0x0 SWAP1 SLOAD SWAP1 PUSH2 0x100 EXP SWAP1 DIV PUSH20 0xFFFFFFFFFFFFFFFFFFFFFFFFFFFFFFFFFFFFFFFF AND SWAP1 DUP1 PUSH1 0x2 ADD DUP1 SLOAD PUSH2 0x70C SWAP1 PUSH2 0x11E1 JUMP JUMPDEST DUP1 PUSH1 0x1F ADD PUSH1 0x20 DUP1 SWAP2 DIV MUL PUSH1 0x20 ADD PUSH1 0x40 MLOAD SWAP1 DUP2 ADD PUSH1 0x40 MSTORE DUP1 SWAP3 SWAP2 SWAP1 DUP2 DUP2 MSTORE PUSH1 0x20 ADD DUP3 DUP1 SLOAD PUSH2 0x738 SWAP1 PUSH2 0x11E1 JUMP JUMPDEST DUP1 ISZERO PUSH2 0x785 JUMPI DUP1 PUSH1 0x1F LT PUSH2 0x75A JUMPI PUSH2 0x100 DUP1 DUP4 SLOAD DIV MUL DUP4 MSTORE SWAP2 PUSH1 0x20 ADD SWAP2 PUSH2 0x785 JUMP JUMPDEST DUP3 ADD SWAP2 SWAP1 PUSH1 0x0 MSTORE PUSH1 0x20 PUSH1 0x0 KECCAK256 SWAP1 JUMPDEST DUP2 SLOAD DUP2 MSTORE SWAP1 PUSH1 0x1 ADD SWAP1 PUSH1 0x20 ADD DUP1 DUP4 GT PUSH2 0x768 JUMPI DUP3 SWAP1 SUB PUSH1 0x1F AND DUP3 ADD SWAP2 JUMPDEST POP POP POP POP POP SWAP1 DUP1 PUSH1 0x3 ADD DUP1 SLOAD PUSH2 0x79A SWAP1 PUSH2 0x11E1 JUMP JUMPDEST DUP1 PUSH1 0x1F ADD PUSH1 0x20 DUP1 SWAP2 DIV MUL PUSH1 0x20 ADD PUSH1 0x40 MLOAD SWAP1 DUP2 ADD PUSH1 0x40 MSTORE DUP1 SWAP3 SWAP2 SWAP1 DUP2 DUP2 MSTORE PUSH1 0x20 ADD DUP3 DUP1 SLOAD PUSH2 0x7C6 SWAP1 PUSH2 0x11E1 JUMP JUMPDEST DUP1 ISZERO PUSH2 0x813 JUMPI DUP1 PUSH1 0x1F LT PUSH2 0x7E8 JUMPI PUSH2 0x100 DUP1 DUP4 SLOAD DIV MUL DUP4 MSTORE SWAP2 PUSH1 0x20 ADD SWAP2 PUSH2 0x813 JUMP JUMPDEST DUP3 ADD SWAP2 SWAP1 PUSH1 0x0 MSTORE PUSH1 0x20 PUSH1 0x0 KECCAK256 SWAP1 JUMPDEST DUP2 SLOAD DUP2 MSTORE SWAP1 PUSH1 0x1 ADD SWAP1 PUSH1 0x20 ADD DUP1 DUP4 GT PUSH2 0x7F6 JUMPI DUP3 SWAP1 SUB PUSH1 0x1F AND DUP3 ADD SWAP2 JUMPDEST POP POP POP POP POP SWAP1 DUP1 PUSH1 0x4 ADD DUP1 SLOAD PUSH2 0x828 SWAP1 PUSH2 0x11E1 JUMP JUMPDEST DUP1 PUSH1 0x1F ADD PUSH1 0x20 DUP1 SWAP2 DIV MUL PUSH1 0x20 ADD PUSH1 0x40 MLOAD SWAP1 DUP2 ADD PUSH1 0x40 MSTORE DUP1 SWAP3 SWAP2 SWAP1 DUP2 DUP2 MSTORE PUSH1 0x20 ADD DUP3 DUP1 SLOAD PUSH2 0x854 SWAP1 PUSH2 0x11E1 JUMP JUMPDEST DUP1 ISZERO PUSH2 0x8A1 JUMPI DUP1 PUSH1 0x1F LT PUSH2 0x876 JUMPI PUSH2 0x100 DUP1 DUP4 SLOAD DIV MUL DUP4 MSTORE SWAP2 PUSH1 0x20 ADD SWAP2 PUSH2 0x8A1 JUMP JUMPDEST DUP3 ADD SWAP2 SWAP1 PUSH1 0x0 MSTORE PUSH1 0x20 PUSH1 0x0 KECCAK256 SWAP1 JUMPDEST DUP2 SLOAD DUP2 MSTORE SWAP1 PUSH1 0x1 ADD SWAP1 PUSH1 0x20 ADD DUP1 DUP4 GT PUSH2 0x884 JUMPI DUP3 SWAP1 SUB PUSH1 0x1F AND DUP3 ADD SWAP2 JUMPDEST POP POP POP POP POP SWAP1 DUP1 PUSH1 0x5 ADD DUP1 SLOAD PUSH2 0x8B6 SWAP1 PUSH2 0x11E1 JUMP JUMPDEST DUP1 PUSH1 0x1F ADD PUSH1 0x20 DUP1 SWAP2 DIV MUL PUSH1 0x20 ADD PUSH1 0x40 MLOAD SWAP1 DUP2 ADD PUSH1 0x40 MSTORE DUP1 SWAP3 SWAP2 SWAP1 DUP2 DUP2 MSTORE PUSH1 0x20 ADD DUP3 DUP1 SLOAD PUSH2 0x8E2 SWAP1 PUSH2 0x11E1 JUMP JUMPDEST DUP1 ISZERO PUSH2 0x92F JUMPI DUP1 PUSH1 0x1F LT PUSH2 0x904 JUMPI PUSH2 0x100 DUP1 DUP4 SLOAD DIV MUL DUP4 MSTORE SWAP2 PUSH1 0x20 ADD SWAP2 PUSH2 0x92F JUMP JUMPDEST DUP3 ADD SWAP2 SWAP1 PUSH1 0x0 MSTORE PUSH1 0x20 PUSH1 0x0 KECCAK256 SWAP1 JUMPDEST DUP2 SLOAD DUP2 MSTORE SWAP1 PUSH1 0x1 ADD SWAP1 PUSH1 0x20 ADD DUP1 DUP4 GT PUSH2 0x912 JUMPI DUP3 SWAP1 SUB PUSH1 0x1F AND DUP3 ADD SWAP2 JUMPDEST POP POP POP POP POP SWAP1 DUP1 PUSH1 0x6 ADD DUP1 SLOAD PUSH2 0x944 SWAP1 PUSH2 0x11E1 JUMP JUMPDEST DUP1 PUSH1 0x1F ADD PUSH1 0x20 DUP1 SWAP2 DIV MUL PUSH1 0x20 ADD PUSH1 0x40 MLOAD SWAP1 DUP2 ADD PUSH1 0x40 MSTORE DUP1 SWAP3 SWAP2 SWAP1 DUP2 DUP2 MSTORE PUSH1 0x20 ADD DUP3 DUP1 SLOAD PUSH2 0x970 SWAP1 PUSH2 0x11E1 JUMP JUMPDEST DUP1 ISZERO PUSH2 0x9BD JUMPI DUP1 PUSH1 0x1F LT PUSH2 0x992 JUMPI PUSH2 0x100 DUP1 DUP4 SLOAD DIV MUL DUP4 MSTORE SWAP2 PUSH1 0x20 ADD SWAP2 PUSH2 0x9BD JUMP JUMPDEST DUP3 ADD SWAP2 SWAP1 PUSH1 0x0 MSTORE PUSH1 0x20 PUSH1 0x0 KECCAK256 SWAP1 JUMPDEST DUP2 SLOAD DUP2 MSTORE SWAP1 PUSH1 0x1 ADD SWAP1 PUSH1 0x20 ADD DUP1 DUP4 GT PUSH2 0x9A0 JUMPI DUP3 SWAP1 SUB PUSH1 0x1F AND DUP3 ADD SWAP2 JUMPDEST POP POP POP POP POP SWAP1 DUP1 PUSH1 0x7 ADD PUSH1 0x0 SWAP1 SLOAD SWAP1 PUSH2 0x100 EXP SWAP1 DIV PUSH1 0xFF AND SWAP1 DUP1 PUSH1 0x8 ADD SLOAD SWAP1 POP DUP10 JUMP JUMPDEST DUP3 DUP1 SLOAD PUSH2 0x9EC SWAP1 PUSH2 0x11E1 JUMP JUMPDEST SWAP1 PUSH1 0x0 MSTORE PUSH1 0x20 PUSH1 0x0 KECCAK256 SWAP1 PUSH1 0x1F ADD PUSH1 0x20 SWAP1 DIV DUP2 ADD SWAP3 DUP3 PUSH2 0xA0E JUMPI PUSH1 0x0 DUP6 SSTORE PUSH2 0xA55 JUMP JUMPDEST DUP3 PUSH1 0x1F LT PUSH2 0xA27 JUMPI DUP1 MLOAD PUSH1 0xFF NOT AND DUP4 DUP1 ADD OR DUP6 SSTORE PUSH2 0xA55 JUMP JUMPDEST DUP3 DUP1 ADD PUSH1 0x1 ADD DUP6 SSTORE DUP3 ISZERO PUSH2 0xA55 JUMPI SWAP2 DUP3 ADD JUMPDEST DUP3 DUP2 GT ISZERO PUSH2 0xA54 JUMPI DUP3 MLOAD DUP3 SSTORE SWAP2 PUSH1 0x20 ADD SWAP2 SWAP1 PUSH1 0x1 ADD SWAP1 PUSH2 0xA39 JUMP JUMPDEST JUMPDEST POP SWAP1 POP PUSH2 0xA62 SWAP2 SWAP1 PUSH2 0xA66 JUMP JUMPDEST POP SWAP1 JUMP JUMPDEST JUMPDEST DUP1 DUP3 GT ISZERO PUSH2 0xA7F JUMPI PUSH1 0x0 DUP2 PUSH1 0x0 SWAP1 SSTORE POP PUSH1 0x1 ADD PUSH2 0xA67 JUMP JUMPDEST POP SWAP1 JUMP JUMPDEST PUSH1 0x0 PUSH2 0xA96 PUSH2 0xA91 DUP5 PUSH2 0x1040 JUMP JUMPDEST PUSH2 0x101B JUMP JUMPDEST SWAP1 POP DUP3 DUP2 MSTORE PUSH1 0x20 DUP2 ADD DUP5 DUP5 DUP5 ADD GT ISZERO PUSH2 0xAB2 JUMPI PUSH2 0xAB1 PUSH2 0x12D6 JUMP JUMPDEST JUMPDEST PUSH2 0xABD DUP5 DUP3 DUP6 PUSH2 0x119F JUMP JUMPDEST POP SWAP4 SWAP3 POP POP POP JUMP JUMPDEST PUSH1 0x0 DUP2 CALLDATALOAD SWAP1 POP PUSH2 0xAD4 DUP2 PUSH2 0x1345 JUMP JUMPDEST SWAP3 SWAP2 POP POP JUMP JUMPDEST PUSH1 0x0 DUP3 PUSH1 0x1F DUP4 ADD SLT PUSH2 0xAEF JUMPI PUSH2 0xAEE PUSH2 0x12D1 JUMP JUMPDEST JUMPDEST DUP2 CALLDATALOAD PUSH2 0xAFF DUP5 DUP3 PUSH1 0x20 DUP7 ADD PUSH2 0xA83 JUMP JUMPDEST SWAP2 POP POP SWAP3 SWAP2 POP POP JUMP JUMPDEST PUSH1 0x0 PUSH1 0x20 DUP3 DUP5 SUB SLT ISZERO PUSH2 0xB1E JUMPI PUSH2 0xB1D PUSH2 0x12E0 JUMP JUMPDEST JUMPDEST PUSH1 0x0 PUSH2 0xB2C DUP5 DUP3 DUP6 ADD PUSH2 0xAC5 JUMP JUMPDEST SWAP2 POP POP SWAP3 SWAP2 POP POP JUMP JUMPDEST PUSH1 0x0 DUP1 PUSH1 0x0 DUP1 PUSH1 0x0 DUP1 PUSH1 0xC0 DUP8 DUP10 SUB SLT ISZERO PUSH2 0xB52 JUMPI PUSH2 0xB51 PUSH2 0x12E0 JUMP JUMPDEST JUMPDEST PUSH1 0x0 PUSH2 0xB60 DUP10 DUP3 DUP11 ADD PUSH2 0xAC5 JUMP JUMPDEST SWAP7 POP POP PUSH1 0x20 DUP8 ADD CALLDATALOAD PUSH8 0xFFFFFFFFFFFFFFFF DUP2 GT ISZERO PUSH2 0xB81 JUMPI PUSH2 0xB80 PUSH2 0x12DB JUMP JUMPDEST JUMPDEST PUSH2 0xB8D DUP10 DUP3 DUP11 ADD PUSH2 0xADA JUMP JUMPDEST SWAP6 POP POP PUSH1 0x40 DUP8 ADD CALLDATALOAD PUSH8 0xFFFFFFFFFFFFFFFF DUP2 GT ISZERO PUSH2 0xBAE JUMPI PUSH2 0xBAD PUSH2 0x12DB JUMP JUMPDEST JUMPDEST PUSH2 0xBBA DUP10 DUP3 DUP11 ADD PUSH2 0xADA JUMP JUMPDEST SWAP5 POP POP PUSH1 0x60 DUP8 ADD CALLDATALOAD PUSH8 0xFFFFFFFFFFFFFFFF DUP2 GT ISZERO PUSH2 0xBDB JUMPI PUSH2 0xBDA PUSH2 0x12DB JUMP JUMPDEST JUMPDEST PUSH2 0xBE7 DUP10 DUP3 DUP11 ADD PUSH2 0xADA JUMP JUMPDEST SWAP4 POP POP PUSH1 0x80 DUP8 ADD CALLDATALOAD PUSH8 0xFFFFFFFFFFFFFFFF DUP2 GT ISZERO PUSH2 0xC08 JUMPI PUSH2 0xC07 PUSH2 0x12DB JUMP JUMPDEST JUMPDEST PUSH2 0xC14 DUP10 DUP3 DUP11 ADD PUSH2 0xADA JUMP JUMPDEST SWAP3 POP POP PUSH1 0xA0 DUP8 ADD CALLDATALOAD PUSH8 0xFFFFFFFFFFFFFFFF DUP2 GT ISZERO PUSH2 0xC35 JUMPI PUSH2 0xC34 PUSH2 0x12DB JUMP JUMPDEST JUMPDEST PUSH2 0xC41 DUP10 DUP3 DUP11 ADD PUSH2 0xADA JUMP JUMPDEST SWAP2 POP POP SWAP3 SWAP6 POP SWAP3 SWAP6 POP SWAP3 SWAP6 JUMP JUMPDEST PUSH1 0x0 DUP1 PUSH1 0x40 DUP4 DUP6 SUB SLT ISZERO PUSH2 0xC65 JUMPI PUSH2 0xC64 PUSH2 0x12E0 JUMP JUMPDEST JUMPDEST PUSH1 0x0 DUP4 ADD CALLDATALOAD PUSH8 0xFFFFFFFFFFFFFFFF DUP2 GT ISZERO PUSH2 0xC83 JUMPI PUSH2 0xC82 PUSH2 0x12DB JUMP JUMPDEST JUMPDEST PUSH2 0xC8F DUP6 DUP3 DUP7 ADD PUSH2 0xADA JUMP JUMPDEST SWAP3 POP POP PUSH1 0x20 DUP4 ADD CALLDATALOAD PUSH8 0xFFFFFFFFFFFFFFFF DUP2 GT ISZERO PUSH2 0xCB0 JUMPI PUSH2 0xCAF PUSH2 0x12DB JUMP JUMPDEST JUMPDEST PUSH2 0xCBC DUP6 DUP3 DUP7 ADD PUSH2 0xADA JUMP JUMPDEST SWAP2 POP POP SWAP3 POP SWAP3 SWAP1 POP JUMP JUMPDEST PUSH2 0xCCF DUP2 PUSH2 0x112C JUMP JUMPDEST DUP3 MSTORE POP POP JUMP JUMPDEST PUSH2 0xCDE DUP2 PUSH2 0x112C JUMP JUMPDEST DUP3 MSTORE POP POP JUMP JUMPDEST PUSH1 0x0 PUSH2 0xCEF DUP3 PUSH2 0x1071 JUMP JUMPDEST PUSH2 0xCF9 DUP2 DUP6 PUSH2 0x107C JUMP JUMPDEST SWAP4 POP PUSH2 0xD09 DUP2 DUP6 PUSH1 0x20 DUP7 ADD PUSH2 0x11AE JUMP JUMPDEST PUSH2 0xD12 DUP2 PUSH2 0x12E5 JUMP JUMPDEST DUP5 ADD SWAP2 POP POP SWAP3 SWAP2 POP POP JUMP JUMPDEST PUSH1 0x0 PUSH2 0xD28 DUP3 PUSH2 0x1071 JUMP JUMPDEST PUSH2 0xD32 DUP2 DUP6 PUSH2 0x108D JUMP JUMPDEST SWAP4 POP PUSH2 0xD42 DUP2 DUP6 PUSH1 0x20 DUP7 ADD PUSH2 0x11AE JUMP JUMPDEST PUSH2 0xD4B DUP2 PUSH2 0x12E5 JUMP JUMPDEST DUP5 ADD SWAP2 POP POP SWAP3 SWAP2 POP POP JUMP JUMPDEST PUSH1 0x0 PUSH2 0xD63 PUSH1 0x33 DUP4 PUSH2 0x108D JUMP JUMPDEST SWAP2 POP PUSH2 0xD6E DUP3 PUSH2 0x12F6 JUMP JUMPDEST PUSH1 0x40 DUP3 ADD SWAP1 POP SWAP2 SWAP1 POP JUMP JUMPDEST PUSH1 0x0 PUSH2 0x120 DUP4 ADD PUSH1 0x0 DUP4 ADD MLOAD PUSH2 0xD92 PUSH1 0x0 DUP7 ADD DUP3 PUSH2 0xE5A JUMP JUMPDEST POP PUSH1 0x20 DUP4 ADD MLOAD PUSH2 0xDA5 PUSH1 0x20 DUP7 ADD DUP3 PUSH2 0xCC6 JUMP JUMPDEST POP PUSH1 0x40 DUP4 ADD MLOAD DUP5 DUP3 SUB PUSH1 0x40 DUP7 ADD MSTORE PUSH2 0xDBD DUP3 DUP3 PUSH2 0xCE4 JUMP JUMPDEST SWAP2 POP POP PUSH1 0x60 DUP4 ADD MLOAD DUP5 DUP3 SUB PUSH1 0x60 DUP7 ADD MSTORE PUSH2 0xDD7 DUP3 DUP3 PUSH2 0xCE4 JUMP JUMPDEST SWAP2 POP POP PUSH1 0x80 DUP4 ADD MLOAD DUP5 DUP3 SUB PUSH1 0x80 DUP7 ADD MSTORE PUSH2 0xDF1 DUP3 DUP3 PUSH2 0xCE4 JUMP JUMPDEST SWAP2 POP POP PUSH1 0xA0 DUP4 ADD MLOAD DUP5 DUP3 SUB PUSH1 0xA0 DUP7 ADD MSTORE PUSH2 0xE0B DUP3 DUP3 PUSH2 0xCE4 JUMP JUMPDEST SWAP2 POP POP PUSH1 0xC0 DUP4 ADD MLOAD DUP5 DUP3 SUB PUSH1 0xC0 DUP7 ADD MSTORE PUSH2 0xE25 DUP3 DUP3 PUSH2 0xCE4 JUMP JUMPDEST SWAP2 POP POP PUSH1 0xE0 DUP4 ADD MLOAD PUSH2 0xE3A PUSH1 0xE0 DUP7 ADD DUP3 PUSH2 0xEA5 JUMP JUMPDEST POP PUSH2 0x100 DUP4 ADD MLOAD PUSH2 0xE4F PUSH2 0x100 DUP7 ADD DUP3 PUSH2 0xE87 JUMP JUMPDEST POP DUP1 SWAP2 POP POP SWAP3 SWAP2 POP POP JUMP JUMPDEST PUSH2 0xE63 DUP2 PUSH2 0x113E JUMP JUMPDEST DUP3 MSTORE POP POP JUMP JUMPDEST PUSH2 0xE72 DUP2 PUSH2 0x113E JUMP JUMPDEST DUP3 MSTORE POP POP JUMP JUMPDEST PUSH2 0xE81 DUP2 PUSH2 0x115A JUMP JUMPDEST DUP3 MSTORE POP POP JUMP JUMPDEST PUSH2 0xE90 DUP2 PUSH2 0x1188 JUMP JUMPDEST DUP3 MSTORE POP POP JUMP JUMPDEST PUSH2 0xE9F DUP2 PUSH2 0x1188 JUMP JUMPDEST DUP3 MSTORE POP POP JUMP JUMPDEST PUSH2 0xEAE DUP2 PUSH2 0x1192 JUMP JUMPDEST DUP3 MSTORE POP POP JUMP JUMPDEST PUSH2 0xEBD DUP2 PUSH2 0x1192 JUMP JUMPDEST DUP3 MSTORE POP POP JUMP JUMPDEST PUSH1 0x0 PUSH1 0x20 DUP3 ADD SWAP1 POP PUSH2 0xED8 PUSH1 0x0 DUP4 ADD DUP5 PUSH2 0xCD5 JUMP JUMPDEST SWAP3 SWAP2 POP POP JUMP JUMPDEST PUSH1 0x0 PUSH1 0x40 DUP3 ADD SWAP1 POP PUSH2 0xEF3 PUSH1 0x0 DUP4 ADD DUP6 PUSH2 0xCD5 JUMP JUMPDEST DUP2 DUP2 SUB PUSH1 0x20 DUP4 ADD MSTORE PUSH2 0xF05 DUP2 DUP5 PUSH2 0xD79 JUMP JUMPDEST SWAP1 POP SWAP4 SWAP3 POP POP POP JUMP JUMPDEST PUSH1 0x0 PUSH1 0x20 DUP3 ADD SWAP1 POP DUP2 DUP2 SUB PUSH1 0x0 DUP4 ADD MSTORE PUSH2 0xF28 DUP2 DUP5 PUSH2 0xD1D JUMP JUMPDEST SWAP1 POP SWAP3 SWAP2 POP POP JUMP JUMPDEST PUSH1 0x0 PUSH1 0x20 DUP3 ADD SWAP1 POP DUP2 DUP2 SUB PUSH1 0x0 DUP4 ADD MSTORE PUSH2 0xF49 DUP2 PUSH2 0xD56 JUMP JUMPDEST SWAP1 POP SWAP2 SWAP1 POP JUMP JUMPDEST PUSH1 0x0 PUSH2 0x120 DUP3 ADD SWAP1 POP PUSH2 0xF66 PUSH1 0x0 DUP4 ADD DUP13 PUSH2 0xE69 JUMP JUMPDEST PUSH2 0xF73 PUSH1 0x20 DUP4 ADD DUP12 PUSH2 0xCD5 JUMP JUMPDEST DUP2 DUP2 SUB PUSH1 0x40 DUP4 ADD MSTORE PUSH2 0xF85 DUP2 DUP11 PUSH2 0xD1D JUMP JUMPDEST SWAP1 POP DUP2 DUP2 SUB PUSH1 0x60 DUP4 ADD MSTORE PUSH2 0xF99 DUP2 DUP10 PUSH2 0xD1D JUMP JUMPDEST SWAP1 POP DUP2 DUP2 SUB PUSH1 0x80 DUP4 ADD MSTORE PUSH2 0xFAD DUP2 DUP9 PUSH2 0xD1D JUMP JUMPDEST SWAP1 POP DUP2 DUP2 SUB PUSH1 0xA0 DUP4 ADD MSTORE PUSH2 0xFC1 DUP2 DUP8 PUSH2 0xD1D JUMP JUMPDEST SWAP1 POP DUP2 DUP2 SUB PUSH1 0xC0 DUP4 ADD MSTORE PUSH2 0xFD5 DUP2 DUP7 PUSH2 0xD1D JUMP JUMPDEST SWAP1 POP PUSH2 0xFE4 PUSH1 0xE0 DUP4 ADD DUP6 PUSH2 0xEB4 JUMP JUMPDEST PUSH2 0xFF2 PUSH2 0x100 DUP4 ADD DUP5 PUSH2 0xE96 JUMP JUMPDEST SWAP11 SWAP10 POP POP POP POP POP POP POP POP POP POP JUMP JUMPDEST PUSH1 0x0 PUSH1 0x20 DUP3 ADD SWAP1 POP PUSH2 0x1015 PUSH1 0x0 DUP4 ADD DUP5 PUSH2 0xE78 JUMP JUMPDEST SWAP3 SWAP2 POP POP JUMP JUMPDEST PUSH1 0x0 PUSH2 0x1025 PUSH2 0x1036 JUMP JUMPDEST SWAP1 POP PUSH2 0x1031 DUP3 DUP3 PUSH2 0x1213 JUMP JUMPDEST SWAP2 SWAP1 POP JUMP JUMPDEST PUSH1 0x0 PUSH1 0x40 MLOAD SWAP1 POP SWAP1 JUMP JUMPDEST PUSH1 0x0 PUSH8 0xFFFFFFFFFFFFFFFF DUP3 GT ISZERO PUSH2 0x105B JUMPI PUSH2 0x105A PUSH2 0x12A2 JUMP JUMPDEST JUMPDEST PUSH2 0x1064 DUP3 PUSH2 0x12E5 JUMP JUMPDEST SWAP1 POP PUSH1 0x20 DUP2 ADD SWAP1 POP SWAP2 SWAP1 POP JUMP JUMPDEST PUSH1 0x0 DUP2 MLOAD SWAP1 POP SWAP2 SWAP1 POP JUMP JUMPDEST PUSH1 0x0 DUP3 DUP3 MSTORE PUSH1 0x20 DUP3 ADD SWAP1 POP SWAP3 SWAP2 POP POP JUMP JUMPDEST PUSH1 0x0 DUP3 DUP3 MSTORE PUSH1 0x20 DUP3 ADD SWAP1 POP SWAP3 SWAP2 POP POP JUMP JUMPDEST PUSH1 0x0 PUSH2 0x10A9 DUP3 PUSH2 0x115A JUMP JUMPDEST SWAP2 POP PUSH2 0x10B4 DUP4 PUSH2 0x115A JUMP JUMPDEST SWAP3 POP DUP3 PUSH2 0xFFFF SUB DUP3 GT ISZERO PUSH2 0x10CB JUMPI PUSH2 0x10CA PUSH2 0x1244 JUMP JUMPDEST JUMPDEST DUP3 DUP3 ADD SWAP1 POP SWAP3 SWAP2 POP POP JUMP JUMPDEST PUSH1 0x0 PUSH2 0x10E1 DUP3 PUSH2 0x1188 JUMP JUMPDEST SWAP2 POP PUSH2 0x10EC DUP4 PUSH2 0x1188 JUMP JUMPDEST SWAP3 POP DUP3 PUSH32 0xFFFFFFFFFFFFFFFFFFFFFFFFFFFFFFFFFFFFFFFFFFFFFFFFFFFFFFFFFFFFFFFF SUB DUP3 GT ISZERO PUSH2 0x1121 JUMPI PUSH2 0x1120 PUSH2 0x1244 JUMP JUMPDEST JUMPDEST DUP3 DUP3 ADD SWAP1 POP SWAP3 SWAP2 POP POP JUMP JUMPDEST PUSH1 0x0 PUSH2 0x1137 DUP3 PUSH2 0x1168 JUMP JUMPDEST SWAP1 POP SWAP2 SWAP1 POP JUMP JUMPDEST PUSH1 0x0 PUSH16 0xFFFFFFFFFFFFFFFFFFFFFFFFFFFFFFFF DUP3 AND SWAP1 POP SWAP2 SWAP1 POP JUMP JUMPDEST PUSH1 0x0 PUSH2 0xFFFF DUP3 AND SWAP1 POP SWAP2 SWAP1 POP JUMP JUMPDEST PUSH1 0x0 PUSH20 0xFFFFFFFFFFFFFFFFFFFFFFFFFFFFFFFFFFFFFFFF DUP3 AND SWAP1 POP SWAP2 SWAP1 POP JUMP JUMPDEST PUSH1 0x0 DUP2 SWAP1 POP SWAP2 SWAP1 POP JUMP JUMPDEST PUSH1 0x0 PUSH1 0xFF DUP3 AND SWAP1 POP SWAP2 SWAP1 POP JUMP JUMPDEST DUP3 DUP2 DUP4 CALLDATACOPY PUSH1 0x0 DUP4 DUP4 ADD MSTORE POP POP POP JUMP JUMPDEST PUSH1 0x0 JUMPDEST DUP4 DUP2 LT ISZERO PUSH2 0x11CC JUMPI DUP1 DUP3 ADD MLOAD DUP2 DUP5 ADD MSTORE PUSH1 0x20 DUP2 ADD SWAP1 POP PUSH2 0x11B1 JUMP JUMPDEST DUP4 DUP2 GT ISZERO PUSH2 0x11DB JUMPI PUSH1 0x0 DUP5 DUP5 ADD MSTORE JUMPDEST POP POP POP POP JUMP JUMPDEST PUSH1 0x0 PUSH1 0x2 DUP3 DIV SWAP1 POP PUSH1 0x1 DUP3 AND DUP1 PUSH2 0x11F9 JUMPI PUSH1 0x7F DUP3 AND SWAP2 POP JUMPDEST PUSH1 0x20 DUP3 LT DUP2 EQ ISZERO PUSH2 0x120D JUMPI PUSH2 0x120C PUSH2 0x1273 JUMP JUMPDEST JUMPDEST POP SWAP2 SWAP1 POP JUMP JUMPDEST PUSH2 0x121C DUP3 PUSH2 0x12E5 JUMP JUMPDEST DUP2 ADD DUP2 DUP2 LT PUSH8 0xFFFFFFFFFFFFFFFF DUP3 GT OR ISZERO PUSH2 0x123B JUMPI PUSH2 0x123A PUSH2 0x12A2 JUMP JUMPDEST JUMPDEST DUP1 PUSH1 0x40 MSTORE POP POP POP JUMP JUMPDEST PUSH32 0x4E487B7100000000000000000000000000000000000000000000000000000000 PUSH1 0x0 MSTORE PUSH1 0x11 PUSH1 0x4 MSTORE PUSH1 0x24 PUSH1 0x0 REVERT JUMPDEST PUSH32 0x4E487B7100000000000000000000000000000000000000000000000000000000 PUSH1 0x0 MSTORE PUSH1 0x22 PUSH1 0x4 MSTORE PUSH1 0x24 PUSH1 0x0 REVERT JUMPDEST PUSH32 0x4E487B7100000000000000000000000000000000000000000000000000000000 PUSH1 0x0 MSTORE PUSH1 0x41 PUSH1 0x4 MSTORE PUSH1 0x24 PUSH1 0x0 REVERT JUMPDEST PUSH1 0x0 DUP1 REVERT JUMPDEST PUSH1 0x0 DUP1 REVERT JUMPDEST PUSH1 0x0 DUP1 REVERT JUMPDEST PUSH1 0x0 DUP1 REVERT JUMPDEST PUSH1 0x0 PUSH1 0x1F NOT PUSH1 0x1F DUP4 ADD AND SWAP1 POP SWAP2 SWAP1 POP JUMP JUMPDEST PUSH32 0x546869732066756E6374696F6E206973207265737472696374656420746F2074 PUSH1 0x0 DUP3 ADD MSTORE PUSH32 0x686520636F6E74726163742773206F776E657200000000000000000000000000 PUSH1 0x20 DUP3 ADD MSTORE POP JUMP JUMPDEST PUSH2 0x134E DUP2 PUSH2 0x112C JUMP JUMPDEST DUP2 EQ PUSH2 0x1359 JUMPI PUSH1 0x0 DUP1 REVERT JUMPDEST POP JUMP INVALID LOG2 PUSH5 0x6970667358 0x22 SLT KECCAK256 SLOAD SWAP3 0x2C CREATE2 SUB DELEGATECALL 0x21 0xA7 0xEA 0x4B MULMOD 0xE3 STATICCALL 0xA6 PUSH21 0x3519DE1521C5A3418439F072756F39384B64736F6C PUSH4 0x43000807 STOP CALLER "
		},
		"gasEstimates": {
			"creation": {
				"codeDepositCost": "1002000",
				"executionCost": "infinite",
				"totalCost": "infinite"
			},
			"external": {
				"EmitLicense(address,string,string,string,string,string)": "infinite",
				"UpdateTotalBeekeepers()": "infinite",
				"UpdateTownHallLocation(string,string)": "infinite",
				"_counterLicenses()": "2543",
				"_numOfBeekeepers_uint()": "2521",
				"_owner()": "2555",
				"_townCountry_str()": "infinite",
				"_townName_str()": "infinite",
				"licenses(address)": "infinite"
			}
		},
		"methodIdentifiers": {
			"EmitLicense(address,string,string,string,string,string)": "dd107dca",
			"UpdateTotalBeekeepers()": "594e568e",
			"UpdateTownHallLocation(string,string)": "19d7ae35",
			"_counterLicenses()": "93c42ca9",
			"_numOfBeekeepers_uint()": "6e122151",
			"_owner()": "b2bdfa7b",
			"_townCountry_str()": "25f4525f",
			"_townName_str()": "04913936",
			"licenses(address)": "f18a02c6"
		}
	},
	"abi": [
		{
			"inputs": [],
			"stateMutability": "nonpayable",
			"type": "constructor"
		},
		{
			"anonymous": false,
			"inputs": [
				{
					"indexed": false,
					"internalType": "address",
					"name": "owner",
					"type": "address"
				},
				{
					"components": [
						{
							"internalType": "uint128",
							"name": "_idLicense_uint",
							"type": "uint128"
						},
						{
							"internalType": "address",
							"name": "_accountRequester_addr",
							"type": "address"
						},
						{
							"internalType": "string",
							"name": "_producerName_str",
							"type": "string"
						},
						{
							"internalType": "string",
							"name": "_producerAddress_str",
							"type": "string"
						},
						{
							"internalType": "string",
							"name": "_apiaryName_str",
							"type": "string"
						},
						{
							"internalType": "string",
							"name": "_apiaryAddress_str",
							"type": "string"
						},
						{
							"internalType": "string",
							"name": "_honeyTypes_str",
							"type": "string"
						},
						{
							"internalType": "uint8",
							"name": "_validityMonths_uint",
							"type": "uint8"
						},
						{
							"internalType": "uint256",
							"name": "_expirationDate_str",
							"type": "uint256"
						}
					],
					"indexed": false,
					"internalType": "struct TownHall.License_st",
					"name": "lic",
					"type": "tuple"
				}
			],
			"name": "LicenseEv",
			"type": "event"
		},
		{
			"inputs": [
				{
					"internalType": "address",
					"name": "accountRequester",
					"type": "address"
				},
				{
					"internalType": "string",
					"name": "producerName",
					"type": "string"
				},
				{
					"internalType": "string",
					"name": "producerAddress",
					"type": "string"
				},
				{
					"internalType": "string",
					"name": "apiaryName",
					"type": "string"
				},
				{
					"internalType": "string",
					"name": "apiaryAddress",
					"type": "string"
				},
				{
					"internalType": "string",
					"name": "honeyTypes",
					"type": "string"
				}
			],
			"name": "EmitLicense",
			"outputs": [],
			"stateMutability": "nonpayable",
			"type": "function"
		},
		{
			"inputs": [],
			"name": "UpdateTotalBeekeepers",
			"outputs": [],
			"stateMutability": "nonpayable",
			"type": "function"
		},
		{
			"inputs": [
				{
					"internalType": "string",
					"name": "townName_str",
					"type": "string"
				},
				{
					"internalType": "string",
					"name": "townCountry_str",
					"type": "string"
				}
			],
			"name": "UpdateTownHallLocation",
			"outputs": [],
			"stateMutability": "nonpayable",
			"type": "function"
		},
		{
			"inputs": [],
			"name": "_counterLicenses",
			"outputs": [
				{
					"internalType": "uint16",
					"name": "",
					"type": "uint16"
				}
			],
			"stateMutability": "view",
			"type": "function"
		},
		{
			"inputs": [],
			"name": "_numOfBeekeepers_uint",
			"outputs": [
				{
					"internalType": "uint16",
					"name": "",
					"type": "uint16"
				}
			],
			"stateMutability": "view",
			"type": "function"
		},
		{
			"inputs": [],
			"name": "_owner",
			"outputs": [
				{
					"internalType": "address",
					"name": "",
					"type": "address"
				}
			],
			"stateMutability": "view",
			"type": "function"
		},
		{
			"inputs": [],
			"name": "_townCountry_str",
			"outputs": [
				{
					"internalType": "string",
					"name": "",
					"type": "string"
				}
			],
			"stateMutability": "view",
			"type": "function"
		},
		{
			"inputs": [],
			"name": "_townName_str",
			"outputs": [
				{
					"internalType": "string",
					"name": "",
					"type": "string"
				}
			],
			"stateMutability": "view",
			"type": "function"
		},
		{
			"inputs": [
				{
					"internalType": "address",
					"name": "",
					"type": "address"
				}
			],
			"name": "licenses",
			"outputs": [
				{
					"internalType": "uint128",
					"name": "_idLicense_uint",
					"type": "uint128"
				},
				{
					"internalType": "address",
					"name": "_accountRequester_addr",
					"type": "address"
				},
				{
					"internalType": "string",
					"name": "_producerName_str",
					"type": "string"
				},
				{
					"internalType": "string",
					"name": "_producerAddress_str",
					"type": "string"
				},
				{
					"internalType": "string",
					"name": "_apiaryName_str",
					"type": "string"
				},
				{
					"internalType": "string",
					"name": "_apiaryAddress_str",
					"type": "string"
				},
				{
					"internalType": "string",
					"name": "_honeyTypes_str",
					"type": "string"
				},
				{
					"internalType": "uint8",
					"name": "_validityMonths_uint",
					"type": "uint8"
				},
				{
					"internalType": "uint256",
					"name": "_expirationDate_str",
					"type": "uint256"
				}
			],
			"stateMutability": "view",
			"type": "function"
		}
	]
}